:100000000C9444050C94AF050C9497080C94AF0520
:100010000C94AF050C94AF050C94AF050C94AF0590
:100020000C94AF050C94AF050C9440160C94AF05DE
:100030000C940A240C94AF050C94AF050C94AF05F6
:100040000C94AF050C94AF050C94AF050C94AF0560
:100050000C94AF050C945F240C94AF050C94AF0581
:100060000C94AF050C94AF050C94AF050C94AF0540
:100070000C94AF050C94AF050C94AF050C94AF0530
:100080000C94AF050C94AF050C94AF050C94AF0520
:100090000C94AF050C94AF05670A690A750A750AD6
:1000A000750A750A750A750A6B0A6D0A6F0A750A70
:1000B000750A690A770A750A750A310A670A750AA4
:1000C000750A6D0A750A750A750A750A750A750A40
:1000D0006F0A670A530A750A570A750A750A750A7C
:1000E000330A6B0A750A750A610A750A750A750A78
:1000F000350A730A750A550A750A690A750A750A76
:10010000650A590A750A5B0A6D0A750A750A750A45
:10011000630A5D0A750A750A750A750A750A750A11
:10012000750A5F0A750A370A750A750A6B0A750A35
:10013000750A730A750A750A750A750A750A750AC9
:10014000750A750A750A390A750A750A750A610A07
:10015000750A750A750A750A750A750A750A750AA7
:10016000750A750A3B0A750A3D0A3F0A750A750A3F
:10017000750A410A430A450A750A470A490A750A77
:10018000750A750A710A4B0A750A4F0A4D0A510A17
:10019000750A750A750A750A730A9B0AA90AB50ACF
:1001A000B50A8D0AB50AB50AB50AB50AB50AB50A7F
:1001B000B50AB50AB50AB50AB50AB50AB50A8F0A6D
:1001C000B50A910AB50AB50AB50AB50AAD0AB50A63
:1001D000C40AAB0AB50AB50AB50AB50AB50AB50A22
:1001E000B50AB50AB50AB50AB50AB50AB50A850A47
:1001F000A10A930AA50AB50A950AB50A990AB50A89
:10020000A30A970AA70A9D0A9F0AB50AB50AB50A62
:10021000B50AB50AB50AB50A870A890A8B0AAF0A70
:10022000B10AB50AB50AB50AB30A930BB30BBF0BF3
:10023000EC0BFC0B080C240C3B0C5E0C7B0C290D0E
:10024000550DD30D050EEF0D160E280E300E360E81
:100250003A0E400E9C0E9E0EA00EA20EE20EAA0EAC
:10026000AA0EAA0EA40EA60EA80E8B14B214AA15DE
:10027000B214AA15FE142115AA15781587150A1AA5
:100280000A1A421A421ABD1AD11CD11CD11CF11AE9
:10029000D11C991A991A8B1CD11CA01CBE1C007B66
:1002A00046010203763A687F6577482B353B6978CB
:1002B000796439141E3C6A7A1D16041A1F3D6B06B8
:1002C0001B070821203E6C2C19091715223F6D11C0
:1002D000050B0A1C23406E7E100D182425416F3635
:1002E0000E0C122726427037380F33132D437175C9
:1002F00034322F2E44727C7D283031744573515036
:100300004A524D492A5466594F5C5F4C4B4E6263CA
:100310005A5D5E60295367585B565761475548429E
:10032000403E3C3A3B456843413F3D2B357E697A30
:10033000790078141E7C6A7B1D16041A1F7F6B06D9
:100340001B070821204D6C2C19091715224A6D1125
:10035000050B0A1C234C6E49100D182425516F36CD
:100360000E0C1227264F7037380F33132D5271752C
:1003700034502F2E4E72397D283065314B735464C2
:10038000586776012A773259745C5F6602036263AC
:100390005A5D5E60295344575B5655614746802934
:1003A0001E1F20212223242526272D2E2A2B141A16
:1003B0000815171C180C12132F302878041607097B
:1003C0000A0B0D0E0F33343579311D1B061905113B
:1003D000103637387D557A2C393A3B3C3D3E3F400C
:1003E00041424353475F6061565C5D5E57595A5BBB
:1003F00062634648324445677B7F65030102525081
:10040000514F68696A6B6C6D6E6F707172580049FC
:100410004C754A4D734B4E767C777E7466547225CC
:100420003032582000623A2530345820006525309B
:10043000325820002146554C4C21200021464621AF
:10044000200077253032582000214353335F463057
:10045000210A00214353335F5245414459210A0088
:10046000214353325F45305F4630210A0021435318
:10047000325F4630210A00214353325F4530210A62
:1004800000214353325F494E4954210A002143530E
:10049000315F45305F25303258210A000A5B4F56E4
:1004A000525D20004C2575200053257520000A4917
:1004B000443A253034582825732920004D6F757330
:1004C000653A206E6F7420737570706F7274656416
:1004D0000A005225752000572575200057257520E4
:1004E00000572575200058257520004125752000EE
:1004F00049257520005B4348475D20000A5052544F
:100500003A25303258204953523A25303458200089
:100510005B5253545D20000A4552523A25303258FE
:10052000204953523A2530345820000A4B657962ED
:100530006F6172642073746172742E0A000A5553DD
:100540004220636F6E666967757265642E0A000AE1
:100550000A544D4B3A30356463313261652F4C5546
:1005600046410A0A003403490042004D0020005071
:1005700000430020006B006500790062006F00619D
:100580000072006400200063006F006E007600655A
:1005900000720074006500720000000E0374002EEB
:1005A000006D002E006B002E0000000403090409FA
:1005B000027400040100A0320904000001030101DB
:1005C00000092111010001224000070581030800F4
:1005D0000A090401000103000000092111010001C2
:1005E0002236000705820308000A090402000203FC
:1005F00000000009211101000122220007058303E8
:100600002000010705030320000109040300010382
:1006100000000009211101000122390007058403AF
:100620002000011201100100000008EDFEEE1B0188
:10063000000102000105010906A101050719E029D1
:10064000E7150025019508750181020508190129A2
:10065000059505750191029501750391010507192D
:100660000029F71500250195F875018102C00631B2
:10067000FF0974A1010975150026FF009520750872
:1006800081020976150026FF00952075089102C0A9
:1006900005010980A10185021601002637001A8193
:1006A000002AB700751095018100C0050C0901A151
:1006B000018503160100269C021A01002A9C02757E
:1006C0001095018100C005010906A101050719E087
:1006D00029E7150025019508750181029501750826
:1006E00081010508190129059505750191029501FA
:1006F000750391010507190029FF150026FF0095D4
:100700000675088100C0636F6E73756D65723A205F
:10071000253034580A0073797374656D3A2025309A
:1007200034580A000A002530325820006B6579627F
:100730006F6172643A20004C45443A2025303258AB
:100740000A0025583A2530386225730A000A20200D
:1007500030313233343536370A0064656C5F6B658F
:10076000795F6269743A2063616E27742064656CF6
:100770003A20253032580A006164645F6B65795F06
:100780006269743A2063616E2774206164643A2060
:10079000253032580A003F00433E20004C25640AB1
:1007A000000A092D20436F6E736F6C65202D0A457A
:1007B00053432F713A09717569740A000A092D2093
:1007C0004D61676963202D0A643A09646562756743
:1007D0000A783A096465627567206D617472697898
:1007E0000A6B3A096465627567206B6579626F61AF
:1007F00072640A6D3A096465627567206D6F75737E
:10080000650A763A0976657273696F6E0A733A09FA
:100810007374617475730A633A09636F6E736F6CF6
:1008200065206D6F64650A302D343A096C61796515
:1008300072302D34284631302D4634290A506175E6
:10084000733A09626F6F746C6F616465720A6E3A15
:10085000094E4B524F0A003F004E4B524F3A206F09
:1008600066660A004E4B524F3A206F6E0A0074695A
:100870006D65725F72656164333228293A202530D4
:10088000346C580A006B6579626F6172645F6E6BDD
:10089000726F3A2025580A006B6579626F61726445
:1008A0005F69646C653A2025580A006B6579626F50
:1008B0006172645F70726F746F636F6C3A20255859
:1008C0000A00686F73745F6B6579626F6172645F51
:1008D0006C65647328293A2025580A000A092D20DE
:1008E000537461747573202D0A004743433A2035D1
:1008F0002E342E30204156522D4C4942433A20325C
:100900002E302E30204156525F415243483A2061EA
:10091000767235310A004F5054494F4E533A204CAD
:100920005546412045585452414B455920434F4E5E
:10093000534F4C4520434F4D4D414E44204E4B525A
:100940004F204B45594D41505F53454354494F4EFD
:1009500020424F4F544C4F414445525F53495A45F2
:100960000A004255494C443A2030356463313261C3
:1009700065202831323A35343A3338204A616E20C6
:1009800032352032303231290A005649443A20307B
:10099000784645454428742E6D2E6B2E29205049EB
:1009A000443A203078316265652849424D205043F1
:1009B000206B6579626F61726420636F6E76657219
:1009C00074657229205645523A20307830303031E3
:1009D0000A00444553433A20636F6E766572742073
:1009E00049424D205043206B6579626F61726420EB
:1009F000746F205553420A000A092D205665727300
:100A0000696F6E202D0A000A6D6F7573653A206F4D
:100A100066660A000A6D6F7573653A206F6E0A008C
:100A20000A6B6579626F6172643A206F66660A00CC
:100A30000A6B6579626F6172643A206F6E0A000A10
:100A40006D61747269783A206F66660A000A6D619A
:100A5000747269783A206F6E0A000A64656275677D
:100A60003A206F6E0A000A64656275673A206F6605
:100A7000660A000A0A626F6F746C6F616465722E99
:100A80002E2E2000433E200011241FBECFEFD0E2C7
:100A9000DEBFCDBF04B603FE49C08091A203909192
:100AA000A303A091A403B091A5038730904BA74066
:100AB000B04B09F03BC01092A2031092A303109216
:100AC000A4031092A50314BE0FB6F894A8958091C4
:100AD0006000886180936000109260000FBE1092E9
:100AE000010810920008E3E0F0E089E080935700ED
:100AF000E491E695E370E150E33040F4F0E0EE0F6E
:100B0000FF1FE85BFE4F2081318102C020E030E210
:100B100080E090E0A2E0B0E0821B930BA109B10954
:100B2000B595A79597958795FC01099511E0A0E0EB
:100B3000B1E0EEECFCE400E00BBF02C007900D92C8
:100B4000AE34B107D9F723E0AEE4B1E001C01D92A5
:100B5000A23AB207E1F70E94A6110C9465260C9404
:100B60000000FF93EF93E0914E01F0914F01309719
:100B700009F00995EF91FF910895FC01859180306E
:100B800011F0EFDFFBCF0895FF27E0E230E247FFEF
:100B90000CC0419597FF09C0EDE260957095809576
:100BA0009095611D711D811D911D27FF02C021952A
:100BB00030E350E2AA27660F771F881F991FAA1FEC
:100BC000A41710F0A41B63955A95A9F7AA3008F052
:100BD000A95FA05DAF93F39561157105810591053E
:100BE00041F7ED3211F4EF93F395F21718F43F93B8
:100BF000F395FBCF8F91B5DFFA95E1F70895E99171
:100C0000F9918591803021F0853219F0AADFF9CF72
:100C1000089520E0E89455915532C1F3503311F412
:100C2000689455915A3348F4505390F3220F022E92
:100C3000220F220F200D250FF4CF0EF4219589915C
:100C40009991533619F3533729F1533559F1BC01B2
:100C500088279927E8945C3621F4899199916894C2
:100C60005591543639F446EF7EF077FF0DC08FEF83
:100C70009FEF0AC055374AE039F0583540E121F07E
:100C8000523642E009F00895FF93EF937DDFEF9134
:100C9000FF91B7CFFF93EF93FC0181918030B9F3BF
:100CA00060DFFBCFFF93EF9368DFF1CFDF93CF934C
:100CB000CDB7DEB72596A3DFCF91DF910895282F1A
:100CC00080915B01823071F08330B1F0813001F5A9
:100CD000E62FF0E038E0739FE00DF11D1124E2569D
:100CE000FC4F13C0E62FF0E088E0789FE00DF11D87
:100CF0001124E25EFC4F09C0E62FF0E038E0739F5C
:100D0000E00DF11D1124E256FD4FE491E03819F495
:100D100080E090E008959E2F9077892F90E034E056
:100D2000959587953A95E1F738E0239F800D911DC1
:100D3000112444E0880F991F4A95E1F7EF709C0158
:100D40002E0F311DF901EE0FFF1FE050F84985917C
:100D5000949108955998519A08955198599A0895DF
:100D60005898509A08955098589A08955198599AB9
:100D700085E08A95F1F7000089B186958170089524
:100D80005098589A85E08A95F1F7000089B18170F2
:100D90000895CF93DF93EC010E94B606882341F0BB
:100DA000209731F085E08A95F1F700002197F4CF84
:100DB000CE01DF91CF910895CF93DF93C2E3D0E0CE
:100DC0000E94B606811108C0209731F085E08A950F
:100DD000F1F700002197F4CFCE01DF91CF91089574
:100DE0002E9826982F9827980E94AA060E94B3064C
:100DF000E9E6F0E0808188608083E9980895E19ACF
:100E0000E99A0E94AD060C94B306E9980E94AA06DE
:100E10000C94B306CF93DF932FB7F894C0910201DF
:100E2000D0910301CE01882781159F4F19F080E0F2
:100E30009FEF02C08FEF90E08C2B9D2B90930301CE
:100E4000809302012FBFCE0199278F3F910581F535
:100E5000CD2FDD27C03FD10551F0CF3FD10509F49B
:100E600051C080918F03C034D10599F407C080919F
:100E70008F0380FF33C08CE394E004C080FF2EC05A
:100E800084E394E09F938F930E9456060F900F90F7
:100E900025C080FF37C0DF93CF938DE294E09F930E
:100EA0008F930E9456060F900F900F900F902AC0BC
:100EB000CE018F6F019699F080918F0380FF0CC057
:100EC000DF93CF9385E294E09F938F930E94560621
:100ED0000F900F900F900F90CD2F01C0CFEF80910A
:100EE0008F0380FF0CC01F92CF938EE194E09F93FD
:100EF0008F930E9456060F900F900F900F908C2F9B
:100F000090E002C08FEF9FEFDF91CF910895CF93D4
:100F1000CAE1C15069F00E940A078F3F2FEF920784
:100F200049F48FE99FE00197F1F700C00000F1CF8D
:100F30008FEF9FEFCF9108951092540110925301BB
:100F4000109252011092510180E090E890930101BB
:100F5000809300018FEF9FEF909303018093020134
:100F60000895EF92FF920F931F93CF93DF93082F73
:100F70001092510180918F0380FF0CC01F920F933C
:100F800082E494E09F938F930E9456060F900F90F7
:100F90000F900F90E9980E94AA060E94B3068FE86E
:100FA00091E00197F1F700C000000E94B0068FE8C1
:100FB00091E00197F1F700C000000E94AD0680E1CA
:100FC00097E20E94C906892B11F481E084C0C0E039
:100FD000D0E0FF24F39410E0EE24E39490E59A959A
:100FE000F1F7C8010C2E02C0959587950A94E2F797
:100FF00080FF04C0FE240E94B30602C00E94B00617
:101000000E94DC06892B11F482E065C082E390E047
:101010000E94C906892B11F483E05DC02196C83077
:10102000D105E1F680E58A95F1F7FF2019F00E94DD
:10103000B30602C00E94B0060E94DC06892B11F4A0
:1010400084E049C082E390E00E94C906892B11F434
:1010500085E041C090E59A95F1F70E94B3060E94A1
:10106000DC06892B11F486E036C080915201813173
:1010700009F447C082E390E00E94C906892B19F069
:10108000C2E3D0E009C087E026C0209759F025E0F0
:101090002A95F1F7000021970E94C0068111F5CF33
:1010A000CD2B11F488E017C00E94DC06892B19F0C3
:1010B000C2E3D0E009C089E00EC0209759F085E076
:1010C0008A95F1F7000021970E94C0068823A9F3B2
:1010D000CD2BB9F48AE08093510180915101806158
:1010E000809351010E94AD060E94B306E19AE99AED
:1010F0008FEF9FEFDF91CF911F910F91FF90EF90B6
:1011000008958FEF9FEF90930301809302010E9457
:101110009C070E94AD060E94B306E19AE99ADF910E
:10112000CF911F910F91FF90EF900C9487071F9222
:101130000F920FB60F9211242F933F934F935F930B
:101140008F939F9329B1809190034091000150911A
:1011500001014115504819F4809350010FC090913E
:101160005001891B833050F0809100019091010162
:10117000909354018093530180E2DDC0809100017F
:1011800090910101969587959093010180930001BC
:1011900020FF09C080910001909101019068909317
:1011A0000101809300018091000190910101992734
:1011B0008038910509F4F9C0A8F48032910509F44A
:1011C000F4C038F4009709F4F0C0409709F489C0DE
:1011D000A9C08034910509F4E8C08035910509F46F
:1011E00080C0A0C0803C910539F150F48039910550
:1011F00009F477C0803A910509F094C084E64DC0A7
:10120000803D910509F46DC0803E910509F08AC0CA
:1012100080910001909101019093540180935301BA
:101220008091000190910101892F992790930101EC
:101230008093000183E252C084E649990FC088235D
:1012400069F095E09A95F1F700008150F6CF882378
:1012500049F095E09A95F1F7000081504999F7CF50
:101260008111A3C0809100019091010190935401DC
:10127000809353018091000190910101892F99275A
:10128000909301018093000182E228C0882379F0C5
:1012900095E09A95F1F700008150499BF7CF07C080
:1012A000882349F095E09A95F1F70000815049991B
:1012B000F7CF81117AC08091000190910101909344
:1012C0005401809353018091000190910101892F75
:1012D0009927909301018093000181E2809352014C
:1012E00033C080910001909101019093540180934B
:1012F0005301809100019091010197FF02C080E1AC
:1013000001C081E18093520180910001909101011F
:1013100046E0969587954A95E1F790930101809371
:10132000000112C08091000190910101909354013D
:101330008093530180E8809351018091510190E0A6
:10134000982F88278F6F27C080910001909101010D
:1013500099278F3F910511F480EFEDCF8091030124
:101360008F3F31F0809102018F3F11F080E4E3CF95
:101370008091020190910301982F88279093030197
:1013800080930201209100013091010180910201BE
:1013900090910301822B909303018093020180E0DE
:1013A00090E890930101809300019F918F915F914C
:1013B0004F913F912F910F900FBE0F901F90189556
:1013C000CF93C82F8DEE0E94B1078A3F910521F47B
:1013D0008C2FCF910C94B107CF910895E82FE6950B
:1013E000E695E695EF70F0E0E15AFE4F4081282F38
:1013F000277081E090E002C0880F991F2A95E2F7DC
:10140000242F30E028233923232B11F4842B8083CD
:101410000895E82FE695E695E695EF70F0E0E15A3D
:10142000FE4F2081382F377081E090E002C0880F96
:10143000991F3A95E2F7422F50E048235923452B54
:1014400019F08095822380830895482F50E0FA0197
:101450003397E138F10508F048C0E45BFF4F0C9486
:101460005C2687E108958FE108958CE5089580E674
:10147000089582E6089587E2089583E508958FE24E
:10148000089589E3089587E308958FE3089587E435
:1014900008958FE4089586E508958EE508958FE711
:1014A000089580E0089585E608958EE608958FE614
:1014B000089580E3089588E3089580E4089588E41A
:1014C000089580E5089587E508958FE5089588E1FA
:1014D000089588E0089580E2089580E1089589E103
:1014E00008958DE6089588E208958F7708958FE036
:1014F0000895CF93482F50E0FA017C97E834F10526
:10150000A0F5E353FF4F0C945C2685E53EC08AE5C9
:101510003CC08BE53AC08CE538C08DE536C08EE521
:1015200034C08FE532C080E630C081E62EC082E64E
:101530002CC083E62AC08FE628C081E726C082E758
:1015400024C084E722C085E720C087E71EC088E763
:101550001CC08AE71AC08CE718C08FE716C080E766
:1015600014C089E712C08BE710C0C82F1F928F9359
:101570008DE894E09F938F930E9456060F900F90F2
:101580000F900F908C2F01C084E5CF9108950F9399
:101590001F93CF93DF930E9438248C010E940A0787
:1015A000EC01019631F4C8010E945024843F91401F
:1015B000A8F3CE01DF91CF911F910F9108950E9462
:1015C000F0060C94FF0680918F03816080938F0357
:1015D000EFE5F1E0119281E0EF36F807D9F70895D1
:1015E000E82FF0E0E15AFE4F80810895EFE5F1E049
:1015F000119281E0EF36F807D9F70895982F80917E
:101600005B01823048F092FB882780F990FD826070
:1016100091FD84600C94E0090895CF93DF9380914D
:101620005101882371F180915301909154012091CF
:1016300051019F938F931F922F9387E195E09F9382
:101640008F930E9456068091510180750F900F90E4
:101650000F900F900F900F9071F480915A018B3082
:1016600051F480E195E09F938F930E94560610926B
:101670005A010F900F901092510110925401109244
:10168000530180915201882309F440C09091520186
:1016900080915E019817D1F180915301909154018E
:1016A000209152019F938F931F922F938CEF94E080
:1016B0009F938F930E94560680915E010F900F902A
:1016C0000F900F900F900F9085FF04C090915201E2
:1016D00094FD06C084FF12C08091520185FF0EC0A8
:1016E00080915A018B3051F485EF94E09F938F9352
:1016F0000E94560610925A010F900F90809152014D
:1017000080935E011092540110925301E0915A01AE
:101710008E2F90E08C30910508F058C3FC01EB5EF1
:10172000FE4F0C945C260E9405070E9438249F936C
:101730008F9380EF94E09F938F930E9456061092B0
:101740005B0110925D0110925C0110925E010E949B
:10175000F60A0E94BA190E94382490935901809386
:10176000580181E06EC080915801909159010E940A
:101770005024893E934008F429C382E03AC00E9475
:101780009C070E94FF068FE99FE00197F1F700C0D8
:1017900000008FEF0E94B1078A3F910511F486E0A7
:1017A0000AC080915101873129F40E9487078A3F3E
:1017B0009105A9F383E080935A010E9438249F93F6
:1017C0008F938BEE94E09F938F930E9456060F9019
:1017D0000F900F900F90FAC20E9405072E98269A3C
:1017E0002F98279A0E94382490935901809358018A
:1017F00084E080935A01EAC2809158019091590186
:101800000E945024853F914008F4E0C285E0F1CF6A
:101810002E9826982F9827980E949C070E94FF06D2
:101820000E9438249F938F9386EE94E09F938F932A
:101830000E9456060E9438249093590180935801C3
:1018400086E080935A01C3CF0E940A07019609F4EB
:10185000BDC20E9438249F938F9381EE94E09F93A2
:101860008F930E9456060E943824909359018093CA
:10187000580187E0E6CF80915801909159010E946C
:101880005024853F914018F089E080935A010E94CE
:101890000A07019609F49AC20E9438249F938F93F5
:1018A0008CED94E09F938F930E9456060E943824FB
:1018B000909359018093580188E0C3CF80915801DB
:1018C000909159010E945024853F914018F089E081
:1018D00080935A010E940A07019609F477C20E9478
:1018E00038249F938F9387ED94E09F938F930E946A
:1018F000560689E0A6CF809152018131C1F082EF76
:101900000E94B1078F3F2FEF9207A1F08A3F910508
:10191000A1F40E94C70A8F3F3FEF930789F0D82FA9
:10192000CC270E94C70A9E01282BC9010BC08DEF4E
:101930009FEF08C08FEF9FEF05C08EEF9FEF02C0B3
:1019400080E090E090935D0180935C010E943824D8
:101950009F938F9382ED94E09F938F930E945606FE
:1019600080915C0190915D010F900F900F900F900E
:10197000009711F482E031C08F3F3FEF930711F4DD
:1019800081E02BC08E3F2FEF9207A1F38D3F3FEFF9
:10199000930711F484E021C08F3F910559F48CEB3B
:1019A00094E09F938F930E94560610925B010F90D4
:1019B0000F901FC09C0125583B4A2230310580F40E
:1019C00080EF0E94B1078A3F9105A1F683E00E9453
:1019D000B1078A3F910571F683E080935B0109C0EE
:1019E000803B2FEB9207C1F3882781159F4BA1F312
:1019F000C1CF80915B01813049F0823051F083305A
:101A000059F0843061F087E291E00BC08BE191E006
:101A100008C088E191E005C08EE191E002C08CE24F
:101A200091E09F938F9380915D018F9380915C01F2
:101A30008F938EEA94E09F938F930E9456068AE0DC
:101A400080935A010F900F900F900F900F900F906E
:101A5000BDC10E9438249F938F9389EA94E09F939D
:101A60008F930E9456060F900F900F900F908091C9
:101A70005B01823029F0833039F488EF0E94B1078E
:101A80000E9432170E94FE0A8BE080935A010E9446
:101A900038249F938F9384EA94E09F938F930E94BE
:101AA00056060F900F900F900F900E940A079C010E
:101AB0002F3F9FEF390709F489C12115310519F02E
:101AC0002F3F310569F40E94F60A0E94BA198CE989
:101AD00094E09F938F930E9456060F900F9076C1CB
:101AE00090915B01923009F451C018F4913041F0AB
:101AF0006DC1933009F4CCC0943009F447C066C17D
:101B000090915701923099F028F4992341F0913047
:101B1000C1F039C0933061F1943081F134C0803E1E
:101B200021F0813E51F482E005C081E003C08D3197
:101B3000D9F483E08093570149C187FFE3C08F77D1
:101B40000DC1863301F118F48A3229F41CC08A3A97
:101B5000D1F0863BC1F087FD03C00E94790A0BC01B
:101B60008F770E94790A0DC08D3969F484E0E2CF45
:101B7000853449F485E50E94EE0905C0853C19F4D9
:101B800085E50E94090A1092570120C1E091560193
:101B90004E2F50E04930510508F077C0FA01EF5D53
:101BA000FE4F0C945C26803E69F030F4833871F06F
:101BB000843871F48FE757C0813E31F0803F41F4A3
:101BC00081E05BC082E059C084E057C082E04BC036
:101BD00087FF98C00E94F60A81E894E098C0893592
:101BE00009F453C0803F19F0823119F44EC083E0EC
:101BF00044C01092560187FD03C00E94250A82C08E
:101C00000E94F60A87E794E082C0833821F0843886
:101C100021F48FE738C082E036C01092560187FF6A
:101C20009DC00E94F60A8DE694E071C010925601A4
:101C3000823109F4CBC0893509F4C8C087FD03C0DF
:101C40000E94250A8BC00E94F60A80E694E05FC0DD
:101C5000843121F0803FC9F486E00FC085E00DC0DB
:101C6000873799F480E00E94EE090FC0843169F44F
:101C700087E003C0803F49F488E080935601A6C006
:101C8000873719F480E00E94090A109256019EC01D
:101C900090915501913009F443C038F0923009F425
:101CA00063C0933009F47FC091C0863809F168F4AD
:101CB0008338D1F020F4803819F582E06CC0843884
:101CC000A9F08538E9F48BE01DC08C38A9F030F418
:101CD000873881F08B38A1F481E014C08D3871F021
:101CE000803F71F481E057C082E00CC08FE70AC0EA
:101CF00086E008C080E006C089E004C08AE002C037
:101D000087FD03C00E94EE0961C083E594E09F93C4
:101D10008F930E9456060F900F9010925A0156C052
:101D2000482F50E0FA01E358F109EB30F10590F447
:101D3000E65DFE4F0C945C2682E045C08FE743C011
:101D40008BE041C086E03FC081E03DC089E03BC000
:101D50008AE039C01092550187FD03C00E94090A2C
:101D600035C089E494E0D3CF853279F030F4863100
:101D700071F08E3199F480E00BC0863221F0803F03
:101D800069F483E008C08DE503C083E501C081E507
:101D90000E94EE0905C08093550118C00E94F60A02
:101DA0001092550113C08E3169F020F48631B1F7DD
:101DB00081E509C0853221F0863281F78DE503C0C7
:101DC00083E501C080E00E94090AEACF81E0DF914B
:101DD000CF9108958091930208950895CF93DF9352
:101DE00000D01F92CDB7DEB720919903243021F5A2
:101DF00023E029839B838A8382E08093E9008FEF2D
:101E00009091E800815095FD06C095ED9A95F1F707
:101E100000008111F5CF8091E80085FF0DC040E002
:101E200050E063E070E0CE0101960E945A13809169
:101E3000E8008E778093E8000F900F900F90DF916D
:101E4000CF910895CF93DF9300D01F92CDB7DEB727
:101E500020919903243029F522E0298380589109A3
:101E60009B838A832093E9008FEF9091E800815053
:101E700095FD06C095ED9A95F1F700008111F5CF1B
:101E80008091E80085FF0DC040E050E063E070E025
:101E9000CE0101960E945A138091E8008E778093BC
:101EA000E8000F900F900F90DF91CF910895CF939E
:101EB000DF93EC0190919903943009F048C0809130
:101EC00014018823D9F0809115018823B9F09093EB
:101ED000E90081E8815049F09091E80095FD05C046
:101EE0009AE29A95F1F700C0F5CF8091E80085FF5E
:101EF0002EC040E050E060E270E019C081E08093C5
:101F0000E90081E8815059F09091E80095FD07C003
:101F1000EFE3F1E03197F1F700C00000F3CF8091DB
:101F2000E80085FF14C040E050E068E070E0CE01BA
:101F30000E945A138091E8008E778093E80080E237
:101F4000FE01A3E7B2E001900D928A95E1F7DF91DF
:101F5000CF910895CF93C0917101C1110BC00E9420
:101F60004424643C79408105910520F081E0809310
:101F70007101C1E08C2FCF910895FF920F931F93B1
:101F8000CF93DF93D82F0FB607FE83C080919903BC
:101F9000843081F08091070190E001962091090141
:101FA00030E0822393232091080130E082179307C9
:101FB00009F0CBC00E94AA0F811110C080910701C7
:101FC00090E001962091090130E082239323209133
:101FD000080130E08217930709F0B7C00E94382447
:101FE0008C01C091E900CF709091EC00892F817035
:101FF00090FD80E8C82B83E08093E90085E0F82E0F
:102000008091EB0085FD42C08091EB0080FF3EC0D7
:102010008091EE0087FF3AC08091080190910701FE
:10202000981709F457C09091E80095FF8CC0E09193
:102030000501F0910601E80FF11D20818F5F90915D
:1020400009018923809308012093F1008091E80021
:1020500085FDE2CF8091E80080FFDECF8091E8002F
:102060008E778093E800F0920401D6CF809107012B
:1020700090E001962091090130E082239323209182
:10208000080130E08217930709F44AC0CF70C0936B
:10209000E90040910701842F90E001962091090109
:1020A00030E0822393232091080130E082179307C8
:1020B00009F44EC0E0910501F0910601E40FF11D15
:1020C000D083809107018F5F9091090189238093CC
:1020D00007013EC08091E80085FF35C0D093F10034
:1020E00081E02091F2003091F300232B91F0909148
:1020F000E80090FF0EC09091E80095FF03C0109299
:10210000F100F9CF9091E8009E779093E800F0926B
:102110000401882309F4AACFCF70C093E90018C046
:1021200080910401882309F4B1CF0E9438249C01D6
:102130008017910711F4890163CF909104019150A8
:1021400090930401F8CF80E0CCCF40910701B2CF4B
:1021500080E0DF91CF911F910F91FF9008958091C2
:102160009803811104C00E94C2150C94241608958E
:10217000109298030895089542E061EC81E00E9476
:10218000D31242E061EC82E00E94D31242E261ECA1
:1021900083E00E94D31242E261EC84E00C94D312FB
:1021A00080919B03833009F455C030F4813071F085
:1021B000823009F48EC008958A3009F47AC08B30D9
:1021C00009F460C0893009F09CC020C080919A0356
:1021D000813A09F096C08091E800877F8093E800FB
:1021E00080919E0390919F03892B21F460E283E705
:1021F00092E003C060E080E090E070E00E94A713EE
:102200008091E8008B778093E800089580919A038D
:10221000813209F076C080919E0390919F030097D0
:1022200019F0039709F06DC08091E800877F8093D3
:10223000E8008091E80082FD05C08091990381113A
:10224000F8CF5FC08091F100809393028091E80005
:102250008B7753C080919A03813A09F052C08091E4
:102260009E0390919F03892B09F04BC08091E80059
:10227000877F8093E8008091E80080FFFCCF809109
:10228000140136C080919A038132D9F580919E0362
:1022900090919F03892BA9F58091E800877F809317
:1022A000E8000E94081380919C03809314010C9411
:1022B000BA1980919A03813221F58091E800877FD5
:1022C0008093E8000E94081380919D0380939402FC
:1022D000089580919A03813AA1F48091E800877F64
:1022E0008093E8008091E80080FFFCCF8091940209
:1022F0008093F1008091E8008E778093E8000C9441
:1023000008130895809193028093720110929302B2
:102310000E94F60A0C94BA190C9482110E94E523CB
:1023200080919703882329F00E94F22381110C9455
:10233000BD1208950E940624809172018093930239
:1023400008950C949A1108950C94A311CF9384B717
:10235000877F84BF0FB6F894A8958091600088614C
:1023600080936000109260000FBE90E080E80FB68E
:10237000F89480936100909361000FBE8DEB9FE015
:102380000E94B8238AE091E00E942D178FE495E027
:102390000E94BD050E94DF0A0E94E1170E94C2153B
:1023A0000E94241678940E94E31780919903843048
:1023B00029F00E9412170E94A311F7CF8DE395E038
:1023C0000E94BD050E94A4118BE295E00E94BD050C
:1023D000C3E080919903853019F40E948E11F9CFE2
:1023E0000E94E7172091E4003091E50080916F0191
:1023F000909170012817390709F466C08091E400B4
:102400009091E5009093700180936F010E94AA0F54
:10241000882309F459C080919903843009F054C08D
:102420008091E9008F702091EC00922F917020FD37
:1024300090E8892BC093E9009091EB0090FF41C098
:102440009091EE0097FF3DC0909108012091070107
:10245000291709F12091E80025FF1DC0E091050131
:10246000F0910601E90FF11D30819F5F2091090174
:102470009223909308013093F1009091E80095FD2C
:10248000E3CF9091E80090FFDFCF9091E8009E7736
:102490009093E800D9CF2091F2003091F300232BE4
:1024A00081F09091E80090FF0CC09091E80095FFBA
:1024B00003C01092F100F9CF9091E8009E779093BD
:1024C000E8008F708093E9000E94121782CF292FB5
:1024D000332723303105C9F060F42130310581F014
:1024E0002230310509F041C084E790E02FEA35E061
:1024F00040C021323105E1F02232310531F135C0E1
:1025000082E190E023E236E034C0992781309105E2
:1025100049F028F0029749F5E5E6F5E005C0EBEA59
:10252000F5E002C0EBE9F5E0849190E09F0121C065
:1025300064307105D0F4660F771FFB01E05CFE4F3D
:102540002081318189E090E014C06430710568F425
:10255000FB01EE0FFF1FE85CFE4F20813181FB0184
:10256000EC5CFE4F808190E004C080E090E020E0D1
:1025700030E0FA0131832083089584E189BD86E14A
:1025800089BD09B400FEFDCF8091D8008F7D809376
:10259000D8008091E00082608093E0008091E000AC
:1025A00081FDFCCF0895982F973068F59093E9004E
:1025B000981739F07091EC002091ED005091F000E7
:1025C00003C0242F762F50E021FD02C09F5FECCF87
:1025D0003091EB003E7F3093EB003091ED003D7F7A
:1025E0003093ED003091EB0031603093EB0070934D
:1025F000EC002093ED005093F0002091EE0027FDB9
:10260000E5CF80E008958F708093E90081E0089520
:1026100080919A0387FF11C08091E80082FD05C078
:10262000809199038111F8CF11C08091E8008B77D8
:102630000BC080919903882349F08091E80080FFC6
:10264000F8CF8091E8008E778093E800089520917C
:10265000E4003091E50095E64091EC00842F817014
:1026600040FF23C08091E80080FD1DC08091990348
:10267000882399F0853099F08091EB0085FD11C099
:102680004091E4005091E5002417350729F391505B
:1026900011F09A01E1CF84E0089582E0089583E08B
:1026A000089581E0089580E008954091E80042FF98
:1026B000DDCF0895CF92DF92EF92FF920F931F9399
:1026C000CF93DF93EC018B017A010E9427138111D4
:1026D00035C0E114F10439F0F70180819181081BC4
:1026E000190BC80FD91FC12CD12C0115110529F1C7
:1026F0008091E80085FD18C08091E8008E77809376
:10270000E8000E941217E114F10449F0F7018081FA
:102710009181C80ED91ED182C08285E00FC00E946F
:102720002713882311F30AC089918093F100015087
:102730001109FFEFCF1ADF0AD8CF80E0DF91CF91E8
:102740001F910F91FF90EF90DF90CF90089520910F
:10275000A0033091A1032617370748F061157105D2
:1027600039F42091E8002E772093E80001C0B901E8
:10277000FC0120E06115710569F1809199038823BE
:10278000E1F18530E1F18091E80083FD3AC080916C
:10279000E80082FD2CC08091E80080FFEBCF8091A3
:1027A000F2009091F3006115710551F088309105A8
:1027B00038F421912093F100615071090196F3CF13
:1027C00021E0089709F020E08091E8008E7780935F
:1027D000E800D0CF2111D1CF0AC08091990388237E
:1027E00061F0853061F08091E80083FD0AC080913E
:1027F000E80082FFF2CF80E0089582E0089583E050
:10280000089581E008952091A0033091A103261737
:10281000370748F06115710539F42091E8002E77EB
:102820002093E80001C0B901FC0120E061157105A9
:1028300081F180919903882309F43EC0853009F421
:102840003DC08091E80083FD3BC08091E80082FD9F
:102850002DC08091E80080FFE9CF8091F200909137
:10286000F3006115710559F08830910540F4249109
:102870002093F1003196615071090196F2CF21E069
:10288000089709F020E08091E8008E778093E800B7
:10289000CDCF2111CECF0AC080919903882361F05A
:1028A000853061F08091E80083FD0AC08091E800E6
:1028B00082FFF2CF80E0089582E0089583E00895DA
:1028C00081E008951F93CF93DF93CDB7DEB7AA972A
:1028D0000FB6F894DEBF0FBECDBFEAE9F3E08091FA
:1028E000F100819323E0E23AF207C9F70E94D01089
:1028F0008091E80083FF2EC180919A0390919B0301
:10290000492F50E04A30510508F024C1FA01EB5C30
:10291000FE4F0C945C26803821F0823809F01AC1F1
:1029200008C08091960390919703992389F0826063
:102930000FC080919E038F70873008F00BC1809389
:10294000E9008091EB0085FB882780F91092E9006F
:102950009091E800977F9093E8008093F1001092A7
:10296000F100D1C0282F2D7F09F0F4C0882319F081
:10297000823061F0EFC080919C03813009F0EAC0A1
:10298000933009F080E0809397032EC080919C03E0
:1029900081112AC080919E038F702FEF280F26305F
:1029A00008F0D8C08093E9002091EB0020FF1CC004
:1029B000933021F48091EB00806214C09091EB0081
:1029C00090619093EB0021E030E0A90102C0440F38
:1029D000551F8A95E2F74093EA001092EA00809131
:1029E000EB0088608093EB001092E9008091E80092
:1029F000877F8093E8000E940813ACC08111AAC0B1
:102A000010919C031F778091E3008078812B809345
:102A1000E3008091E800877F8093E8000E9408131C
:102A20008091E80080FFFCCF8091E3008068809374
:102A3000E300111102C082E001C083E0809399039A
:102A400089C08058823008F085C080919C039091A5
:102A50009D038C3D53E0950779F583E08A838AE2F4
:102A600089834FB7F894DE01139620E03EE051E2EF
:102A7000E32FF0E050935700E49120FF03C0E2956C
:102A8000EF703F5FEF708E2F90E0EA3010F0C79646
:102A900001C0C0968D939D932F5F243149F74FBF9E
:102AA0008091E800877F8093E8006AE270E0CE01C1
:102AB00001960E94A71316C060919E0370919F0318
:102AC000AE014F5F5F4F0E946712BC01892B09F472
:102AD00041C09091E800977F9093E80089819A81A6
:102AE0000E9403148091E8008B778093E80032C045
:102AF000803881F58091E800877F8093E80080919D
:102B000095038093F1008091E8008E7772CF811158
:102B100021C080919C0390919D0399270297D4F442
:102B20008091E800877F8093E80080919C038093E8
:102B300095030E94081380919503811106C080912E
:102B4000E30087FD02C081E001C084E08093990327
:102B50000E94BC108091E80083FF0AC08091E800C9
:102B6000877F8093E8008091EB0080628093EB0088
:102B7000AA960FB6F894DEBF0FBECDBFDF91CF91FE
:102B80001F9108950E9433160E943B16E0EEF0E07C
:102B9000808181608083E8EDF0E080818F778083A1
:102BA00019BCA7EDB0E08C918E7F8C9380818F7ED5
:102BB00080831092980308950F931F93CF93DF9310
:102BC0000E9433160E943B16C8EDD0E088818F77B3
:102BD000888388818068888388818F7D8883E7EDFA
:102BE000F0E080818068808319BC10929903109274
:102BF0009503109297031092960300EE10E0F801EF
:102C000080818B7F808388818160888342E060E05F
:102C100080E00E94D312E1EEF0E080818E7F80831D
:102C2000E2EEF0E080818160808380818860808333
:102C3000F80180818E7F8083888180618883DF9125
:102C4000CF911F910F910895E8EDF0E080818F7E84
:102C50008083E7EDF0E080818160808381E0809374
:102C600098030C94DC15E8EDF0E080818C7F808384
:102C70001092E20008951092DA001092E100089597
:102C80001F920F920FB60F9211240BB60F922F9333
:102C90003F934F935F936F937F938F939F93AF93E4
:102CA000BF93EF93FF938091E10082FF0BC080916F
:102CB000E20082FF07C08091E1008B7F8093E100FA
:102CC0000E9411178091DA0080FF1FC08091D80008
:102CD00080FF1BC08091DA008E7F8093DA008091A4
:102CE000D90080FF0DC084E189BD86E189BD09B4AA
:102CF00000FEFDCF81E0809399030E94AF1005C0D4
:102D000019BC109299030E94B8108091E10080FFD5
:102D100019C08091E20080FF15C08091E2008E7F93
:102D20008093E2008091E20080618093E2008091D4
:102D3000D80080628093D80019BC85E08093990305
:102D40000E948C118091E10084FF30C08091E200EC
:102D500084FF2CC084E189BD86E189BD09B400FEF1
:102D6000FDCF8091D8008F7D8093D8008091E100C5
:102D70008F7E8093E1008091E2008F7E8093E2005D
:102D80008091E20081608093E20080919503882326
:102D900011F084E007C08091E30087FD02C081E06C
:102DA00001C083E0809399030E94A1118091E1000A
:102DB00083FF24C08091E20083FF20C08091E10066
:102DC000877F8093E10082E08093990310929503BE
:102DD0008091E1008E7F8093E1008091E2008E7F00
:102DE0008093E2008091E20080618093E20042E003
:102DF00060E080E00E94D3120E94BB10FF91EF912F
:102E0000BF91AF919F918F917F916F915F914F9102
:102E10003F912F910F900BBE0F900FBE0F901F9000
:102E200018950895CF93809199038823A1F0C091BC
:102E3000E900CF709091EC00892F817090FD80E8BF
:102E4000C82B1092E9008091E80083FD0E94621473
:102E5000CF70C093E900CF91089590939A02809328
:102E600099020895E0919902F0919A02309721F029
:102E70000190F081E02D099480E00895EF92FF9297
:102E80000F931F93CF93DF93E0919902F0919A02F1
:102E90003097B1F18C010280F381E02D099580918A
:102EA0008F0382FF2DC080FF04C08CE297E00E9458
:102EB000BD05E80110E286E2E82E87E0F82E809159
:102EC0008F0380FF0BC088811F928F93FF92EF9238
:102ED0000E9456060F900F900F900F901150219660
:102EE0001111EDCF80918F0380FF0AC084E297E03B
:102EF000DF91CF911F910F91FF90EF900C94BD0542
:102F0000DF91CF911F910F91FF90EF900895CF9394
:102F1000DF9320919702309198022817390709F121
:102F20009093980280939702E0919902F0919A020F
:102F30003097B9F0EC010680F781E02D099580917A
:102F40008F0382FF0EC080FF0CC0DF93CF9386E11A
:102F500097E09F938F930E9456060F900F900F90CB
:102F60000F90DF91CF910895CF93DF932091950239
:102F7000309196022817390709F1909396028093B1
:102F80009502E0919902F0919A023097B9F0EC0124
:102F90000084F185E02D099580918F0382FF0EC09A
:102FA00080FF0CC0DF93CF9386E097E09F938F93D1
:102FB0000E9456060F900F900F900F90DF91CF91C7
:102FC00008950C948A180E942F240C94E30ABF924F
:102FD000CF92DF92EF92FF920F931F93CF93DF93E5
:102FE00000D000D01F92CDB7DEB70E940D0B0CE9C8
:102FF00012E0F12C8F2D0E94F00AB82EF801C0804B
:10300000C82639F4F3940F5F1F4FF0E1FF12F2CF9F
:1030100030C080918F0381FD0E948B18D12CEE244B
:10302000E3948C2D8E21F9F0D982FA8291E08B2DD8
:103030008E2109F490E09B830E9438248160782FD0
:103040009D838C8349815A816B818D810E94C11837
:1030500049815A816B817C818D810E94D023F80146
:1030600080818E258083D394EE0CF8E0DF12D9CFD7
:10307000C9CF8FEF89838A831B820E9438248160A5
:10308000782F9D838C8349815A816B818D810E9429
:10309000C1180E94CF230E94321790919B0289177A
:1030A00041F10E94321780939B0290918F0392FF0F
:1030B0000EC090FF0CC01F928F9387E397E09F9301
:1030C0008F930E9456060F900F900F900F90809153
:1030D0009B020F900F900F900F900F90DF91CF9168
:1030E0001F910F91FF90EF90DF90CF90BF900C94C5
:1030F000E1230F900F900F900F900F90DF91CF91E1
:103100001F910F91FF90EF90DF90CF90BF900895A7
:103110000C94FE0A0895EF92FF920F931F93CF93A2
:10312000DF938DE497E00E94BD05C0E0D0E083E32B
:10313000E82E81E0F82E02E417E08C2F0E94F00ABE
:103140000E94BD23FF92EF921F928F93DF93CF9344
:103150001F930F930E94560621968DB79EB708962F
:103160000FB6F8949EBF0FBE8DBFC031D10529F7B1
:10317000DF91CF911F910F91FF90EF9008950895E7
:103180000895CF93DF93CDB7DEB72B970FB6F894A2
:10319000DEBF0FBECDBF942F4F83252F5887698781
:1031A0007A878B874A855B85452B31F02F3F31F439
:1031B00081E09F3F19F403C081E001C080E080FD01
:1031C00007C04F81588569857A858B850E94D023F9
:1031D000DE01119686E0FD0111928A95E9F785E0FE
:1031E000FE01379601900D928A95E1F749815A8147
:1031F0006B817C818D819E810E94CB1F2B960FB6A7
:10320000F894DEBF0FBECDBFDF91CF910895CF936D
:10321000882309F465C0C82F8CEF8C0F813A20F009
:1032200080E58C0F8E3248F48C2F0E940926811184
:1032300057C08C2F0E94B3220CC080E28C0F8830C4
:1032400058F4C77081E001C0880FCA95EAF70E9460
:103250005823CF910C9492238BE58C0F833078F414
:10326000C53A29F0C63A31F083E890E005C081E81C
:1032700090E002C082E890E0CF910C94871788E537
:103280008C0F873168F5C83A89F0C93A91F0CA3A8B
:1032900099F0CB3AA1F0CC3AA9F0CD3AB1F0CE3AC0
:1032A000B9F0CF3AC1F080E090E017C082EE90E034
:1032B00014C089EE90E011C08AEE90E00EC085EB5C
:1032C00090E00BC086EB90E008C083EB90E005C077
:1032D00084EB90E002C087EB90E0CF910C94B417A0
:1032E000CF910895882349F19CEF980F913A20F0EF
:1032F00090E5980F9E3218F40E9403230DC090E2CF
:10330000980F983058F4877091E001C0990F8A9512
:10331000EAF7892F0E945E230C9492239BE5980F75
:10332000933020F480E090E00C948717885A87311E
:1033300020F480E090E00C94B4170895882321F0E5
:103340000E9458230C9492230895882321F00E9410
:103350005E230C94922308950E9478230E944723B1
:103360000E94922380E090E00E94871780E090E026
:103370000C94B4170E9468230C94AC19CF92DF927E
:10338000EF92FF920F931F93CF93DF9300D000D063
:103390001F92CDB7DEB76C010E94E323811101C3F8
:1033A00085E0F601DE01119601900D928A95E1F714
:1033B000F60140815181238134812115310531F09D
:1033C0005F3F31F481E04F3F19F403C081E001C059
:1033D00080E080FDE6C2F601F280E580E2948FE0B5
:1033E000E82249835A83FB82722F3D832C836F2D01
:1033F0008D810E942F228C010E942E220E941E216C
:10340000E12FE295EF708E2F90E0FC01E15CFE4F22
:103410000C945C26812F807F1F70882311F01295F9
:10342000107FFF20B9F0112329F0812F0E946B2318
:103430000E949223802F0F900F900F900F900F906B
:10344000DF91CF911F910F91FF90EF90DF90CF9080
:103450000C940719802F0E947219112309F4A1C23C
:10346000812F0E9471230F900F900F900F900F905B
:10347000DF91CF911F910F91FF90EF90DF90CF9050
:103480000C949223812F807F1F70803211F012954F
:10349000107F002319F0013009F12BC0FF20A9F0A3
:1034A000EE2059F1F1E0812FEF1228C00F900F901C
:1034B0000F900F900F90DF91CF911F910F91FF9080
:1034C000EF90DF90CF900C947B23EE2021F021E051
:1034D000E21609F466C20E947E234DC0FF20E9F087
:1034E00085E08E1508F45DC20E945523812329F0E2
:1034F00042C0FF20F1F1E11015C0812F0F900F9015
:103500000F900F900F90DF91CF911F910F91FF902F
:10351000EF90DF90CF900C949E1994E09E1508F4E4
:1035200040C229C0F601858180FF13C08F7085835A
:10353000E4CF003F09F472C108F03EC180E4800F7F
:10354000803208F442C1FF2009F4D3C1EE2009F40F
:1035500083C1802F0E940719093309F0C3C1FFEF0F
:1035600021EE84E0F15020408040E1F700C00000EF
:1035700018C2E110C0C1812F42C1812F8695869566
:10358000837019F08130B9F00CC2FF2019F0C80126
:10359000937002C080E090E00F900F900F900F901A
:1035A0000F90DF91CF911F910F91FF90EF90DF90DF
:1035B000CF900C948717FF2019F0C801937002C0B8
:1035C00080E090E00F900F900F900F900F90DF91A0
:1035D000CF911F910F91FF90EF90DF90CF900C94BF
:1035E000B417812F837009F070C0F110DAC1202F59
:1035F000229526952770220F220F602F6F70862F3D
:1036000090E0A0E0B0E06C017D01022E04C0CC0C83
:10361000DD1CEE1CFF1C0A94D2F704FF12C08FE0E1
:1036200090E0A0E0B0E004C0880F991FAA1FBB1F64
:103630002A95D2F7BC01CD01609570958095909543
:1036400003C060E070E0CB01169516951370123040
:10365000B1F040F56C297D298E299F29113031F177
:103660000F900F900F900F900F90DF91CF911F91BF
:103670000F91FF90EF90DF90CF900C9443216C2935
:103680007D298E299F290F900F900F900F900F90FA
:10369000DF91CF911F910F91FF90EF90DF90CF902E
:1036A0000C945D210E944321C701B6010F900F9039
:1036B0000F900F900F90DF91CF911F910F91FF907E
:1036C000EF90DF90CF900C942921FF2019F0812FEB
:1036D000817001C08695882309F463C1202F22954B
:1036E00026952770220F220F602F6F70862F90E093
:1036F000A0E0B0E06C017D01022E04C0CC0CDD1C0A
:10370000EE1CFF1C0A94D2F704FF12C08FE090E079
:10371000A0E0B0E004C0880F991FAA1FBB1F2A9524
:10372000D2F7BC01CD01609570958095909503C04E
:1037300060E070E0CB011695169513701230B1F071
:1037400040F56C297D298E299F29113031F10F9088
:103750000F900F900F900F90DF91CF911F910F91CD
:10376000FF90EF90DF90CF900C940A226C297D2976
:103770008E299F290F900F900F900F900F90DF913F
:10378000CF911F910F91FF90EF90DF90CF900C940D
:103790001C220E940A22C701B6010F900F900F90C1
:1037A0000F900F90DF91CF911F910F91FF90EF90AD
:1037B000DF90CF900C94F821023F09F45EC008F42A
:1037C00049C0033F09F46CC0BECE902F9071E92E22
:1037D000812F8F71FF2051F00E949121802FEE20C8
:1037E00019F08295807F8ACE8F7088CE0E94B22198
:1037F000802FEE2019F08295807F01C08F700F908E
:103800000F900F900F900F90DF91CF911F910F911C
:10381000FF90EF90DF90CF900C94A519FF20A9F0B6
:10382000E4E0EE1508F4BDC0812F8F710F900F906A
:103830000F900F900F90DF91CF911F910F91FF90FC
:10384000EF90DF90CF900C94D721F5E0FE1508F4AF
:10385000A8C0EACFFF2099F0812F8F710F900F90B1
:103860000F900F900F90DF91CF911F910F91FF90CC
:10387000EF90DF90CF900C949121FF2069F3812F7E
:103880008F710F900F900F900F900F90DF91CF914D
:103890001F910F91FF90EF90DF90CF900C94B22189
:1038A000FF2089F0812F8F710F900F900F900F9054
:1038B0000F90DF91CF911F910F91FF90EF90DF90CC
:1038C000CF900C947C210F900F900F900F900F9041
:1038D000DF91CF911F910F91FF90EF90DF90CF90EC
:1038E0000C947721033509F43ACE073409F059C016
:1038F00036CEEE2021F2802F0F900F900F900F9078
:103900000F90DF91CF911F910F91FF90EF90DF907B
:10391000CF900C947219412F4F70602FC6010E94F6
:10392000A4240F900F900F900F900F90DF91CF91E4
:103930001F910F91FF90EF90DF90CF900C94792022
:1039400001112FC0FF2069F10E94BA192FEF80E703
:1039500092E0215080409040E1F700C000000F90BD
:103960000F900F900F900F90DF91CF911F910F91BB
:10397000FF90EF90DF90CF900C948524412F4F70F3
:10398000602FC6010F900F900F900F900F90DF9156
:10399000CF911F910F91FF90EF90DF90CF900C94FB
:1039A000A7240F900F900F900F900F90DF91CF9161
:1039B0001F910F91FF90EF90DF90CF9008951F938C
:1039C000CF93DF9300D000D01F92CDB7DEB7942FF6
:1039D0004983252F5A836B837C838D834C815D8142
:1039E000452B31F02F3F31F481E09F3F19F403C0A4
:1039F00081E001C080E0182F117080FD31C0498145
:103A00005A816B817C818D810E942F22292F2295E2
:103A10002F702C3030F42A30A0F42250223030F0B5
:103A200022C02C30C9F02F30B9F01DC0853A28F4DF
:103A30008430C0F4823028F415C090E2980F98309A
:103A400088F0883E30F4803E68F48450813A58F41F
:103A500009C0803F41F406C093FB112710F903C051
:103A600010E001C011E0812F0F900F900F900F9088
:103A70000F90DF91CF911F910895CF93DF9300D0E6
:103A800000D01F92CDB7DEB70F900F900F900F9020
:103A90000F90DF91CF910895CF93DF9300D000D0A6
:103AA00000D0CDB7DEB726960FB6F894DEBF0FBEB6
:103AB000CDBFDF91CF9108951F93CF93DF93C09136
:103AC000AC0216E08091AD02C81799F0D0E01C9FBF
:103AD000F0011D9FF00D1124E255FD4F40815181F1
:103AE00062817381848195810E944C1D2196C770EB
:103AF000E9CFDF91CF911F9108954091DE0250915F
:103B0000DF026091E0027091E1028091E202909107
:103B1000E3020C944C1D0F931F93CF93DF9380917E
:103B2000E30282958F7009F05DC08091E0028823E6
:103B300009F458C08091AC021091AD026091DE0290
:103B40007091DF02C091E102D091E20291E06F3FFB
:103B500009F090E0292F06E0811709F443C020976F
:103B600021F07F3F21F030E003C031E001C0322F6F
:103B700090E030FD34C0089FF001099FF00D112442
:103B8000DF01A255BD4F11963C911197371327C005
:103B90003C91361324C012963C91129731111FC0EC
:103BA00013964D915C9114974C1B5D0B483C51054D
:103BB000B0F48091E3028F7080618093E302ED5452
:103BC000FD4F80818F70806180838EED92E00E9436
:103BD000BE19DF91CF911F910F910C945C1D01963E
:103BE0008770BACFDF91CF911F910F9108959F9267
:103BF000AF92BF92CF92DF92EF92FF920F931F93FB
:103C0000CF93DF93CDB7DEB761970FB6F894DEBFE1
:103C10000FBECDBF8C0185E0F801DE011D9601903D
:103C20000D928A95E1F7F80140815181F280C380BD
:103C3000D4809091DE026091DF022091E102309108
:103C4000E2022115310531F06F3F31F481E09F3FF1
:103C500019F403C081E001C080E0F82FF1709F2EBD
:103C600080FD52C18EEDA82E82E0B82EE090E002D9
:103C7000F601E21BF30BEE2009F4E8C08091E302A9
:103C8000E83CF10508F0A4C0282F207F09F053C0BC
:103C9000561313C0491311C0EF2CF1100EC08F70D2
:103CA00080618093E3020E947D1DC5010E94BE19C0
:103CB0008091E302F80185835BC1C114D10431F026
:103CC0005F3F31F481E04F3F19F403C081E001C050
:103CD00080E080FD03C081E08F2502C080E090E09D
:103CE000F82FF170EF2E80FF1CC08091AC02209164
:103CF000AD0236E0821709F418C190E0389FF00158
:103D0000399FF00D1124E255FD4F6181561306C015
:103D10006081461303C06281F61203C0019687706A
:103D2000E9CFEF2CFF2009F423C18091E3028160E9
:103D30008093E30262C0561306C0491304C0F11019
:103D400002C0F801A7C04D875E87FF867C2DD98A07
:103D5000C88A6F2D89890E94DF1C882399F1FF2072
:103D600089F12091E302822F82958F7090E0029773
:103D700074F08091DE029091DF0298878F8319861C
:103D8000DB86CA862C87CE0107960E94BE1986E084
:103D9000F801AEEDB2E001900D928A95E1F70E9434
:103DA0008B1D0E947D1D11C0561749F14D875E87FE
:103DB000FF867C2DD98AC88A6F2D89890E94DF1CD5
:103DC00081112CC0C8010E94BE19EE24E394D0C01A
:103DD000282F207F49F77C2DD98AC88A6F2D8989A1
:103DE0000E943D1D8EED92E00E94BE1986E0F50115
:103DF00011928A95E9F70E947D1DE12CB9C0491303
:103E0000D5CFF110D3CFF8018583C8010E94BE1928
:103E100086E0F50111928A95E9F7AAC0FF2091F298
:103E20002091E302822F82958F7090E002970CF42C
:103E3000AECF8091DE029091DF029A8389831B824C
:103E4000DD82CC822E83CE0101969FCFE83CF10526
:103E500008F04BC0EF2CFF2009F4B4CF561330C04C
:103E600049132EC02091E30220FD21C0822F8295AC
:103E70008F70482F50E041155105C9F0F801258396
:103E80004F30510541F08F5F982F9295907F822F90
:103E90008F70892B8583C8010E94BE1986E0F801C6
:103EA000AEEDB2E001900D928A95E1F72AC086E06E
:103EB000F801AEEDB2E001900D928A95E1F758C09D
:103EC0004D875E87FF867C2DD98AC88A6F2D8989A8
:103ED0000E94DF1C81115BCF8091E302816080939F
:103EE000E302C8010E94BE1943C07C2DD98AC88A4A
:103EF0006F2D89890E943D1D86E0F50111928A95FA
:103F0000E9F70E947D1D34C0FF2009F45BCF4D8787
:103F10005E87FF867C2DD98AC88A6F2D89890E9489
:103F2000DF1C882309F44ECF32CF7C2DD98AC88A72
:103F30006F2D89890E942F22292F22952F702230E0
:103F400028F49F7039F0811105C00BC0243028F48B
:103F50009F7049F4805E883020F0C8010E94BE192D
:103F60009E2CE92C05C0F8019581907F99F7F9CF37
:103F70008E2D61960FB6F894DEBF0FBECDBFDF91D8
:103F8000CF911F910F91FF90EF90DF90CF90BF9056
:103F9000AF909F9008951F93CF93DF93CDB7DEB777
:103FA0002C970FB6F894DEBF0FBECDBF4F83588756
:103FB00069877A878B879C87CE0107960E94F71DB9
:103FC0008823D1F09F8188852A853B85232B31F07A
:103FD0008F3F31F481E09F3F19F403C081E001C0BD
:103FE00080E080FD47C04F81588569857A858B8543
:103FF0009C850E944C1D3EC086E0FE013796DE0186
:10400000119601900D928A95E1F7FF81E8856A8506
:104010007B856115710531F0EF3F31F481E0FF3FA1
:1040200019F403C081E001C080E080FD23C020912D
:10403000AD0230E0C9010196877099274091AC022A
:1040400050E084179507F1F1F983EA837D836C834F
:1040500096E0929FD001939FB00D1124A255BD4FC1
:10406000FE01319601900D929A95E1F78093AD0291
:104070000E945C1D16E08091AC029091AD02891700
:1040800071F1189FC001112482559D4F0E94F71DA8
:10409000882329F1E091AC021E9FF0011124E25522
:1040A000FD4F4081518162817381848195810E949D
:1040B0004C1D8091AC0290E0019687709927809307
:1040C000AC02D9CF0E94BA191092AD021092AC0284
:1040D000EEEDF2E086E0DF011D928A95E9F72C967D
:1040E0000FB6F894DEBF0FBECDBFDF91CF911F9109
:1040F0000895DF92EF92FF920F931F93CF93DF9378
:10410000FC01892B09F488C0E12CF12CDD24D39427
:10411000EF0121968491853709F460C058F4843703
:1041200008F04EC0843008F068C08130D1F0823091
:1041300071F172C0883709F45BC050F4863709F416
:1041400053C0873709F068C08E2D0E94652352C086
:104150009CE7980F903708F05FC08F770E94721924
:104160004EC08F010E5F1F4FFE01849190E2980FA9
:10417000983050F48770FD2D01C0FF0F8A95EAF743
:104180008F2F0E946B2315C00E94071914C08F0146
:104190000E5F1F4FFE01849190E2980F983068F4F3
:1041A0008770FD2D01C0FF0F8A95EAF78F2F0E94BF
:1041B00071230E949223E80122C00E947219FBCF52
:1041C000CF010296FE01C491CC2361F0EFE9FFE03C
:1041D0003197F1F700C00000C150F6CFCF01029631
:1041E000FE01F490EC010BC00E945523E82E07C09D
:1041F0000E9468230E94922302C00E9407198F2DFB
:10420000882341F0EFE9FFE03197F1F700C00000AB
:104210008150F6CFFE017CCFDF91CF911F910F919E
:10422000FF90EF90DF9008956093640370936503AF
:1042300080936603909367030C94E0230895609342
:1042400068037093690380936A0390936B030C94E3
:10425000DF230F931F93009168031091690320914E
:104260006A0330916B03602B712B822B932B60932D
:1042700068037093690380936A0390936B031F91A3
:104280000F910C94DF230F931F93009168031091FB
:10429000690320916A0330916B03602371238223A9
:1042A0009323609368037093690380936A039093E8
:1042B0006B031F910F910C94DF230F931F930091B9
:1042C00068031091690320916A0330916B036027A2
:1042D0007127822793276093680370936903809303
:1042E0006A0390936B031F910F910C94DF2360E09E
:1042F00070E0CB010C9414210F931F9341E050E028
:1043000060E070E08A019B0104C0000F111F221FB2
:10431000331F8A95D2F7C901B8011F910F910C94F0
:1043200014210F931F9341E050E060E070E004C05F
:10433000440F551F661F771F8A95D2F7809164033B
:1043400090916503A0916603B09167038A019B0178
:10435000082B192B2A2B3B2BC901B8011F910F9158
:104360000C9414210F931F9341E050E060E070E043
:1043700004C0440F551F661F771F8A95D2F74095DA
:104380005095609570958091640390916503A0911C
:104390006603B09167038A019B01082319232A232E
:1043A0003B23C901B8011F910F910C9414210F9365
:1043B0001F9341E050E060E070E004C0440F551FDF
:1043C000661F771F8A95D2F78091640390916503E9
:1043D000A0916603B09167038A019B010827192702
:1043E0002A273B27C901B8011F910F910C94142172
:1043F0000F931F930091640310916503209166034E
:1044000030916703602B712B822B932B1F910F919F
:104410000C9414210F931F93009164031091650372
:1044200020916603309167036023712382239323D5
:104430001F910F910C9414210F931F93009164030B
:1044400010916503209166033091670360277127FF
:10445000822793271F910F910C94142108958F9216
:104460009F92AF92BF92DF92EF92FF920F931F93B2
:10447000CF93DF9300D000D01F92CDB7DEB76B8310
:104480007C838D838A018C819D81892B31F01F3F34
:1044900031F481E04F3F19F403C081E001C080E0B6
:1044A00080FF03C080E090E04DC08B818823D1F174
:1044B0008090640390906503A0906603B0906703BA
:1044C0008091680390916903A0916A03B0916B0396
:1044D000882A992AAA2ABB2A8FE1E82EF12CD50135
:1044E000C4010E2C04C0B695A795979587950A949C
:1044F000D2F780FD06C081E0E81AF10880F7D12CE0
:1045000007C0DE2CB8018E2D0E945F06019799F33B
:1045100088E0189FF0011124EC51FD4FE00FF11DD0
:10452000D08209C088E0189FF0011124EC51FD4FA2
:10453000E00FF11DD08009831A8369817A818D2D66
:104540000E945F060F900F900F900F900F90DF91D9
:10455000CF911F910F91FF90EF90DF90BF90AF90A0
:104560009F908F90089590911401992379F19091E3
:104570001501992359F1982F9695969596959F3107
:10458000A1F0E0911601F0911701E90FF11D87707C
:1045900021E030E0A90102C0440F551F8A95E2F7DF
:1045A000CA019181892B8183089590918F0390FF97
:1045B00029C01F928F9388E797E09F938F930E9463
:1045C00056060F900F900F900F90089520911601AE
:1045D00030911701F90132969FEF40E05191851714
:1045E00089F09F3F19F4511101C0942F4F5F4E3154
:1045F000A9F79F3F39F0F901E90FF11D97FDFA95F1
:1046000082830895089590911401992381F19091E6
:104610001501992361F1982F9695969596959F315E
:10462000A9F0E0911601F0911701E90FF11D8770D3
:1046300021E030E0A90102C0440F551F8A95E2F73E
:10464000CA018095918189238183089590918F0378
:1046500090FF1CC01F928F938AE597E09F938F93E2
:104660000E9456060F900F900F900F900895E091C2
:104670001601F09117019F01225E3F4F928189132D
:1046800001C012823196E217F307C1F7089581E065
:1046900090E0E0911601F0911701E80FF91F1082E8
:1046A000019680329105A9F7089580918E030895AF
:1046B00090918E03892B80938E030895809590911D
:1046C0008E03892380938E03089580938E0308952B
:1046D00010928E03089590918D03892B80938D0302
:1046E0000895809590918D03892380938D0308957B
:1046F00010928D03089580936C03089510926C03BB
:1047000008958091160190911701FC0131969C014A
:10471000205E3F4F80E0919191118F5FE217F30788
:10472000D1F70895E0911601F091170180918E0361
:104730008083E0911601F0911701908180918D03A3
:10474000892B808380916C03882361F0E0911601AE
:10475000F09117019081892B80830E948123811120
:1047600010926C0380911601909117010C943E17E2
:1047700090934F0180934E0108958295982F9373E3
:1047800044E0949F900111248C7C86958695282B7B
:10479000822F8575880F2A7A2695822B0895089591
:1047A000CF93DF9300D000D01F92CDB7DEB70F902C
:1047B0000F900F900F900F90DF91CF910895089573
:1047C00008950C94881880E0089583B7817F8C60E9
:1047D00083BF83B7816083BF7894889583B78E7FCA
:1047E00083BF0895CF930E94BF180E940D0B0E94B3
:1047F000C018C0E08C2F0E94F00A811104C0CF5F66
:10480000C031C1F701C081E0CF9108950E94F60A3E
:104810000C94BA191F920F920FB60F9211248F9316
:104820009F93AF93BF938091900390919103A09138
:104830009203B09193034196A11DB11D8093900303
:1048400090939103A0939203B0939303BF91AF9180
:104850009F918F910F900FBE0F901F90189582E03F
:1048600084BD93E095BD9AEF97BD80936E00089547
:104870002FB7F8948091900390919103A0919203A7
:10488000B09193032FBF08952FB7F89460919003D0
:104890007091910380919203909193032FBF08959B
:1048A0009C014FB7F8948091900390919103A0914F
:1048B0009203B09193034FBF821B930B089578949A
:1048C0001F920F920FB60F9211248F939F93AF9365
:1048D000BF938091900390919103A0919203B09126
:1048E00093030196A11DB11D8093900390939103B2
:1048F000A0939203B0939303BF91AF919F918F9137
:104900000F900FBE0F901F9018950E94C215F8943B
:1049100087E797E7909301088093000887E090EB82
:10492000DC018093A2039093A303A093A403B0930C
:10493000A5039CE088E10FB6F894A89580936000E9
:104940000FBE90936000FFCF80E090E0089508953F
:10495000CF93C82F1F928F938CE997E09F938F93EB
:104960000E94560681E090E0A0E0B0E0BC01CD01DD
:1049700004C0660F771F881F991FCA95D2F70E943F
:104980001F210F900F900F900F90CF910C94BA1998
:10499000CF938732A8F58E3108F02BC1803109F40E
:1049A0009FC0F8F4873009F464C0A8F4863009F099
:1049B00024C180918F03817F8E7F80938F0381EA52
:1049C00097E00E94BD0584E89AE00E94BD0581E061
:1049D000809394034CC08B30F1F18E3009F46CC09D
:1049E0000CC1863109F4B0C020F4813109F4EDC066
:1049F00004C1893109F491C08B3109F449C0FDC06B
:104A0000883349F150F4893209F4F1C0853309F44F
:104A1000EEC0873209F0F1C0EAC0833409F4E7C080
:104A200028F48A3308F4E9C08953E4C0883409F0D3
:104A3000E4C00E94BA1983E79AE00E94BD052FEFF7
:104A400083ED90E3215080409040E1F700C00000EA
:104A50000E9485240CC08CEB97E05CC08AE59AE04C
:104A60000E94BD0580918F03816080938F03C1E018
:104A7000C9C080918F03C82FC17080FFEFCF86E639
:104A80009AE00E94BD0580918F03817F8E7F3DC09B
:104A900090918F0391FBCC27C0F981E0C827892F23
:104AA000C0FB81F980938F03CC2319F08DE49AE049
:104AB00027C08FE39AE02EC090918F0392FBCC2702
:104AC000C0F981E0C827892FC0FB82F980938F034A
:104AD000CC2319F080E39AE013C080E29AE01AC078
:104AE00090918F0393FBCC27C0F981E0C827892FD1
:104AF000C0FB83F980938F03CC2351F084E19AE0CB
:104B00000E94BD0580918F03816080938F037AC0DE
:104B100087E09AE00E94BD05AACF88EF99E00E9445
:104B2000BD0582ED99E00E94BD058AE899E00E94EA
:104B3000BD0582E699E00E94BD0586E199E00E94EC
:104B4000BD058AEE98E0E6CF8CED98E00E94BD05A9
:104B50000E9432171F928F9382EC98E09F938F935D
:104B60000E945606809114011F928F938BEA98E061
:104B70009F938F930E945606809194021F928F9369
:104B800088E998E09F938F930E94560680911501C3
:104B90001F928F9385E898E09F938F930E9456060B
:104BA0000E9444249F938F937F936F938EE698E0A7
:104BB0009F938F930E9456068DB79EB746960FB669
:104BC000F8949EBF0FBE8DBF52CF0E94BA19C091FC
:104BD000150181E0C827C0931501CC2329F084E694
:104BE00098E00E94BD050EC089E598E093CF80E073
:104BF00001C08D510E94A8243ACF87E598E00E9419
:104C0000BD05C0E08C2FCF91089580E008950C94ED
:104C10000526CF93C82F80919403882319F0813003
:104C200059F042C0E0911601F09117018081823263
:104C300061F08434D9F509C0E0911601F0911701B3
:104C40008081823211F0843461F48C2F0E94072617
:104C5000811104C08C2F0E94C82424C081E090E000
:104C600021C08C2F0E94052681111BC0C43189F000
:104C700018F4CB3029F010C0C93259F0C83361F4B0
:104C800081EA97E00E94BD0588E997E00E94BD0592
:104C900008C0109294030CC086E997E00E94BD05FD
:104CA00007C081E0817006C01092940380E002C0CA
:104CB00080E0F8CFCF910895EE0FFF1F0024001C75
:0E4CC0000BBE0790F691E02D0994F894FFCFFB
:104CCE000080FFFF0573010000FFEA0E570FED0E87
:104CDE00220FEE0E01016D0341540058540054454D
:104CEE00524D494E414C004E4F4E450041545F5A75
:104CFE003135300040362239C60690066E0635062E
:0E4D0E00C105DA05F3051306001000080004C5
:106800008800EA44E944E244040005000600070069
:10681000080009000A000B000C000D000E000F001C
:1068200010001100120013001400150016001700CC
:10683000180019001A001B001C001D001E001F007C
:10684000200021002200230024002500260027002C
:10685000280029002A002B002C002D002E002F00DC
:10686000300031003200330034003500360037008C
:10687000380039003A003B003C003D003E003F003C
:1068800040004100420043004400450046004700EC
:10689000480049004A004B004C004D004E004F009C
:1068A000500051005200530054005500560057004C
:1068B000580059005A005B005C005D005E005F00FC
:1068C0006000610062006300640065A185006700EC
:1068D000680069006A006B006C006D006E006F005C
:1068E0007000710072007300890087008A008B00BD
:1068F000E000E100E200E300E400E500E600E7007C
:106900000100010001000100EA4401000100E2442D
:106910000100010001000100460001004A004B0097
:10692000010001004700480001000100E9440100A6
:106930000100010001000100010001003A003B00DC
:106940003C003D003E003F0040004100420043004B
:10695000010035004C0039000100440045005200A0
:1069600049000100010050004F0029004D004E0079
:1069700051000100010001000100010001000100BF
:1069800001000100010001000100010001000100FF
:1069900001000100010001000100010001004D00A3
:1069A0004A004E004B0001000100010001000100FF
:1069B00001000100010001000100010001000100CF
:1069C00001000100010001000100010001000100BF
:1069D00001000100010001000100010001000100AF
:1069E0000100010001000100490001000100010057
:1069F000010001000100010001000100010001008F
:00000001FF
