:100000000C9435050C9496050C9497080C94960561
:100010000C9496050C9496050C9496050C949605F4
:100020000C9496050C9496050C9496050C94051664
:100030000C9496050C94B8230C9496050C94960594
:100040000C9496050C9496050C9496050C940D242E
:100050000C9496050C9496050C9496050C949605B4
:100060000C9496050C9496050C9496050C949605A4
:100070000C949605670A690A750A750A750A750A65
:10008000750A750A6B0A6D0A6F0A750A750A690A9C
:10009000770A750A750A310A670A750A750A6D0AC0
:1000A000750A750A750A750A750A750A6F0A670A6C
:1000B000530A750A570A750A750A750A330A6B0AD4
:1000C000750A750A610A750A750A750A350A730A8E
:1000D000750A550A750A690A750A750A650A590A80
:1000E000750A5B0A6D0A750A750A750A630A5D0A64
:1000F000750A750A750A750A750A750A750A5F0A1E
:10010000750A370A750A750A6B0A750A750A730A41
:10011000750A750A750A750A750A750A750A750AE7
:10012000750A390A750A750A750A610A750A750A27
:10013000750A750A750A750A750A750A750A750AC7
:100140003B0A750A3D0A3F0A750A750A750A410A93
:10015000430A450A750A470A490A750A750A750A63
:10016000710A4B0A750A4F0A4D0A510A750A750A37
:10017000750A750A730A9B0AA90AB50AB50A8D0A97
:10018000B50AB50AB50AB50AB50AB50AB50AB50A77
:10019000B50AB50AB50AB50AB50A8F0AB50A910AB1
:1001A000B50AB50AB50AB50AAD0AB50AC40AAB0A5A
:1001B000B50AB50AB50AB50AB50AB50AB50AB50A47
:1001C000B50AB50AB50AB50AB50A850AA10A930A9D
:1001D000A50AB50A950AB50A990AB50AA30A970AA3
:1001E000A70A9D0A9F0AB50AB50AB50AB50AB50A53
:1001F000B50AB50A870A890A8B0AAF0AB10AB50A95
:10020000B50AB50AB30A930BB10BD90BF30B010C6A
:100210000D0C2D0C440C670C840C200D4C0DC50DE1
:10022000F70DE10D080E1A0E220E280E2C0E320EBE
:100230008E0E900E920E940ED40E9C0E9C0E9C0E62
:10024000960E980E9A0E6B1492148A1592148A15B3
:10025000DE1401158A1558156715A819A819E01993
:10026000E0195B1A6F1C6F1C6F1C8F1A6F1C371AFA
:10027000371A291C6F1C3E1C5C1C007B46010203C4
:10028000763A687F6577482B353B6978796439140D
:100290001E3C6A7A1D16041A1F3D6B061B070821B7
:1002A000203E6C2C19091715223F6D11050B0A1CF5
:1002B00023406E7E100D182425416F360E0C122738
:1002C00026427037380F33132D43717534322F2E79
:1002D00044727C7D28303174457351504A524D49E7
:1002E0002A5466594F5C5F4C4B4E62635A5D5E60A8
:1002F000295367585B56576147554842403E3C3A40
:100300003B456843413F3D2B357E697A790078143F
:100310001E7C6A7B1D16041A1F7F6B061B070821B3
:10032000204D6C2C19091715224A6D11050B0A1C5A
:10033000234C6E49100D182425516F360E0C1227D0
:10034000264F7037380F33132D52717534502F2EBE
:100350004E72397D283065314B735464586776018D
:100360002A773259745C5F66020362635A5D5E608D
:10037000295344575B565561474680291E1F20214B
:100380002223242526272D2E2A2B141A0815171C64
:10039000180C12132F302878041607090A0B0D0EBB
:1003A0000F33343579311D1B0619051110363738D6
:1003B0007D557A2C393A3B3C3D3E3F4041424353C8
:1003C000475F6061565C5D5E57595A5B62634648A1
:1003D000324445677B7F650301025250514F686983
:1003E0006A6B6C6D6E6F7071725800494C754A4D36
:1003F000734B4E767C777E7466547225303258206B
:1004000000623A25303458200065253032582000EB
:100410002146554C4C2120002146462120007725BD
:100420003032582000214353335F4630210A0021E7
:100430004353335F5245414459210A00214353320B
:100440005F45305F4630210A00214353325F46301A
:10045000210A00214353325F4530210A00214353D2
:10046000325F494E4954210A00214353315F4530E0
:100470005F25303258210A000A5B4F56525D20003A
:100480004C2575200053257520000A49443A253033
:1004900034582825732920004D6F7573653A206EF6
:1004A0006F7420737570706F727465640A005225E2
:1004B0007520005725752000572575200057257594
:1004C00020005825752000412575200041412575E3
:1004D000200049257520005B4348475D20000A50F5
:1004E00052543A25303258204953523A2530345824
:1004F00020005B5253545D20000A4552523A253089
:100500003258204953523A2530345820000A4B655E
:1005100079626F6172642073746172742E0A000ACA
:1005200055534220636F6E666967757265642E0A63
:10053000000A0A544D4B3A62346133303737362F54
:100540004C5546410A0A003403490042004D002040
:10055000005000430020006B006500790062006FCE
:1005600000610072006400200063006F006E00767E
:10057000006500720074006500720000000E0374D4
:10058000002E006D002E006B002E000000040309F9
:100590000409027400040100A032090400000103F0
:1005A000010100092111010001224000070581031A
:1005B00008000A09040100010300000009211101DB
:1005C00000012236000705820308000A0904020020
:1005D0000203000000092111010001222200070589
:1005E0008303200001070503032000010904030021
:1005F0000103000000092111010001223900070553
:1006000084032000011201100100000008EDFEEE3D
:100610001B01000102000105010906A101050719DE
:10062000E029E715002501950875018102050819E3
:100630000129059505750191029501750391010543
:1006400007190029F71500250195F875018102C0E9
:100650000631FF0974A1010975150026FF009520D8
:10066000750881020976150026FF0095207508910E
:1006700002C005010980A10185021601002637008C
:100680001A81002AB700751095018100C0050C0978
:1006900001A1018503160100269C021A01002A9C73
:1006A00002751095018100C005010906A101050729
:1006B00019E029E7150025019508750181029501CA
:1006C0007508810105081901290595057501910233
:1006D0009501750391010507190029FF150026FFF3
:1006E00000950675088100C0636F6E73756D657245
:1006F0003A20253034580A0073797374656D3A20B6
:10070000253034580A000A002530325820006B6525
:1007100079626F6172643A20004C45443A2025307A
:1007200032580A0025583A2530386225730A000AE3
:10073000202030313233343536370A0064656C5F3F
:100740006B65795F6269743A2063616E2774206417
:10075000656C3A20253032580A006164645F6B652D
:10076000795F6269743A2063616E27742061646402
:100770003A20253032580A003F00433E20004C25E5
:10078000640A000A092D20436F6E736F6C65202D7B
:100790000A4553432F713A09717569740A000A09B1
:1007A0002D204D61676963202D0A643A09646562F2
:1007B00075670A783A096465627567206D617472BD
:1007C00069780A6B3A096465627567206B657962BE
:1007D0006F6172640A6D3A096465627567206D6FB6
:1007E0007573650A763A0976657273696F6E0A7376
:1007F0003A097374617475730A633A09636F6E73AF
:100800006F6C65206D6F64650A302D343A096C6138
:10081000796572302D34284631302D4634290A50FE
:100820006175733A09626F6F746C6F616465720A07
:100830006E3A094E4B524F0A003F004E4B524F3A10
:10084000206F66660A004E4B524F3A206F6E0A00C8
:1008500074696D65725F72656164333228293A206C
:100860002530346C580A006B6579626F6172645F81
:100870006E6B726F3A2025580A006B6579626F6162
:1008800072645F69646C653A2025580A006B65796B
:10089000626F6172645F70726F746F636F6C3A2025
:1008A00025580A00686F73745F6B6579626F6172B7
:1008B000645F6C65647328293A2025580A000A0988
:1008C0002D20537461747573202D0A004743433AF9
:1008D00020352E342E30204156522D4C4942433A79
:1008E00020322E302E30204156525F415243483A3A
:1008F0002061767233350A004F5054494F4E533AB7
:10090000204C5546412045585452414B45592043AF
:100910004F4E534F4C4520434F4D4D414E44204E7A
:100920004B524F204B45594D41505F53454354491D
:100930004F4E20424F4F544C4F414445525F534914
:100940005A450A004255494C443A206234613330DA
:10095000373736202831333A35383A353020466536
:10096000622020362032303231290A005649443A7A
:100970002030784645454428742E6D2E6B2E292054
:100980005049443A203078316265652849424D200B
:100990005043206B6579626F61726420636F6E767D
:1009A000657274657229205645523A20307830308D
:1009B00030310A00444553433A20636F6E766572C6
:1009C000742049424D205043206B6579626F6172FB
:1009D0006420746F205553420A000A092D20566581
:1009E0007273696F6E202D0A000A6D6F7573653A18
:1009F000206F66660A000A6D6F7573653A206F6E28
:100A00000A000A6B6579626F6172643A206F6666EC
:100A10000A000A6B6579626F6172643A206F6E0A30
:100A2000000A6D61747269783A206F66660A000A7E
:100A30006D61747269783A206F6E0A000A646562AB
:100A400075673A206F6E0A000A64656275673A201E
:100A50006F66660A000A0A626F6F746C6F61646584
:100A6000722E2E2E2000433E200011241FBECFEFF9
:100A7000D4E0DEBFCDBF04B603FE41C080919A032F
:100A800090919B03A0919C03B0919D038730904B64
:100A9000A740B04BA1F510929A0310929B031092BD
:100AA0009C0310929D0314BE0FB6F894A8958091F4
:100AB0006000886180936000109260000FBE109209
:100AC000010810920008E3E0F0E089E0809357000D
:100AD000E491E695E370E150E33040F4F0E0EE0F8E
:100AE000FF1FE05CFE4F8081918102C080E090E1B9
:100AF000E0E0F0E8E81BF90BF695E795099511E0C1
:100B0000A0E0B1E0E6E4FCE402C005900D92A6345A
:100B1000B107D9F723E0A6E4B1E001C01D92AA39DC
:100B2000B207E1F70E948A110C9421260C94000070
:100B3000FF93EF93E0914601F0914701309709F060
:100B40000995EF91FF910895FC018591803011F096
:100B5000EFDFFBCF0895FF27E0E230E247FF0CC054
:100B6000419597FF09C0EDE260957095809590954D
:100B7000611D711D811D911D27FF02C0219530E36C
:100B800050E2AA27660F771F881F991FAA1FA41774
:100B900010F0A41B63955A95A9F7AA3008F0A95F35
:100BA000A05DAF93F395611571058105910541F73E
:100BB000ED3211F4EF93F395F21718F43F93F39598
:100BC000FBCF8F91B5DFFA95E1F70895E991F9919F
:100BD0008591803021F0853219F0AADFF9CF089590
:100BE00020E0E89455915532C1F3503311F46894E4
:100BF00055915A3348F4505390F3220F022E220F8E
:100C0000220F200D250FF4CF0EF421958991999193
:100C1000533619F3533729F1533559F1BC0188275D
:100C20009927E8945C3621F48991999168945591BB
:100C3000543639F446EF7EF077FF0DC08FEF9FEF0B
:100C40000AC055374AE039F0583540E121F05236B4
:100C500042E009F00895FF93EF937DDFEF91FF915C
:100C6000B7CFFF93EF93FC0181918030B9F360DF40
:100C7000FBCFFF93EF9368DFF1CFDF93CF93CDB737
:100C8000DEB72596A3DFCF91DF91089590915301B0
:100C9000923081F09330D1F0913031F5E72FF0E0D0
:100CA000B3E0EE0FFF1FBA95E1F7E60FF11DE6582E
:100CB000FC4F17C0E72FF0E0A3E0EE0FFF1FAA954F
:100CC000E1F7E60FF11DE650FD4F0BC0E72FF0E016
:100CD00073E0EE0FFF1F7A95E1F7E60FF11DE6587E
:100CE000FD4FE491E03819F480E090E0089590E041
:100CF00023E0880F991F2A95E1F72E2F207730E007
:100D000044E0359527954A95E1F7820F931F54E00B
:100D1000880F991F5A95E1F7EF709C012E0F311D36
:100D2000F901EE0FFF1FE050F84985919491089565
:100D30005998519A08955198599A08955898509AE7
:100D400008955098589A08955198599A85E08A952F
:100D5000F1F7000089B18695817008955098589AEE
:100D600085E08A95F1F7000089B181700895CF93ED
:100D7000DF93EC010E94A406882341F0209731F014
:100D800085E08A95F1F700002197F4CFCE01DF913D
:100D9000CF910895CF93DF93C2E3D0E00E94A406E1
:100DA000811108C0209731F085E08A95F1F70000A5
:100DB0002197F4CFCE01DF91CF9108952E982698F8
:100DC0002F9827980E9498060E94A106E9E6F0E075
:100DD000808188608083E9980895E19AE99A0E9469
:100DE0009B060C94A106E9980E9498060C94A10613
:100DF000CF93DF932FB7F894C0910201D0910301F4
:100E0000CE01882781159F4F19F080E09FEF02C027
:100E10008FEF90E08C2B9D2B909303018093020128
:100E20002FBFCE0199278F3F910581F5CD2FDD276B
:100E3000C03FD10551F0CF3FD10509F451C0809199
:100E40008703C034D10599F407C08091870380FFE0
:100E500033C088E194E004C080FF2EC080E194E0BC
:100E60009F938F930E943D060F900F9025C080FFA7
:100E700037C0DF93CF9389E094E09F938F930E94D4
:100E80003D060F900F900F900F902AC0CE018F6FEC
:100E9000019699F08091870380FF0CC0DF93CF9378
:100EA00081E094E09F938F930E943D060F900F90F6
:100EB0000F900F90CD2F01C0CFEF8091870380FF5F
:100EC0000CC01F92CF938AEF93E09F938F930E9461
:100ED0003D060F900F900F900F908C2F90E002C066
:100EE0008FEF9FEFDF91CF910895CF93CAE1C1506B
:100EF00069F00E94F8068F3F2FEF920749F48FE9BF
:100F00009FE00197F1F700C00000F1CF8FEF9FEF56
:100F1000CF91089510924C0110924B0110924A010A
:100F20001092490180E090E89093010180930001C4
:100F30008FEF9FEF90930301809302010895EF924A
:100F4000FF920F931F93CF93DF93082F10924901C5
:100F50008091870380FF0CC01F920F938EE194E075
:100F60009F938F930E943D060F900F900F900F90CC
:100F7000E9980E9498060E94A1068FE891E00197E7
:100F8000F1F700C000000E949E068FE891E00197F3
:100F9000F1F700C000000E949B0680E69AEE0E94D6
:100FA000B706892B11F481E084C0C0E0D0E0FF24B3
:100FB000F39410E0EE24E39490E59A95F1F7C801DC
:100FC0000C2E02C0959587950A94E2F780FF04C025
:100FD000FE240E94A10602C00E949E060E94CA062C
:100FE000892B11F482E065C082E390E00E94B7068D
:100FF000892B11F483E05DC02196C830D105E1F65C
:1010000080E58A95F1F7FF2019F00E94A10602C041
:101010000E949E060E94CA06892B11F484E049C0F2
:1010200082E390E00E94B706892B11F485E041C06D
:1010300090E59A95F1F70E94A1060E94CA06892BB5
:1010400011F486E036C080914A01813109F440C034
:1010500082E390E00E94B706892B19F0C2E3D0E04A
:1010600009C087E026C0209759F025E02A95F1F7BE
:10107000000021970E94AE068111F5CFCD2B11F40F
:1010800088E017C00E94CA06892B19F0C2E3D0E09D
:1010900009C089E00EC0209759F085E08A95F1F7E4
:1010A000000021970E94AE068823A9F3CD2B81F47E
:1010B0008AE08093490180914901806180934901D0
:1010C00080914A0181111AC0809149018730B1F4A1
:1010D0008FEF9FEF90930301809302010E948A0794
:1010E0000E949B060E94A106E19AE99ADF91CF91A6
:1010F0001F910F91FF90EF900C9475070E94980636
:101100000E94A1068FE39FE10197F1F700C0000064
:101110000E949B060E94A106E19AE99A8FEF9FEF39
:10112000DF91CF911F910F91FF90EF9008951F9243
:101130000F920FB60F9211242F933F934F935F930B
:101140008F939F9329B18091880340910001509122
:1011500001014115504819F4809348010FC0909146
:101160004801891B833050F080910001909101016A
:1011700090934C0180934B0180E2DDC0809100018F
:1011800090910101969587959093010180930001BC
:1011900020FF09C080910001909101019068909317
:1011A0000101809300018091000190910101992734
:1011B0008038910509F4F9C0A8F48032910509F44A
:1011C000F4C038F4009709F4F0C0409709F489C0DE
:1011D000A9C08034910509F4E8C08035910509F46F
:1011E00080C0A0C0803C910539F150F48039910550
:1011F00009F477C0803A910509F094C084E64DC0A7
:10120000803D910509F46DC0803E910509F08AC0CA
:10121000809100019091010190934C0180934B01CA
:101220008091000190910101892F992790930101EC
:101230008093000183E252C084E649990FC088235D
:1012400069F095E09A95F1F700008150F6CF882378
:1012500049F095E09A95F1F7000081504999F7CF50
:101260008111A3C0809100019091010190934C01E4
:1012700080934B018091000190910101892F992762
:10128000909301018093000182E228C0882379F0C5
:1012900095E09A95F1F700008150499BF7CF07C080
:1012A000882349F095E09A95F1F70000815049991B
:1012B000F7CF81117AC08091000190910101909344
:1012C0004C0180934B018091000190910101892F85
:1012D0009927909301018093000181E280934A0154
:1012E00033C0809100019091010190934C01809353
:1012F0004B01809100019091010197FF02C080E1B4
:1013000001C081E180934A01809100019091010127
:1013100046E0969587954A95E1F790930101809371
:10132000000112C0809100019091010190934C0145
:1013300080934B0180E8809349018091490190E0BE
:10134000982F88278F6F27C080910001909101010D
:1013500099278F3F910511F480EFEDCF8091030124
:101360008F3F31F0809102018F3F11F080E4E3CF95
:101370008091020190910301982F88279093030197
:1013800080930201209100013091010180910201BE
:1013900090910301822B909303018093020180E0DE
:1013A00090E890930101809300019F918F915F914C
:1013B0004F913F912F910F900FBE0F901F90189556
:1013C000CF93C82F8DEE0E949F078A3F910521F48D
:1013D0008C2FCF910C949F07CF910895E82FE6951D
:1013E000E695E695EF70F0E0E95AFE4F4081282F30
:1013F000277081E090E002C0880F991F2A95E2F7DC
:10140000242F30E028233923232B11F4842B8083CD
:101410000895E82FE695E695E695EF70F0E0E95A35
:10142000FE4F2081382F377081E090E002C0880F96
:10143000991F3A95E2F7422F50E048235923452B54
:1014400019F08095822380830895482F50E0FA0197
:101450003397E138F10508F048C0E65CFF4F0C9483
:101460001B2687E108958FE108958CE5089580E6B5
:10147000089582E6089587E2089583E508958FE24E
:10148000089589E3089587E308958FE3089587E435
:1014900008958FE4089586E508958EE508958FE711
:1014A000089580E0089585E608958EE608958FE614
:1014B000089580E3089588E3089580E4089588E41A
:1014C000089580E5089587E508958FE5089588E1FA
:1014D000089588E0089580E2089580E1089589E103
:1014E00008958DE6089588E208958F7708958FE036
:1014F0000895CF93482F50E0FA017C97E834F10526
:10150000A0F5E554FF4F0C941B2685E53EC08AE507
:101510003CC08BE53AC08CE538C08DE536C08EE521
:1015200034C08FE532C080E630C081E62EC082E64E
:101530002CC083E62AC08FE628C081E726C082E758
:1015400024C084E722C085E720C087E71EC088E763
:101550001CC08AE71AC08CE718C08FE716C080E766
:1015600014C089E712C08BE710C0C82F1F928F9359
:1015700089E694E09F938F930E943D060F900F9011
:101580000F900F908C2F01C084E5CF9108950F9399
:101590001F93CF93DF930E94E6238C010E94F806ED
:1015A000EC01019631F4C8010E94FE23843F914072
:1015B000A8F3CE01DF91CF911F910F9108950E9462
:1015C000DE060C94ED06809187038160809387038B
:1015D000E7E5F1E0119281E0E736F807D9F70895E1
:1015E000E82FF0E0E95AFE4F80810895E7E5F1E049
:1015F000119281E0E736F807D9F70895982F809186
:101600005301823048F092FB882780F990FD826078
:1016100091FD84600C94E0090895CF93DF9380914D
:101620004901882371F180914B0190914C012091E7
:1016300049019F938F931F922F9389EF94E09F937B
:101640008F930E943D068091490180750F900F9005
:101650000F900F900F900F9071F4809152018B308A
:1016600051F482EF94E09F938F930E943D06109275
:1016700052010F900F901092490110924C0110925C
:101680004B0180914A01882309F440C090914A019E
:10169000809156019817D1F180914B0190914C01A6
:1016A00020914A019F938F931F922F938EED94E088
:1016B0009F938F930E943D06809156010F900F904B
:1016C0000F900F900F900F9085FF04C090914A01EA
:1016D00094FD06C084FF12C080914A0185FF0EC0B0
:1016E000809152018B3051F487ED94E09F938F935A
:1016F0000E943D06109252010F900F9080914A0176
:101700008093560110924C0110924B01E0915201CE
:101710008E2F90E08C30910508F04AC3FC01ED5FFC
:10172000FE4F0C941B260E94E6239F938F9382ED1D
:1017300094E09F938F930E943D0610925301109264
:10174000550110925401109256010E94F60A0E940F
:1017500058190E94E623909351018093500181E033
:1017600075C00E94F8068A3A9105B9F40E94E623F2
:101770009F938F938CEC94E09F938F930E943D06F0
:101780000E94E623909351018093500187E080935B
:1017900052010F900F900F900F90809150019091F7
:1017A00051010E94FE23893B9B4008F401C382E063
:1017B00015C00E94E6239F938F9387EC94E09F933C
:1017C0008F930E943D068FEF0E949F070F900F900E
:1017D0000F900F908A3F910521F486E0809352018B
:1017E000E7C283E0FBCF0E94F3062E98269A2F983B
:1017F000279A0E94E623909351018093500184E040
:10180000EDCF80915001909151010E94FE23853FC0
:10181000914008F4CDC285E0E1CF2E9826982F980C
:1018200027980E948A070E94ED060E94E6239F9354
:101830008F9382EC94E09F938F930E943D060E94C9
:10184000E623909351018093500186E080935201EA
:101850000F900F900F900F90ABC20E94F806019668
:1018600009F4A6C20E94E6239F938F938DEB94E028
:101870009F938F930E943D060E94E623909351010F
:101880008093500187E0E2CF809150019091510107
:101890000E94FE23853F914018F089E08093520119
:1018A0000E94F806019609F483C20E94E6239F93E2
:1018B0008F9388EB94E09F938F930E943D060E9444
:1018C000E623909351018093500188E0BFCF80912F
:1018D0005001909151010E94FE23853F914018F0E4
:1018E00089E0809352010E94F806019609F460C2D3
:1018F0000E94E6239F938F9383EB94E09F938F93B3
:101900000E943D0689E0A2CF82EF0E949F078F3F91
:101910003FEF930789F08A3F910589F40E94C70A37
:101920008F3F2FEF920771F0D82FCC270E94C70A64
:101930009E01282BC90108C08FEF9FEF05C08EEFD5
:101940009FEF02C080E090E0909355018093540196
:101950000E94E6239F938F938EEA94E09F938F9348
:101960000E943D0680915401909155010F900F9077
:101970000F900F90009711F482E02BC08F3F3FEF44
:10198000930711F481E025C08E3F2FEF9207A1F35A
:101990008F3F910559F488E994E09F938F930E94BB
:1019A0003D06109253010F900F901FC09C012558C7
:1019B0003B4A2230310580F480EF0E949F078A3F26
:1019C0009105D1F683E00E949F078A3F9105A1F619
:1019D00083E08093530109C0803B3FEB9307C1F341
:1019E000882781159F4BA1F3C7CF80915301813088
:1019F00039F0823041F0833049F08EE191E008C047
:101A00008BE191E005C088E191E002C083E291E0C2
:101A10009F938F93809155018F93809154018F9361
:101A20008AE894E09F938F930E943D068AE080931A
:101A300052010F900F900F900F900F900F90B8C120
:101A40000E94E6239F938F9385E894E09F938F9362
:101A50000E943D060F900F900F900F9080915301C0
:101A6000823029F0833039F488EF0E949F070E946A
:101A7000D0160E94FE0A8BE0809352010E94E6235A
:101A80009F938F9380E894E09F938F930E943D06ED
:101A90000F900F900F900F900E94F8069C012F3F1F
:101AA0009FEF390709F484C12115310519F02F3F43
:101AB000310569F40E94F60A0E94581988E794E0FB
:101AC0009F938F930E943D060F900F9071C190914C
:101AD0005301923009F44CC0933009F4CBC09130DB
:101AE00009F066C190914F01923099F028F4992342
:101AF00041F09130C1F039C0933061F1943081F1FF
:101B000034C0803E21F0813E51F482E005C081E086
:101B100003C08D31D9F483E080934F0149C187FF21
:101B2000E3C08F770DC1863301F118F48A3229F4AE
:101B30001CC08A3AD1F0863BC1F087FD03C00E94E9
:101B4000790A0BC08F770E94790A0DC08D3969F42C
:101B500084E0E2CF853449F485E50E94EE0905C0B2
:101B6000853C19F485E50E94090A10924F0120C1B5
:101B7000E0914E014E2F50E04930510508F077C0FA
:101B8000FA01E15FFE4F0C941B26803E69F030F4B1
:101B9000833871F0843871F48FE757C0813E31F09B
:101BA000803F41F481E05BC082E059C084E057C0CF
:101BB00082E04BC087FF98C00E94F60A8DE594E052
:101BC00098C0893509F453C0803F19F0823119F467
:101BD0004EC083E044C010924E0187FD03C00E94B6
:101BE000250A82C00E94F60A83E594E082C0833809
:101BF00021F0843821F48FE738C082E036C010929B
:101C00004E0187FF9DC00E94F60A89E494E071C0EE
:101C100010924E01823109F4CBC0893509F4C8C055
:101C200087FD03C00E94250A8BC00E94F60A8CE340
:101C300094E05FC0843121F0803FC9F486E00FC09A
:101C400085E00DC0873799F480E00E94EE090FC04F
:101C5000843169F487E003C0803F49F488E08093D1
:101C60004E01A6C0873719F480E00E94090A10923D
:101C70004E019EC090914D01913009F443C038F05F
:101C8000923009F463C0933009F47FC091C0863864
:101C900009F168F48338D1F020F4803819F582E036
:101CA0006CC08438A9F08538E9F48BE01DC08C380D
:101CB000A9F030F4873881F08B38A1F481E014C0AA
:101CC0008D3871F0803F71F481E057C082E00CC024
:101CD0008FE70AC086E008C080E006C089E004C043
:101CE0008AE002C087FD03C00E94EE0961C08FE256
:101CF00094E09F938F930E943D060F900F90109257
:101D0000520156C0482F50E0FA01E358F109EB3078
:101D1000F10590F4E85EFE4F0C941B2682E045C06E
:101D20008FE743C08BE041C086E03FC081E03DC00B
:101D300089E03BC08AE039C010924D0187FD03C0A5
:101D40000E94090A35C085E294E0D3CF853279F04C
:101D500030F4863171F08E3199F480E00BC0863218
:101D600021F0803F69F483E008C08DE503C083E57E
:101D700001C081E50E94EE0905C080934D0118C0A5
:101D80000E94F60A10924D0113C08E3169F020F4C2
:101D90008631B1F781E509C0853221F0863281F7BD
:101DA0008DE503C083E501C080E00E94090AEACF07
:101DB00081E0DF91CF91089580918B02089508957D
:101DC000CF93DF9300D01F92CDB7DEB72091910360
:101DD000243021F523E029839B838A8382E080934A
:101DE000E9008FEF9091E800815095FD06C095EDD8
:101DF0009A95F1F700008111F5CF8091E80085FFF9
:101E00000DC040E050E063E070E0CE0101960E941A
:101E10003C138091E8008E778093E8000F900F903C
:101E20000F90DF91CF910895CF93DF9300D01F9251
:101E3000CDB7DEB720919103243029F522E0298324
:101E4000805891099B838A832093E9008FEF9091BA
:101E5000E800815095FD06C095ED9A95F1F70000D8
:101E60008111F5CF8091E80085FF0DC040E050E082
:101E700063E070E0CE0101960E943C138091E8007F
:101E80008E778093E8000F900F900F90DF91CF91A5
:101E90000895CF93DF93EC0190919103943009F072
:101EA00048C0809114018823D9F0809115018823BE
:101EB000B9F09093E90081E8815049F09091E800F1
:101EC00095FD05C09AE29A95F1F700C0F5CF809193
:101ED000E80085FF2EC040E050E060E270E019C0ED
:101EE00081E08093E90081E8815059F09091E80009
:101EF00095FD07C0EFE3F1E03197F1F700C0000076
:101F0000F3CF8091E80085FF14C040E050E068E026
:101F100070E0CE010E943C138091E8008E778093A0
:101F2000E80080E2FE01ABE6B2E001900D928A95F6
:101F3000E1F7DF91CF910895CF93C0916901C1116D
:101F40000BC00E94F223643C79408105910520F08A
:101F500081E080936901C1E08C2FCF910895FF92B9
:101F60000F931F93CF93DF93D82F0FB607FE83C035
:101F700080919103843081F08091070190E0019677
:101F80002091090130E0822393232091080130E061
:101F90008217930709F0C9C00E949C0F811110C0DD
:101FA0008091070190E001962091090130E08223A1
:101FB00093232091080130E08217930709F0B5C000
:101FC0000E94E6238C01C091E900CF709091EC0053
:101FD000892F817090FD80E8C82B83E08093E90011
:101FE00085E0F82E8091EB0085FD42C08091EB00EA
:101FF00080FF3EC08091EE0087FF3AC080910801CB
:1020000090910701981709F457C09091E80095FF47
:102010008AC0E0910501F0910601E80FF11D2081D1
:102020008F5F909109018923809308012093F1002B
:102030008091E80085FDE2CF8091E80080FFDECF4F
:102040008091E8008E778093E800F0920401D6CF6B
:102050008091070190E001962091090130E08223F0
:1020600093232091080130E08217930709F448C0B8
:10207000CF70C093E90040910701842F90E0019652
:102080002091090130E0822393232091080130E060
:102090008217930709F44CC0E0910501F091060105
:1020A000E40FF11DD083809107018F5F90910901AA
:1020B0008923809307013CC08091E80085FF33C0ED
:1020C000D093F10081E09091F200992391F09091EA
:1020D000E80090FF0EC09091E80095FF03C01092B9
:1020E000F100F9CF9091E8009E779093E800F0928C
:1020F0000401882309F4ACCFCF70C093E90018C065
:1021000080910401882309F4B3CF0E94E6239C0147
:102110008017910711F4890165CF909104019150C6
:1021200090930401F8CF80E0CECF40910701B4CF67
:1021300080E0DF91CF911F910F91FF900895089556
:1021400042E061EC81E00E94B51242E061EC82E085
:102150000E94B51242E261EC83E00E94B51242E2B5
:1021600061EC84E00C94B51280919303833009F400
:1021700055C030F4813071F0823009F48EC008957A
:102180008A3009F47AC08B3009F460C0893009F0D4
:102190009CC020C080919203813A09F096C0809142
:1021A000E800877F8093E8008091960390919703E1
:1021B000892B21F460E28BE692E003C060E080E0CE
:1021C00090E070E00E9489138091E8008B77809303
:1021D000E800089580919203813209F076C08091E1
:1021E000960390919703009719F0039709F06DC03B
:1021F0008091E800877F8093E8008091E80082FD6D
:1022000005C0809191038111F8CF5FC08091F100EA
:1022100080938B028091E8008B7753C0809192036A
:10222000813A09F052C08091960390919703892BCF
:1022300009F04BC08091E800877F8093E80080918F
:10224000E80080FFFCCF8091140136C0809192039A
:102250008132D9F58091960390919703892BA9F546
:102260008091E800877F8093E8000E94EA128091C5
:102270009403809314010C94581980919203813235
:1022800021F58091E800877F8093E8000E94EA12A0
:102290008091950380938C02089580919203813AF6
:1022A000A1F48091E800877F8093E8008091E800A6
:1022B00080FFFCCF80918C028093F1008091E80038
:1022C0008E778093E8000C94EA12089580918B0237
:1022D00080936A0110928B020E94F60A0C9458199E
:1022E0000C9466110E94932380918F03882329F018
:1022F0000E94A02381110C949F1208950E94B42380
:1023000080916A0180938B0208950C947E11089548
:102310000C948711CF9384B7877F84BF0FB6F8944E
:10232000A8958091600088618093600010926000A1
:102330000FBE90E080E80FB6F89480936100909310
:1023400061000FBE8FEA9FE00E9466238AE091E061
:102350000E94CB1681E395E00E94A4050E94DF0A4B
:102360000E947F170E94A2150E94F51578940E9482
:10237000811780919103843029F00E94B0160E9449
:102380008711F7CF8FE195E00E94A4050E94881184
:102390008DE095E00E94A405C3E080919103853013
:1023A00019F40E947211F9CF0E9485172091E40060
:1023B0003091E500809167019091680128173907F5
:1023C00009F464C08091E4009091E5009093680165
:1023D000809367010E949C0F882309F457C0809165
:1023E0009103843009F052C08091E9008F702091F0
:1023F000EC00922F917020FD90E8892BC093E900AA
:102400009091EB0090FF3FC09091EE0097FF3BC092
:102410009091080120910701291709F12091E80006
:1024200025FF1DC0E0910501F0910601E90FF11DA6
:1024300030819F5F2091090192239093080130938E
:10244000F1009091E80095FDE3CF9091E80090FFB6
:10245000DFCF9091E8009E779093E800D9CF9091DC
:10246000F200992381F09091E80090FF0CC09091C8
:10247000E80095FF03C01092F100F9CF9091E800B9
:102480009E779093E8008F708093E9000E94B016C9
:1024900084CF292F332723303105C9F060F4213050
:1024A000310581F02230310509F041C084E790E028
:1024B00021E935E040C021323105E1F02232310519
:1024C00031F135C082E190E025E036E034C0992753
:1024D0008130910549F028F0029749F5E7E4F5E0ED
:1024E00005C0EDE8F5E002C0EDE7F5E0849190E08D
:1024F0009F0121C064307105D0F4660F771FFB0186
:10250000E85CFE4F2081318189E090E014C06430A6
:10251000710568F4FB01EE0FFF1FE05DFE4F2081A7
:102520003181FB01E45DFE4F808190E004C080E0DA
:1025300090E020E030E0FA0131832083089584E0C8
:1025400089BD86E089BD09B400FEFDCF8091D80029
:102550008F7D8093D8008091E00082608093E000BE
:102560008091E00081FDFCCF0895982F953068F5AB
:102570009093E900981739F07091EC002091ED00EC
:102580005091F00003C0242F762F50E021FD02C0AF
:102590009F5FECCF3091EB003E7F3093EB003091AA
:1025A000ED003D7F3093ED003091EB0031603093D2
:1025B000EB007093EC002093ED005093F00020911D
:1025C000EE0027FDE5CF80E008958F708093E9004D
:1025D00081E008958091920387FF11C08091E80007
:1025E00082FD05C0809191038111F8CF11C08091C7
:1025F000E8008B770BC080919103882349F080918C
:10260000E80080FFF8CF8091E8008E778093E800A3
:1026100008952091E4003091E50095E64091EC00AA
:10262000842F817040FF23C08091E80080FD1DC091
:1026300080919103882399F0853099F08091EB0087
:1026400085FD11C04091E4005091E5002417350745
:1026500029F3915011F09A01E1CF84E0089582E0CE
:10266000089583E0089581E0089580E00895409101
:10267000E80042FFDDCF0895CF92DF92EF92FF9204
:102680000F931F93CF93DF93EC018B017A010E948C
:102690000913811135C0E114F10439F0F70180818B
:1026A0009181081B190BC80FD91FC12CD12C011502
:1026B000110529F18091E80085FD18C08091E8009E
:1026C0008E778093E8000E94B016E114F10449F07F
:1026D000F70180819181C80ED91ED182C08285E028
:1026E0000FC00E940913882311F30AC089918093B7
:1026F000F10001501109FFEFCF1ADF0AD8CF80E0B7
:10270000DF91CF911F910F91FF90EF90DF90CF90CD
:10271000089520919803309199032617370748F0C0
:102720006115710539F42091E8002E772093E800B7
:1027300001C0B901FC0120E06115710561F18091D2
:1027400091038823D9F18530D9F18091E80083FD88
:1027500039C08091E80082FD2BC08091E80080FFA5
:10276000EBCF8091F20090E06115710551F0883057
:10277000910538F421912093F1006150710901967F
:10278000F3CF21E0089709F020E08091E8008E77F0
:102790008093E800D1CF2111D2CF0AC0809191035C
:1027A000882361F0853061F08091E80083FD0AC0E4
:1027B0008091E80082FFF2CF80E0089582E00895E2
:1027C00083E0089581E00895209198033091990362
:1027D0002617370748F06115710539F42091E80094
:1027E0002E772093E80001C0B901FC0120E06115BB
:1027F000710579F180919103882309F43DC08530FA
:1028000009F43CC08091E80083FD3AC08091E80063
:1028100082FD2CC08091E80080FFE9CF8091F2001A
:1028200090E06115710559F08830910540F42491CC
:102830002093F1003196615071090196F2CF21E0A9
:10284000089709F020E08091E8008E778093E800F7
:10285000CECF2111CFCF0AC080919103882361F0A0
:10286000853061F08091E80083FD0AC08091E80026
:1028700082FFF2CF80E0089582E0089583E008951A
:1028800081E008951F93CF93DF93CDB7DEB7AA976A
:102890000FB6F894DEBF0FBECDBFE2E9F3E0809142
:1028A000F100819323E0EA39F207C9F70E94B410DE
:1028B0008091E80083FF2EC1809192039091930351
:1028C000492F50E04A30510508F024C1FA01ED5D6E
:1028D000FE4F0C941B26803821F0823809F01AC173
:1028E00008C080918E0390918F03992389F08260B4
:1028F0000FC0809196038F70853008F00BC18093D4
:10290000E9008091EB0085FB882780F91092E900AF
:102910009091E800977F9093E8008093F1001092E7
:10292000F100D1C0282F2D7F09F0F4C0882319F0C1
:10293000823061F0EFC080919403813009F0EAC0E9
:10294000933009F080E080938F032EC08091940330
:1029500081112AC0809196038F702FEF280F2430A9
:1029600008F0D8C08093E9002091EB0020FF1CC044
:10297000933021F48091EB00806214C09091EB00C1
:1029800090619093EB0021E030E0A90102C0440F78
:10299000551F8A95E2F74093EA001092EA00809171
:1029A000EB0088608093EB001092E9008091E800D2
:1029B000877F8093E8000E94EA12ACC08111AAC010
:1029C000109194031F778091E3008078812B80938E
:1029D000E3008091E800877F8093E8000E94EA127C
:1029E0008091E80080FFFCCF8091E30080688093B5
:1029F000E300111102C082E001C083E080939103E3
:102A000089C08058823008F085C0809194039091ED
:102A100095038C3D53E0950779F583E08A838AE23C
:102A200089834FB7F894DE01139620E03EE051E22F
:102A3000E32FF0E050935700E49120FF03C0E295AC
:102A4000EF703F5FEF708E2F90E0EA3010F0C79686
:102A500001C0C0968D939D932F5F243149F74FBFDE
:102A60008091E800877F8093E8006AE270E0CE0101
:102A700001960E94891316C0609196037091970386
:102A8000AE014F5F5F4F0E944912BC01892B09F4D0
:102A900041C09091E800977F9093E80089819A81E6
:102AA0000E94E4138091E8008B778093E80032C0A5
:102AB000803881F58091E800877F8093E8008091DD
:102AC0008D038093F1008091E8008E7772CF8111A1
:102AD00021C0809194039091950399270297D4F493
:102AE0008091E800877F8093E80080919403809331
:102AF0008D030E94EA1280918D03811106C080919E
:102B0000E30087FD02C081E001C084E0809391036F
:102B10000E94A0108091E80083FF0AC08091E80025
:102B2000877F8093E8008091EB0080628093EB00C8
:102B3000AA960FB6F894DEBF0FBECDBFDF91CF913E
:102B40001F9108950E94FF150E940216E0EEF0E02A
:102B5000808181608083E8EDF0E080818F778083E1
:102B600019BCE3E6F0E080818160808310929003DD
:102B700008950E94FF150E9402168091D8008F7759
:102B80008093D8008091D80080688093D80080918D
:102B9000D8008F7D8093D80084E089BD86E089BD10
:102BA00009B400FEFDCF1092910310928D03109294
:102BB0008F0310928E0342E060E080E00E94B51225
:102BC0008091E1008E7F8093E1008091E20081603E
:102BD0008093E2008091E20088608093E20080911F
:102BE000E0008E7F8093E0000895E3E6F0E08081CE
:102BF0008E7F808381E0809390030C94B9151092AE
:102C0000E20008951092E10008951F920F920FB60E
:102C10000F9211242F933F934F935F936F937F9362
:102C20008F939F93AF93BF93EF93FF938091E100B6
:102C300082FF0BC08091E20082FF07C08091E1001B
:102C40008B7F8093E1000E94AF168091E10080FFAE
:102C500019C08091E20080FF15C08091E2008E7F54
:102C60008093E2008091E20080618093E200809195
:102C7000D80080628093D80019BC85E080939103CE
:102C80000E9470118091E10084FF30C08091E200C9
:102C900084FF2CC084E089BD86E089BD09B400FEB4
:102CA000FDCF8091D8008F7D8093D8008091E10086
:102CB0008F7E8093E1008091E2008F7E8093E2001E
:102CC0008091E20081608093E20080918D038823EF
:102CD00011F084E007C08091E30087FD02C081E02D
:102CE00001C083E0809391030E9485118091E100EF
:102CF00083FF24C08091E20083FF20C08091E10027
:102D0000877F8093E10082E08093910310928D038E
:102D10008091E1008E7F8093E1008091E2008E7FC0
:102D20008093E2008091E20080618093E20042E0C3
:102D300060E080E00E94B5120E949F10FF91EF9129
:102D4000BF91AF919F918F917F916F915F914F91C3
:102D50003F912F910F900FBE0F901F9018950895DF
:102D6000CF93809191038823A1F0C091E900CF70A7
:102D70009091EC00892F817090FD80E8C82B109213
:102D8000E9008091E80083FD0E944214CF70C09357
:102D9000E900CF9108959093920280939102089553
:102DA000E0919102F0919202309721F00190F08130
:102DB000E02D099480E00895EF92FF920F931F9306
:102DC000CF93DF93E0919102F09192023097B1F1AD
:102DD0008C010280F381E02D09958091870382FFA9
:102DE0002DC080FF04C08EE097E00E94A405E8019A
:102DF00010E288E0E82E87E0F82E8091870380FFBC
:102E00000BC088811F928F93FF92EF920E943D0624
:102E10000F900F900F900F90115021961111EDCF40
:102E20008091870380FF0AC086E097E0DF91CF9111
:102E30001F910F91FF90EF900C94A405DF91CF911B
:102E40001F910F91FF90EF900895CF93DF93209102
:102E50008F02309190022817390709F19093900260
:102E600080938F02E0919102F09192023097B9F035
:102E7000EC010680F781E02D09958091870382FFA0
:102E80000EC080FF0CC0DF93CF9388EF96E09F9336
:102E90008F930E943D060F900F900F900F90DF913F
:102EA000CF910895CF93DF9320918D0230918E02C0
:102EB0002817390709F190938E0280938D02E091D3
:102EC0009102F09192023097B9F0EC010084F18503
:102ED000E02D09958091870382FF0EC080FF0CC012
:102EE000DF93CF9388EE96E09F938F930E943D06E9
:102EF0000F900F900F900F90DF91CF9108950C9449
:102F000028180E94DD230C94E30ABF92CF92DF922F
:102F1000EF92FF920F931F93CF93DF9300D000D0D7
:102F20001F92CDB7DEB70E940D0B04E912E0F12C21
:102F30008F2D0E94F00AB82EF801C080C82639F4FF
:102F4000F3940F5F1F4FF0E1FF12F2CF30C080917A
:102F5000870381FD0E942918D12CEE24E3948C2D47
:102F60008E21F9F0D982FA8291E08B2D8E2109F41D
:102F700090E09B830E94E6238160782F9D838C8361
:102F800049815A816B818D810E945F1849815A81E4
:102F90006B817C818D810E947E23F80180818E254A
:102FA0008083D394EE0CF8E0DF12D9CFC9CF8FEF36
:102FB00089838A831B820E94E6238160782F9D8308
:102FC0008C8349815A816B818D810E945F180E9498
:102FD0007D230E94D01690919302891741F10E949F
:102FE000D016809393029091870392FF0EC090FFBA
:102FF0000CC01F928F9389E197E09F938F930E945B
:103000003D060F900F900F900F90809193020F90BC
:103010000F900F900F900F90DF91CF911F910F9114
:10302000FF90EF90DF90CF90BF900C948F230F9084
:103030000F900F900F900F90DF91CF911F910F91F4
:10304000FF90EF90DF90CF90BF9008950C94FE0A10
:103050000895EF92FF920F931F93CF93DF938FE228
:1030600097E00E94A405C0E0D0E082E2E82E81E073
:10307000F82E04E217E08C2F0E94F00A0E946B23C6
:10308000FF92EF921F928F93DF93CF931F930F9333
:103090000E943D0621968DB79EB708960FB6F8940C
:1030A0009EBF0FBE8DBFC031D10529F7DF91CF91F3
:1030B0001F910F91FF90EF90089508950895CF9379
:1030C000DF93CDB7DEB72B970FB6F894DEBF0FBEF8
:1030D000CDBF942F4F83252F588769877A878B8799
:1030E0004A855B85452B31F02F3F31F481E09F3FCE
:1030F00019F403C081E001C080E080FD07C04F816A
:10310000588569857A858B850E947E23DE0111961C
:1031100086E0FD0111928A95E9F785E0FE01379678
:1031200001900D928A95E1F749815A816B817C81EA
:103130008D819E810E946D1F2B960FB6F894DEBF85
:103140000FBECDBFDF91CF910895CF93882309F4AF
:1031500065C0C82F8CEF8C0F813A20F080E58C0F72
:103160008E3248F48C2F0E94B725811157C08C2FC6
:103170000E9461220CC080E28C0F883058F4C77026
:1031800081E001C0880FCA95EAF70E940623CF911B
:103190000C9440238BE58C0F833078F4C53A29F0EA
:1031A000C63A31F083E890E005C081E890E002C0C3
:1031B00082E890E0CF910C94251788E58C0F873139
:1031C00068F5C83A89F0C93A91F0CA3A99F0CB3A11
:1031D000A1F0CC3AA9F0CD3AB1F0CE3AB9F0CF3A5D
:1031E000C1F080E090E017C082EE90E014C089EE5C
:1031F00090E011C08AEE90E00EC085EB90E00BC02D
:1032000086EB90E008C083EB90E005C084EB90E093
:1032100002C087EB90E0CF910C945217CF910895A4
:10322000882349F19CEF980F913A20F090E5980F90
:103230009E3218F40E94B1220DC090E2980F98308F
:1032400058F4877091E001C0990F8A95EAF7892FA9
:103250000E940C230C9440239BE5980F933020F49C
:1032600080E090E00C942517885A873120F480E0A4
:1032700090E00C9452170895882321F00E940623B1
:103280000C9440230895882321F00E940C230C9471
:10329000402308950E9426230E94F5220E94402385
:1032A00080E090E00E94251780E090E00C94521797
:1032B0000E9416230C944A19CF92DF92EF92FF924C
:1032C0000F931F93CF93DF9300D000D01F92CDB701
:1032D000DEB76C010E949123811101C385E0F601E4
:1032E000DE01119601900D928A95E1F7F601408179
:1032F0005181238134812115310531F05F3F31F453
:1033000081E04F3F19F403C081E001C080E080FDFF
:10331000E6C2F601F280E580E2948FE0E82249837C
:103320005A83FB82722F3D832C836F2D8D810E94E7
:10333000D6218C010E94D5210E94C520E12FE29563
:10334000EF708E2F90E0FC01E35DFE4F0C941B2686
:10335000812F807F1F70882311F01295107FFF202E
:10336000B9F0112329F0812F0E9419230E944023D4
:10337000802F0F900F900F900F900F90DF91CF91B3
:103380001F910F91FF90EF90DF90CF900C94A518B4
:10339000802F0E941019112309F4A1C2812F0E94CD
:1033A0001F230F900F900F900F900F90DF91CF91F0
:1033B0001F910F91FF90EF90DF90CF900C944023DE
:1033C000812F807F1F70803211F01295107F0023B3
:1033D00019F0013009F12BC0FF20A9F0EE2059F1BE
:1033E000F1E0812FEF1228C00F900F900F900F90F7
:1033F0000F90DF91CF911F910F91FF90EF90DF9091
:10340000CF900C942923EE2021F021E0E21609F45C
:1034100066C20E942C234DC0FF20E9F085E08E1586
:1034200008F45DC20E940323812329F042C0FF20DB
:10343000F1F1E11015C0812F0F900F900F900F90B8
:103440000F90DF91CF911F910F91FF90EF90DF9040
:10345000CF900C943C1994E09E1508F440C229C00A
:10346000F601858180FF13C08F708583E4CF003F14
:1034700009F472C108F03EC180E4800F803208F484
:1034800042C1FF2009F4D3C1EE2009F483C1802F8B
:103490000E94A518093309F0C3C1FFEF21EE84E0B3
:1034A000F15020408040E1F700C0000018C2E11058
:1034B000C0C1812F42C1812F86958695837019F0F6
:1034C0008130B9F00CC2FF2019F0C801937002C01E
:1034D00080E090E00F900F900F900F900F90DF9191
:1034E000CF911F910F91FF90EF90DF90CF900C94B0
:1034F0002517FF2019F0C801937002C080E090E00A
:103500000F900F900F900F900F90DF91CF911F9120
:103510000F91FF90EF90DF90CF900C945217812F76
:10352000837009F070C0F110DAC1202F2295269522
:103530002770220F220F602F6F70862F90E0A0E07F
:10354000B0E06C017D01022E04C0CC0CDD1CEE1C31
:10355000FF1C0A94D2F704FF12C08FE090E0A0E0B5
:10356000B0E004C0880F991FAA1FBB1F2A95D2F78D
:10357000BC01CD01609570958095909503C060E089
:1035800070E0CB011695169513701230B1F040F52E
:103590006C297D298E299F29113031F10F900F90D0
:1035A0000F900F900F90DF91CF911F910F91FF908F
:1035B000EF90DF90CF900C94EA206C297D298E2922
:1035C0009F290F900F900F900F900F90DF91CF9148
:1035D0001F910F91FF90EF90DF90CF900C940421FA
:1035E0000E94EA20C701B6010F900F900F900F9034
:1035F0000F90DF91CF911F910F91FF90EF90DF908F
:10360000CF900C94D020FF2019F0812F817001C041
:103610008695882309F463C1202F2295269527706B
:10362000220F220F602F6F70862F90E0A0E0B0E095
:103630006C017D01022E04C0CC0CDD1CEE1CFF1CB5
:103640000A94D2F704FF12C08FE090E0A0E0B0E04F
:1036500004C0880F991FAA1FBB1F2A95D2F7BC016F
:10366000CD01609570958095909503C060E070E005
:10367000CB011695169513701230B1F040F56C29F8
:103680007D298E299F29113031F10F900F900F90D5
:103690000F900F90DF91CF911F910F91FF90EF90BE
:1036A000DF90CF900C94B1216C297D298E299F2920
:1036B0000F900F900F900F900F90DF91CF911F916F
:1036C0000F91FF90EF90DF90CF900C94C3210E9458
:1036D000B121C701B6010F900F900F900F900F907E
:1036E000DF91CF911F910F91FF90EF90DF90CF90DE
:1036F0000C949F21023F09F45EC008F449C0033FC7
:1037000009F46CC0BECE902F9071E92E812F8F717D
:10371000FF2051F00E943821802FEE2019F0829571
:10372000807F8ACE8F7088CE0E945921802FEE2014
:1037300019F08295807F01C08F700F900F900F90CD
:103740000F900F90DF91CF911F910F91FF90EF900D
:10375000DF90CF900C944319FF20A9F0E4E0EE1520
:1037600008F4BDC0812F8F710F900F900F900F90B4
:103770000F90DF91CF911F910F91FF90EF90DF900D
:10378000CF900C947E21F5E0FE1508F4A8C0EACF96
:10379000FF2099F0812F8F710F900F900F900F9055
:1037A0000F90DF91CF911F910F91FF90EF90DF90DD
:1037B000CF900C943821FF2069F3812F8F710F90E7
:1037C0000F900F900F900F90DF91CF911F910F915D
:1037D000FF90EF90DF90CF900C945921FF2089F05B
:1037E000812F8F710F900F900F900F900F90DF919E
:1037F000CF911F910F91FF90EF90DF90CF900C949D
:1038000023210F900F900F900F900F90DF91CF9189
:103810001F910F91FF90EF90DF90CF900C941E219D
:10382000033509F43ACE073409F059C036CEEE20FC
:1038300021F2802F0F900F900F900F900F90DF913B
:10384000CF911F910F91FF90EF90DF90CF900C944C
:103850001019412F4F70602FC6010E9452240F9003
:103860000F900F900F900F90DF91CF911F910F91BC
:10387000FF90EF90DF90CF900C94202001112FC08B
:10388000FF2069F10E9458192FEF80E792E0215044
:1038900080409040E1F700C000000F900F900F9023
:1038A0000F900F90DF91CF911F910F91FF90EF90AC
:1038B000DF90CF900C943324412F4F70602FC601BE
:1038C0000F900F900F900F900F90DF91CF911F915D
:1038D0000F91FF90EF90DF90CF900C9455240F90B4
:1038E0000F900F900F900F90DF91CF911F910F913C
:1038F000FF90EF90DF90CF9008951F93CF93DF93C9
:1039000000D000D01F92CDB7DEB7942F4983252F6A
:103910005A836B837C838D834C815D81452B31F091
:103920002F3F31F481E09F3F19F403C081E001C0D3
:1039300080E0182F117080FD31C049815A816B8160
:103940007C818D810E94D621292F22952F702C30C9
:1039500030F42A30A0F42250223030F022C02C3033
:10396000C9F02F30B9F01DC0853A28F48430C0F476
:10397000823028F415C090E2980F983088F0883E85
:1039800030F4803E68F48450813A58F409C0803F96
:1039900041F406C093FB112710F903C010E001C0E9
:1039A00011E0812F0F900F900F900F900F90DF91EB
:1039B000CF911F910895CF93DF9300D000D01F9235
:1039C000CDB7DEB70F900F900F900F900F90DF9153
:1039D000CF910895CF93DF9300D000D000D0CDB722
:1039E000DEB726960FB6F894DEBF0FBECDBFDF91CF
:1039F000CF910895CF93DF93C091A4028091A50247
:103A0000C817A1F0D0E0CE0166E070E00E940A265F
:103A1000FC01EA55FD4F40815181628173818481AF
:103A200095810E94EA1C2196C770E8CFDF91CF9163
:103A300008954091D6025091D7026091D8027091BA
:103A4000D9028091DA029091DB020C94EA1C1F9358
:103A5000CF93DF938091DB0282958F7009F05CC079
:103A60008091D802882309F457C02091A4021091B4
:103A7000A502C091D602D091D702A091D902B091EF
:103A8000DA0281E0CF3F09F080E0482F211709F4E6
:103A900043C0109721F0DF3F21F080E003C081E0B8
:103AA00001C0842F30E080FD33C0C90166E070E0C2
:103AB0000E940A26FC01EA55FD4F81818D1328C022
:103AC00080818C1325C08281811122C083819481E1
:103AD0008A1B9B0B883C9105D8F48091DB028F7088
:103AE00080618093DB02C90166E070E00E940A26D3
:103AF000FC01E555FD4F90819F709061908386EDAC
:103B000092E00E945C19DF91CF911F910C94FA1CF6
:103B10002F5F3F4F2770BACFDF91CF911F9108954C
:103B20009F92AF92BF92CF92DF92EF92FF920F934C
:103B30001F93CF93DF93CDB7DEB761970FB6F8949D
:103B4000DEBF0FBECDBF8C0185E0F801DE011D9602
:103B500001900D928A95E1F7F80140812181F28070
:103B6000C380D4809091D6023091D7026091D9025F
:103B70007091DA026115710531F03F3F31F481E057
:103B80009F3F19F403C081E001C080E0F82FF1707D
:103B90009F2E80FD59C186EDA82E82E0B82EE090C0
:103BA000D802F601E61BF70BEE2009F4EDC0809178
:103BB000DB02582F507FE83CF10508F0A7C05111F7
:103BC00056C0231313C0491311C0EF2CF1100EC0BF
:103BD0008F7080618093DB020E94191DC5010E94D5
:103BE0005C198091DB02F801858364C1C114D104A2
:103BF00031F02F3F31F481E04F3F19F403C081E0F1
:103C000001C080E080FD03C081E08F2502C080E01C
:103C100090E0F82FF170EF2E80FF1FC0E091A4021A
:103C20003091A502E31709F421C1F0E0CF0166E06D
:103C300070E00E940A26DC01AA55BD4F11968C91B6
:103C40001197281307C08C91481304C012968C91C9
:103C5000F81203C03196E770E5CFEF2CFF2009F48E
:103C600029C18091DB0281608093DB0264C0231351
:103C700006C0491304C0F11002C0F801A9C04D8765
:103C80002E87FF867C2DD98AC88A522F6F2D89896D
:103C90000E947D1C8823A1F1FF2091F12091DB027D
:103CA000822F82958F7090E0029774F08091D602F7
:103CB0009091D70298878F831986DB86CA862C87D6
:103CC000CE0107960E945C1986E0F801A6EDB2E0ED
:103CD00001900D928A95E1F70E94271D0E94191DFF
:103CE00012C0231751F14D872E87FF867C2DD98A6C
:103CF000C88A522F6F2D89890E947D1C81112CC08A
:103D0000C8010E945C19EE24E394D4C05111E9CF9C
:103D10007C2DD98AC88A522F6F2D89890E94DB1C7D
:103D200086ED92E00E945C1986E0F50111928A9579
:103D3000E9F70E94191DE12CBDC04913D4CFF11041
:103D4000D2CFF8018583C8010E945C1986E0F50195
:103D500011928A95E9F7AEC0FF2091F22091DB0223
:103D6000822F82958F7090E002970CF4ADCF8091F6
:103D7000D6029091D7029A8389831B82DD82CC82FE
:103D80002E83CE0101969ECFE83CF10508F04CC091
:103D9000EF2CFF2009F4B4CF231330C049132EC0F9
:103DA0002091DB0220FD21C0822F82958F70482F49
:103DB00050E041155105C9F0F80125834F305105F8
:103DC00041F08F5F982F9295907F822F8F70892B73
:103DD0008583C8010E945C1986E0F801A6EDB2E077
:103DE00001900D928A95E1F72CC086E0F801A6EDCE
:103DF000B2E001900D928A95E1F75CC04D872E8765
:103E0000FF867C2DD98AC88A522F6F2D89890E94FE
:103E10007D1C811159CF8091DB0281608093DB0290
:103E2000C8010E945C1946C07C2DD98AC88A522FCD
:103E30006F2D89890E94DB1C86E0F50111928A951D
:103E4000E9F70E94191D36C0FF2009F459CF4D87AC
:103E50002E87FF867C2DD98AC88A522F6F2D89899B
:103E60000E947D1C882309F44BCF2ECF7C2DD98A4C
:103E7000C88A522F6F2D89890E94D621292F229519
:103E80002F70223028F49F7039F0811105C00BC0CB
:103E9000243028F49F7049F4805E883020F0C801F7
:103EA0000E945C199E2CE92C05C0F8019581907F39
:103EB00099F7F9CF8E2D61960FB6F894DEBF0FBE3D
:103EC000CDBFDF91CF911F910F91FF90EF90DF90C9
:103ED000CF90BF90AF909F900895CF93DF93CDB7D1
:103EE000DEB72C970FB6F894DEBF0FBECDBF4F8361
:103EF000588769877A878B879C87CE0107960E94AF
:103F0000901D8823D1F09F8188852A853B85232BAE
:103F100031F08F3F31F481E09F3F19F403C081E01D
:103F200001C080E080FD6FC04F81588569857A852A
:103F30008B859C850E94EA1C66C086E0FE01379650
:103F4000DE01119601900D928A95E1F7FF81E885D7
:103F50006A857B856115710531F0EF3F31F481E0B1
:103F6000FF3F19F403C081E001C080E080FD4BC039
:103F70008091A50290E09C012F5F3F4F277033276F
:103F80004091A40250E02417350709F443C0F98397
:103F9000EA837D836C8366E070E00E940A26DC0180
:103FA000AA55BD4F96E0FE01319601900D929A956B
:103FB000E1F72093A5020E94FA1C25C090E066E07C
:103FC00070E00E940A268A559D4F0E94901D88230A
:103FD00071F18091A40290E066E070E00E940A26F0
:103FE000FC01EA55FD4F40815181628173818481DA
:103FF00095810E94EA1C8091A40290E0019687704E
:1040000099278093A4028091A4029091A50289131C
:10401000D5CF0DC00E9458191092A5021092A4028B
:10402000E6EDF2E086E0DF011D928A95E9F72C9635
:104030000FB6F894DEBF0FBECDBFDF91CF910895CC
:10404000DF92EF92FF920F931F93CF93DF93FC01C8
:10405000892B09F488C0E12CF12CDD24D394EF01E5
:1040600021968491853709F460C058F4843708F0AC
:104070004EC0843008F068C08130D1F0823071F1D8
:1040800072C0883709F45BC050F4863709F453C016
:10409000873709F068C08E2D0E94132352C09CE719
:1040A000980F903708F05FC08F770E9410194EC0AC
:1040B0008F010E5F1F4FFE01849190E2980F9830A0
:1040C00050F48770FD2D01C0FF0F8A95EAF78F2FFE
:1040D0000E94192315C00E94A51814C08F010E5FFD
:1040E0001F4FFE01849190E2980F983068F487701A
:1040F000FD2D01C0FF0F8A95EAF78F2F0E941F2325
:104100000E944023E80122C00E941019FBCFCF017A
:104110000296FE01C491CC2361F0EFE9FFE03197F4
:10412000F1F700C00000C150F6CFCF010296FE01AA
:10413000F490EC010BC00E940323E82E07C00E94FC
:1041400016230E94402302C00E94A5188F2D8823A9
:1041500041F0EFE9FFE03197F1F700C00000815036
:10416000F6CFFE017CCFDF91CF911F910F91FF9091
:10417000EF90DF90089560935C0370935D038093EC
:104180005E0390935F030C948E2308956093600305
:104190007093610380936203909363030C948D2367
:1041A0000F931F93009160031091610320916203AC
:1041B00030916303602B712B822B932B60936003F0
:1041C0007093610380936203909363031F910F9137
:1041D0000C948D230F931F93009160031091610342
:1041E0002091620330916303602371238223932320
:1041F0006093600370936103809362039093630301
:104200001F910F910C948D230F931F9300916003C6
:10421000109161032091620330916303602771273D
:1042200082279327609360037093610380936203F6
:10423000909363031F910F910C948D2360E070E0C5
:10424000CB010C94BB200F931F9341E050E060E042
:1042500070E08A019B0104C0000F111F221F331F51
:104260008A95D2F7C901B8011F910F910C94BB2018
:104270000F931F9341E050E060E070E004C0440FF2
:10428000551F661F771F8A95D2F780915C03909126
:104290005D03A0915E03B0915F038A019B01082B2F
:1042A000192B2A2B3B2BC901B8011F910F910C949C
:1042B000BB200F931F9341E050E060E070E004C02A
:1042C000440F551F661F771F8A95D2F7409550956A
:1042D0006095709580915C0390915D03A0915E0361
:1042E000B0915F038A019B01082319232A233B23F2
:1042F000C901B8011F910F910C94BB200F931F931C
:1043000041E050E060E070E004C0440F551F661FBC
:10431000771F8A95D2F780915C0390915D03A091FD
:104320005E03B0915F038A019B01082719272A27A2
:104330003B27C901B8011F910F910C94BB200F932B
:104340001F9300915C0310915D0320915E033091F7
:104350005F03602B712B822B932B1F910F910C9479
:10436000BB200F931F9300915C0310915D0320917C
:104370005E0330915F0360237123822393231F9197
:104380000F910C94BB200F931F9300915C0310912D
:104390005D0320915E0330915F03602771278227C0
:1043A00093271F910F910C94BB2008958F929F9299
:1043B000AF92BF92DF92EF92FF920F931F93CF9332
:1043C000DF9300D000D01F92CDB7DEB76B837C8324
:1043D0008D838A018C819D81892B31F01F3F31F4BF
:1043E00081E04F3F19F403C081E001C080E080FF0D
:1043F00003C080E090E054C08B81882309F43DC065
:1044000080905C0390905D03A0905E03B0905F038A
:104410008091600390916103A0916203B091630366
:10442000882A992AAA2ABB2A2FE1E22EF12CD5014B
:10443000C4010E2C04C0B695A795979587950A944C
:10444000D2F780FD06C081E0E81AF10880F7D12C90
:1044500007C0DE2CB8018E2D0E944606019799F305
:10446000E12FF0E093E0EE0FFF1F9A95E1F7E452A1
:10447000FD4FE00FF11DD0820CC0E12FF0E083E092
:10448000EE0FFF1F8A95E1F7E452FD4FE00FF11D9B
:10449000D08009831A8369817A818D2D0E94460616
:1044A0000F900F900F900F900F90DF91CF911F9171
:1044B0000F91FF90EF90DF90BF90AF909F908F9003
:1044C000089590911401992379F190911501992300
:1044D00059F1982F9695969596959F31A1F0E09178
:1044E0001601F0911701E90FF11D877021E030E00E
:1044F000A90102C0440F551F8A95E2F7CA019181B4
:10450000892B818308959091870390FF29C01F9282
:104510008F938AE597E09F938F930E943D060F90BB
:104520000F900F900F900895209116013091170170
:10453000F90132969FEF40E05191851789F09F3F36
:1045400019F4511101C0942F4F5F4E31A9F79F3FCD
:1045500039F0F901E90FF11D97FDFA95828308956D
:10456000089590911401992381F190911501992357
:1045700061F1982F9695969596959F31A9F0E091C7
:104580001601F0911701E90FF11D877021E030E06D
:10459000A90102C0440F551F8A95E2F7CA01809510
:1045A00091818923818308959091870390FF1CC096
:1045B0001F928F938CE397E09F938F930E943D0609
:1045C0000F900F900F900F900895E0911601F091C9
:1045D00017019F01225E3F4F9281891301C0128211
:1045E0003196E217F307C1F7089581E090E0E0917A
:1045F0001601F0911701E80FF91F10820196803221
:104600009105A9F7089580918603089590918603F6
:10461000892B809386030895809590918603892342
:1046200080938603089580938603089510928603ED
:10463000089590918503892B809385030895809533
:1046400090918503892380938503089510928503B3
:1046500008958093640308951092640308958091EF
:10466000160190911701FC0131969C01205E3F4F8D
:1046700080E0919191118F5FE217F307D1F70895D0
:10468000E0911601F0911701809186038083E091FB
:104690001601F0911701908180918503892B808309
:1046A00080916403882361F0E0911601F091170175
:1046B0009081892B80830E942F23811110926403A3
:1046C00080911601909117010C94DC16909347018C
:1046D0008093460108958295982F9373292F220F76
:1046E000220F982F9C7C96959695922B892F8575F5
:1046F000880F9A7A9695892B08950895CF93DF9322
:1047000000D000D01F92CDB7DEB70F900F900F9062
:104710000F900F90DF91CF910895089508950C9414
:10472000261880E0089583B7817F8C6083BF83B7AC
:10473000816083BF7894889583B78E7F83BF089507
:10474000CF930E945D180E940D0B0E945E18C0E07E
:104750008C2F0E94F00A811104C0CF5FC031C1F7D5
:1047600001C081E0CF9108950E94F60A0C94581977
:104770001F920F920FB60F9211248F939F93AF93B6
:10478000BF938091880390918903A0918A03B0918F
:104790008B034196A11DB11D8093880390938903DB
:1047A000A0938A03B0938B03BF91AF919F918F9198
:1047B0000F900FBE0F901F90189582E084BD93E07C
:1047C00095BD9AEF97BD80936E0008952FB7F8942A
:1047D0008091880390918903A0918A03B0918B0303
:1047E0002FBF08952FB7F8946091880370918903C3
:1047F00080918A0390918B032FBF08959C014FB73E
:10480000F8948091880390918903A0918A03B091D4
:104810008B034FBF821B930B089578941F920F92C6
:104820000FB60F9211248F939F93AF93BF938091F4
:10483000880390918903A0918A03B0918B0301961C
:10484000A11DB11D8093880390938903A0938A03CF
:10485000B0938B03BF91AF919F918F910F900FBE3B
:104860000F901F9018950E94A215F89487E797E77C
:10487000909301088093000887E090EBDC0180931F
:104880009A0390939B03A0939C03B0939D039CE099
:1048900088E10FB6F894A895809360000FBE9093BE
:1048A0006000FFCF80E090E008950895CF93C82F77
:1048B0001F928F938EE797E09F938F930E943D0600
:1048C00081E090E0A0E0B0E0BC01CD0104C0660F43
:1048D000771F881F991FCA95D2F70E94C6200F9094
:1048E0000F900F900F90CF910C945819CF9387325F
:1048F000A8F58E3108F02BC1803109F49FC0F8F47F
:10490000873009F464C0A8F4863009F024C180918E
:104910008703817F8E7F8093870383E897E00E94DF
:10492000A40586E69AE00E94A40581E080938C03AA
:104930004CC08B30F1F18E3009F46CC00CC1863163
:1049400009F4B0C020F4813109F4EDC004C189310B
:1049500009F491C08B3109F449C0FDC0883349F195
:1049600050F4893209F4F1C0853309F4EEC087327E
:1049700009F0F1C0EAC0833409F4E7C028F48A33AF
:1049800008F4E9C08953E4C0883409F0E4C00E9407
:10499000581985E59AE00E94A4052FEF83ED90E376
:1049A000215080409040E1F700C000000E94332475
:1049B0000CC08EE997E05CC08CE39AE00E94A405ED
:1049C00080918703816080938703C1E0C9C0809193
:1049D0008703C82FC17080FFEFCF88E49AE00E9460
:1049E000A40580918703817F8E7F3DC090918703CE
:1049F00091FBCC27C0F981E0C827892FC0FB81F942
:104A000080938703CC2319F08FE29AE027C081E2DC
:104A10009AE02EC09091870392FBCC27C0F981E0E9
:104A2000C827892FC0FB82F980938703CC2319F014
:104A300082E19AE013C082E09AE01AC09091870365
:104A400093FBCC27C0F981E0C827892FC0FB83F9ED
:104A500080938703CC2351F086EF99E00E94A40550
:104A6000809187038160809387037AC089EE99E003
:104A70000E94A405AACF8AED99E00E94A40584EBC8
:104A800099E00E94A4058CE699E00E94A40584E4C4
:104A900099E00E94A40588EF98E00E94A4058CECA0
:104AA00098E0E6CF8EEB98E00E94A4050E94D01615
:104AB0001F928F9384EA98E09F938F930E943D0604
:104AC000809114011F928F938DE898E09F938F93AC
:104AD0000E943D0680918C021F928F938AE798E096
:104AE0009F938F930E943D06809115011F928F9393
:104AF00087E698E09F938F930E943D060E94F223E1
:104B00009F938F937F936F9380E598E09F938F930C
:104B10000E943D068DB79EB746960FB6F8949EBF8D
:104B20000FBE8DBF52CF0E945819C091150181E070
:104B3000C827C0931501CC2329F086E498E00E9491
:104B4000A4050EC08BE398E093CF80E001C08D51A7
:104B50000E9456243ACF89E398E00E94A405C0E061
:104B60008C2FCF91089580E008950C94B325CF93B6
:104B7000C82F80918C03882319F0813059F042C0EE
:104B8000E0911601F09117018081823261F0843446
:104B9000D9F509C0E0911601F091170180818232A8
:104BA00011F0843461F48C2F0E94B525811104C06A
:104BB0008C2F0E94762424C081E090E021C08C2FAD
:104BC0000E94B32581111BC0C43189F018F4CB3089
:104BD00029F010C0C93259F0C83361F483E897E076
:104BE0000E94A4058AE797E00E94A40508C01092DD
:104BF0008C030CC088E797E00E94A40507C081E001
:104C0000817006C010928C0380E002C080E0F8CF73
:104C1000CF9108950024552704C0080E591F880F0E
:104C2000991F009729F076956795B8F37105B9F744
:104C3000802D952F0895EE0FFF1F0590F491E02D24
:064C40000994F894FFCF77
:104C46000080FFFF056B010000FFDC0E490FDF0E41
:104C5600140FE00E010165034154005854004E4FF5
:104C66004E45005445524D494E414C00403622397E
:104C7600A806720650061706A305BC05D505F50558
:064C86000008000400021A
:106800008800EA44E944E244040005000600070069
:10681000080009000A000B000C000D000E000F001C
:1068200010001100120013001400150016001700CC
:10683000180019001A001B001C001D001E001F007C
:10684000200021002200230024002500260027002C
:10685000280029002A002B002C002D002E002F00DC
:10686000300031003200330034003500360037008C
:10687000380039003A003B003C003D003E003F003C
:1068800040004100420043004400450046004700EC
:10689000480049004A004B004C004D004E004F009C
:1068A000500051005200530054005500560057004C
:1068B000580059005A005B005C005D005E005F00FC
:1068C0006000610062006300640065A185006700EC
:1068D000680069006A006B006C006D006E006F005C
:1068E0007000710072007300890087008A008B00BD
:1068F000E000E100E200E300E400E500E600E7007C
:106900000100010001000100EA4401000100E2442D
:106910000100010001000100460001004A004B0097
:10692000010001004700480001000100E9440100A6
:106930000100010001000100010001003A003B00DC
:106940003C003D003E003F0040004100420043004B
:10695000010035004C0039000100440045005200A0
:1069600049000100010050004F0029004D004E0079
:1069700051000100010001000100010001000100BF
:1069800001000100010001000100010001000100FF
:1069900001000100010001000100010001004D00A3
:1069A0004A004E004B0001000100010001000100FF
:1069B00001000100010001000100010001000100CF
:1069C00001000100010001000100010001000100BF
:1069D00001000100010001000100010001000100AF
:1069E0000100010001000100490001000100010057
:1069F000010001000100010001000100010001008F
:00000001FF
