:100000000C9447050C94B2050C94AC080C94B20502
:100010000C94B2050C94B2050C94B2050C94B20584
:100020000C94B2050C94B2050C9447160C94B205CE
:100030000C9411240C94B2050C94B2050C94B205E6
:100040000C94B2050C94B2050C94B2050C94B20554
:100050000C94B2050C9466240C94B2050C94B20571
:100060000C94B2050C94B2050C94B2050C94B20534
:100070000C94B2050C94B2050C94B2050C94B20524
:100080000C94B2050C94B2050C94B2050C94B20514
:100090000C94B2050C94B2057C0A7E0A8A0A8A0A7C
:1000A0008A0A8A0A8A0A8A0A800A820A840A8A0AC8
:1000B0008A0A7E0A8C0A8A0A8A0A460A7C0A8A0AFC
:1000C0008A0A820A8A0A8A0A8A0A8A0A8A0A8A0A98
:1000D000840A7C0A680A8A0A6C0A8A0A8A0A8A0AD4
:1000E000480A800A8A0A8A0A760A8A0A8A0A8A0AD0
:1000F0004A0A880A8A0A6A0A8A0A7E0A8A0A8A0ACE
:100100007A0A6E0A8A0A700A820A8A0A8A0A8A0A9D
:10011000780A720A8A0A8A0A8A0A8A0A8A0A8A0A69
:100120008A0A740A8A0A4C0A8A0A8A0A800A8A0A8D
:100130008A0A880A8A0A8A0A8A0A8A0A8A0A8A0A21
:100140008A0A8A0A8A0A4E0A8A0A8A0A8A0A760A5F
:100150008A0A8A0A8A0A8A0A8A0A8A0A8A0A8A0AFF
:100160008A0A8A0A500A8A0A520A540A8A0A8A0A97
:100170008A0A560A580A5A0A8A0A5C0A5E0A8A0ACF
:100180008A0A8A0A860A600A8A0A640A620A660A6F
:100190008A0A8A0A8A0A8A0A880AB00ABE0ACA0A27
:1001A000CA0AA20ACA0ACA0ACA0ACA0ACA0ACA0AD7
:1001B000CA0ACA0ACA0ACA0ACA0ACA0ACA0AA40AC5
:1001C000CA0AA60ACA0ACA0ACA0ACA0AC20ACA0ABB
:1001D000D90AC00ACA0ACA0ACA0ACA0ACA0ACA0A7A
:1001E000CA0ACA0ACA0ACA0ACA0ACA0ACA0A9A0A9F
:1001F000B60AA80ABA0ACA0AAA0ACA0AAE0ACA0AE1
:10020000B80AAC0ABC0AB20AB40ACA0ACA0ACA0ABA
:10021000CA0ACA0ACA0ACA0A9C0A9E0AA00AC40AC8
:10022000C60ACA0ACA0ACA0AC80AA80BC60BEE0B33
:10023000080C160C220C420C590C7C0C990C350D38
:10024000610DDA0D0C0EF60D1D0E2F0E370E3D0E44
:10025000410E470EA30EA50EA70EA90EE90EB10E74
:10026000B10EB10EAB0EAD0EAF0E9214B914B115A6
:10027000B914B11505152815B1157F158E15111A6C
:10028000111A491A491AC41AD81CD81CD81CF81AB1
:10029000D81CA01AA01A921CD81CA71CC51C007B35
:1002A00046010203763A687F6577482B353B6978CB
:1002B000796439141E3C6A7A1D16041A1F3D6B06B8
:1002C0001B070821203E6C2C19091715223F6D11C0
:1002D000050B0A1C23406E7E100D182425416F3635
:1002E0000E0C122726427037380F33132D437175C9
:1002F00034322F2E44727C7D283031744573515036
:100300004A524D492A5466594F5C5F4C4B4E6263CA
:100310005A5D5E60295367585B565761475548429E
:10032000403E3C3A3B456843413F3D2B357E697A30
:10033000790078141E7C6A7B1D16041A1F7F6B06D9
:100340001B070821204D6C2C19091715224A6D1125
:10035000050B0A1C234C6E49100D182425516F36CD
:100360000E0C1227264F7037380F33132D5271752C
:1003700034502F2E4E72397D283065314B735464C2
:10038000586776012A773259745C5F6602036263AC
:100390005A5D5E60295344575B5655614746802934
:1003A0001E1F20212223242526272D2E2A2B141A16
:1003B0000815171C180C12132F302878041607097B
:1003C0000A0B0D0E0F33343579311D1B061905113B
:1003D000103637387D557A2C393A3B3C3D3E3F400C
:1003E00041424353475F6061565C5D5E57595A5BBB
:1003F00062634648324445677B7F65030102525081
:10040000514F68696A6B6C6D6E6F707172580049FC
:100410004C754A4D734B4E767C777E7466547225CC
:100420003032582000623A2530345820006525309B
:10043000325820002146554C4C21200021464621AF
:10044000200077253032582000214353335F463057
:10045000210A00214353335F5245414459210A0088
:10046000214353325F45305F4630210A0021435318
:10047000325F4630210A00214353325F4530210A62
:1004800000214353325F494E4954210A002143530E
:10049000315F45305F25303258210A000A5B4F56E4
:1004A000525D20004C2575200053257520000A4917
:1004B000443A253034582825732920004D6F757330
:1004C000653A206E6F7420737570706F7274656416
:1004D0000A005225752000572575200057257520E4
:1004E00000572575200058257520004125752000EE
:1004F00041412575200049257520005B4348475D33
:1005000020000A5052543A25303258204953523A6A
:100510002530345820005B5253545D20000A455268
:10052000523A25303258204953523A253034582017
:10053000000A4B6579626F61726420737461727432
:100540002E0A000A55534220636F6E666967757202
:1005500065642E0A000A0A544D4B3A623461333006
:100560003737362F4C5546410A0A003403490042BA
:10057000004D0020005000430020006B0065007912
:100580000062006F00610072006400200063006F71
:10059000006E007600650072007400650072000055
:1005A000000E0374002E006D002E006B002E000064
:1005B000000403090409027400040100A0320904C4
:1005C0000000010301010009211101000122400086
:1005D0000705810308000A09040100010300000067
:1005E0000921110100012236000705820308000AD3
:1005F0000904020002030000000921110100012288
:1006000022000705830320000107050303200001E2
:100610000904030001030000000921110100012267
:1006200039000705840320000112011001000000B9
:1006300008EDFEEE1B01000102000105010906A103
:1006400001050719E029E7150025019508750181C5
:100650000205081901290595057501910295017595
:100660000391010507190029F71500250195F87573
:10067000018102C00631FF0974A101097515002628
:10068000FF009520750881020976150026FF009568
:100690002075089102C005010980A101850216019B
:1006A000002637001A81002AB700751095018100D5
:1006B000C0050C0901A1018503160100269C021A40
:1006C00001002A9C02751095018100C005010906F0
:1006D000A101050719E029E7150025019508750115
:1006E0008102950175088101050819012905950503
:1006F000750191029501750391010507190029FF04
:10070000150026FF00950675088100C0636F6E73A3
:10071000756D65723A20253034580A007379737408
:10072000656D3A20253034580A000A0025303258C9
:1007300020006B6579626F6172643A20004C454419
:100740003A20253032580A0025583A25303862259B
:10075000730A000A202030313233343536370A002C
:1007600064656C5F6B65795F6269743A2063616E82
:1007700027742064656C3A20253032580A00616481
:10078000645F6B65795F6269743A2063616E277498
:10079000206164643A20253032580A003F00433E0D
:1007A00020004C25640A000A092D20436F6E736FE8
:1007B0006C65202D0A4553432F713A097175697490
:1007C0000A000A092D204D61676963202D0A643AE9
:1007D0000964656275670A783A096465627567201D
:1007E0006D61747269780A6B3A0964656275672095
:1007F0006B6579626F6172640A6D3A09646562754E
:1008000067206D6F7573650A763A0976657273694C
:100810006F6E0A733A097374617475730A633A09E7
:10082000636F6E736F6C65206D6F64650A302D3475
:100830003A096C61796572302D34284631302D4685
:1008400034290A506175733A09626F6F746C6F6175
:100850006465720A6E3A094E4B524F0A003F004ED1
:100860004B524F3A206F66660A004E4B524F3A2069
:100870006F6E0A0074696D65725F72656164333210
:1008800028293A202530346C580A006B6579626F4C
:100890006172645F6E6B726F3A2025580A006B6557
:1008A00079626F6172645F69646C653A2025580AE9
:1008B000006B6579626F6172645F70726F746F63F1
:1008C0006F6C3A2025580A00686F73745F6B657906
:1008D000626F6172645F6C65647328293A202558E1
:1008E0000A000A092D20537461747573202D0A00C3
:1008F0004743433A20352E342E30204156522D4C5A
:100900004942433A20322E302E30204156525F4128
:100910005243483A2061767235310A004F505449AB
:100920004F4E533A204C5546412045585452414B66
:10093000455920434F4E534F4C4520434F4D4D4159
:100940004E44204E4B524F204B45594D41505F5322
:10095000454354494F4E20424F4F544C4F4144451C
:10096000525F53495A450A004255494C443A206265
:1009700034613330373736202831333A35383A3519
:1009800033204665622020362032303231290A0079
:100990005649443A2030784645454428742E6D2EF9
:1009A0006B2E29205049443A203078316265652801
:1009B00049424D205043206B6579626F617264201B
:1009C000636F6E76657274657229205645523A20BF
:1009D0003078303030310A00444553433A20636F59
:1009E0006E766572742049424D205043206B6579C4
:1009F000626F61726420746F205553420A000A09C5
:100A00002D2056657273696F6E202D0A000A6D6F76
:100A10007573653A206F66660A000A6D6F757365B7
:100A20003A206F6E0A000A6B6579626F6172643AF0
:100A3000206F66660A000A6B6579626F6172643ABC
:100A4000206F6E0A000A6D61747269783A206F66D1
:100A5000660A000A6D61747269783A206F6E0A0046
:100A60000A64656275673A206F6E0A000A646562FF
:100A700075673A206F66660A000A0A626F6F746CC7
:100A80006F616465722E2E2E2000433E20001124DB
:100A90001FBECFEFD0E2DEBFCDBF04B603FE49C01C
:100AA00080919A0390919B03A0919C03B0919D0328
:100AB0008730904BA740B04B09F03BC010929A038F
:100AC00010929B0310929C0310929D0314BE0FB6CC
:100AD000F894A895809160008861809360001092DE
:100AE00060000FBE1092010810920008E3E0F0E0F1
:100AF00089E080935700E491E695E370E150E3309C
:100B000040F4F0E0EE0FFF1FE05CFE4F20813181EA
:100B100002C020E030E280E090E0A2E0B0E0821B82
:100B2000930BA109B109B595A79597958795FC01F8
:100B3000099511E0A0E0B1E0ECEDFCE400E00BBFB2
:100B400002C007900D92A634B107D9F723E0A6E4BE
:100B5000B1E001C01D92AA39B207E1F70E94AD11C0
:100B60000C946C260C940000FF93EF93E0914601E7
:100B7000F0914701309709F00995EF91FF910895A1
:100B8000FC018591803011F0EFDFFBCF0895FF2746
:100B9000E0E230E247FF0CC0419597FF09C0EDE26B
:100BA0006095709580959095611D711D811D911DB9
:100BB00027FF02C0219530E350E2AA27660F771F76
:100BC000881F991FAA1FA41710F0A41B63955A959C
:100BD000A9F7AA3008F0A95FA05DAF93F39561155E
:100BE00071058105910541F7ED3211F4EF93F3950D
:100BF000F21718F43F93F395FBCF8F91B5DFFA9579
:100C0000E1F70895E991F9918591803021F08532DD
:100C100019F0AADFF9CF089520E0E89455915532F4
:100C2000C1F3503311F4689455915A3348F450533A
:100C300090F3220F022E220F220F200D250FF4CF4A
:100C40000EF4219589919991533619F3533729F16F
:100C5000533559F1BC0188279927E8945C3621F473
:100C60008991999168945591543639F446EF7EF004
:100C700077FF0DC08FEF9FEF0AC055374AE039F07C
:100C8000583540E121F0523642E009F00895FF93D3
:100C9000EF937DDFEF91FF91B7CFFF93EF93FC01CF
:100CA00081918030B9F360DFFBCFFF93EF9368DF72
:100CB000F1CFDF93CF93CDB7DEB72596A3DFCF91EA
:100CC000DF910895282F80915301823071F0833095
:100CD000B1F0813001F5E62FF0E038E0739FE00DD0
:100CE000F11D1124E256FC4F13C0E62FF0E088E01E
:100CF000789FE00DF11D1124E25EFC4F09C0E62F44
:100D0000F0E038E0739FE00DF11D1124E256FD4F35
:100D1000E491E03819F480E090E008959E2F9077F8
:100D2000892F90E034E0959587953A95E1F738E082
:100D3000239F800D911D112444E0880F991F4A952F
:100D4000E1F7EF709C012E0F311DF901EE0FFF1F2F
:100D5000E050F8498591949108955998519A0895D1
:100D60005198599A08955898509A08955098589AB9
:100D700008955198599A85E08A95F1F7000089B154
:100D80008695817008955098589A85E08A95F1F774
:100D9000000089B181700895CF93DF93EC010E9428
:100DA000B906882341F0209731F085E08A95F1F764
:100DB00000002197F4CFCE01DF91CF910895CF931A
:100DC000DF93C2E3D0E00E94B906811108C02097EA
:100DD00031F085E08A95F1F700002197F4CFCE013C
:100DE000DF91CF9108952E9826982F9827980E94EA
:100DF000AD060E94B606E9E6F0E080818860808357
:100E0000E9980895E19AE99A0E94B0060C94B60612
:100E1000E9980E94AD060C94B606CF93DF932FB7E6
:100E2000F894C0910201D0910301CE018827811569
:100E30009F4F19F080E09FEF02C08FEF90E08C2B66
:100E40009D2B90930301809302012FBFCE01992720
:100E50008F3F910581F5CD2FDD27C03FD10551F0A2
:100E6000CF3FD10509F451C080918703C034D1052B
:100E700099F407C08091870380FF33C08CE394E02E
:100E800004C080FF2EC084E394E09F938F930E9460
:100E900059060F900F9025C080FF37C0DF93CF9386
:100EA0008DE294E09F938F930E9459060F900F90CC
:100EB0000F900F902AC0CE018F6F019699F080910C
:100EC000870380FF0CC0DF93CF9385E294E09F936C
:100ED0008F930E9459060F900F900F900F90CD2F77
:100EE00001C0CFEF8091870380FF0CC01F92CF938A
:100EF0008EE194E09F938F930E9459060F900F907C
:100F00000F900F908C2F90E002C08FEF9FEFDF913A
:100F1000CF910895CF93CAE1C15069F00E940D07A7
:100F20008F3F2FEF920749F48FE99FE00197F1F788
:100F300000C00000F1CF8FEF9FEFCF910895109286
:100F40004C0110924B0110924A011092490180E02D
:100F500090E890930101809300018FEF9FEF9093B1
:100F60000301809302010895EF92FF920F931F9364
:100F7000CF93DF93082F109249018091870380FF60
:100F80000CC01F920F9382E494E09F938F930E9472
:100F900059060F900F900F900F90E9980E94AD06A0
:100FA0000E94B6068FE891E00197F1F700C00000BB
:100FB0000E94B3068FE891E00197F1F700C00000AE
:100FC0000E94B00680E69AEE0E94CC06892B11F4AE
:100FD00081E084C0C0E0D0E0FF24F39410E0EE2470
:100FE000E39490E59A95F1F7C8010C2E02C095950F
:100FF00087950A94E2F780FF04C0FE240E94B6069B
:1010000002C00E94B3060E94DF06892B11F482E021
:1010100065C082E390E00E94CC06892B11F483E046
:101020005DC02196C830D105E1F680E58A95F1F7DB
:10103000FF2019F00E94B60602C00E94B3060E946B
:10104000DF06892B11F484E049C082E390E00E941E
:10105000CC06892B11F485E041C090E59A95F1F713
:101060000E94B6060E94DF06892B11F486E036C086
:1010700080914A01813109F440C082E390E00E94EE
:10108000CC06892B19F0C2E3D0E009C087E026C066
:10109000209759F025E02A95F1F7000021970E944A
:1010A000C3068111F5CFCD2B11F488E017C00E9443
:1010B000DF06892B19F0C2E3D0E009C089E00EC039
:1010C000209759F085E08A95F1F7000021970E945A
:1010D000C3068823A9F3CD2B81F48AE080934901CC
:1010E0008091490180618093490180914A01811179
:1010F0001AC0809149018730B1F48FEF9FEF909330
:101100000301809302010E949F070E94B0060E9483
:10111000B606E19AE99ADF91CF911F910F91FF9066
:10112000EF900C948A070E94AD060E94B6068FE3EA
:101130009FE10197F1F700C000000E94B0060E94F5
:10114000B606E19AE99A8FEF9FEFDF91CF911F9159
:101150000F91FF90EF9008951F920F920FB60F928C
:1011600011242F933F934F935F938F939F9329B1B4
:101170008091880340910001509101014115504830
:1011800019F4809348010FC090914801891B833066
:1011900050F0809100019091010190934C01809357
:1011A0004B0180E2DDC08091000190910101969594
:1011B0008795909301018093000120FF09C08091E1
:1011C00000019091010190689093010180930001CA
:1011D000809100019091010199278038910509F4CF
:1011E000F9C0A8F48032910509F4F4C038F40097EE
:1011F00009F4F0C0409709F489C0A9C08034910572
:1012000009F4E8C08035910509F480C0A0C0803C95
:10121000910539F150F48039910509F477C0803A8D
:10122000910509F094C084E64DC0803D910509F414
:101230006DC0803E910509F08AC0809100019091B7
:10124000010190934C0180934B018091000190919A
:101250000101892F9927909301018093000183E276
:1012600052C084E649990FC0882369F095E09A95A9
:10127000F1F700008150F6CF882349F095E09A9568
:10128000F1F7000081504999F7CF8111A3C08091F7
:1012900000019091010190934C0180934B0180914A
:1012A000000190910101892F99279093010180936A
:1012B000000182E228C0882379F095E09A95F1F741
:1012C00000008150499BF7CF07C0882349F095E083
:1012D0009A95F1F7000081504999F7CF81117AC0B2
:1012E000809100019091010190934C0180934B01FA
:1012F0008091000190910101892F9927909301011C
:101300008093000181E280934A0133C08091000103
:101310009091010190934C0180934B0180910001C9
:101320009091010197FF02C080E101C081E18093AB
:101330004A01809100019091010146E096958795C0
:101340004A95E1F7909301018093000112C08091CA
:1013500000019091010190934C0180934B0180E832
:10136000809349018091490190E0982F88278F6FE1
:1013700027C0809100019091010199278F3F91052D
:1013800011F480EFEDCF809103018F3F31F0809118
:1013900002018F3F11F080E4E3CF80910201909130
:1013A0000301982F882790930301809302012091D5
:1013B0000001309101018091020190910301822B83
:1013C000909303018093020180E090E890930101E3
:1013D000809300019F918F915F914F913F912F9149
:1013E0000F900FBE0F901F901895CF93C82F8DEEC2
:1013F0000E94B4078A3F910521F48C2FCF910C9461
:10140000B407CF910895E82FE695E695E695EF703D
:10141000F0E0E95AFE4F4081282F277081E090E0EC
:1014200002C0880F991F2A95E2F7242F30E0282365
:101430003923232B11F4842B80830895E82FE6951C
:10144000E695E695EF70F0E0E95AFE4F2081382FDF
:10145000377081E090E002C0880F991F3A95E2F75B
:10146000422F50E048235923452B19F080958223C1
:1014700080830895482F50E0FA013397E138F10551
:1014800008F048C0E45BFF4F0C94632687E10895A1
:101490008FE108958CE5089580E6089582E6089529
:1014A00087E2089583E508958FE2089589E308951A
:1014B00087E308958FE3089587E408958FE40895FE
:1014C00086E508958EE508958FE7089580E00895F4
:1014D00085E608958EE608958FE6089580E30895E1
:1014E00088E3089580E4089588E4089580E50895E8
:1014F00087E508958FE5089588E1089588E00895C7
:1015000080E2089580E1089589E108958DE60895C7
:1015100088E208958F7708958FE00895CF93482F3C
:1015200050E0FA017C97E834F105A0F5E353FF4F52
:101530000C94632685E53EC08AE53CC08BE53AC045
:101540008CE538C08DE536C08EE534C08FE532C0FD
:1015500080E630C081E62EC082E62CC083E62AC039
:101560008FE628C081E726C082E724C084E722C036
:1015700085E720C087E71EC088E71CC08AE71AC03D
:101580008CE718C08FE716C080E714C089E712C047
:101590008BE710C0C82F1F928F938DE894E09F9324
:1015A0008F930E9459060F900F900F900F908C2FE1
:1015B00001C084E5CF9108950F931F93CF93DF93DC
:1015C0000E943F248C010E940D07EC01019631F42A
:1015D000C8010E945724843F9140A8F3CE01DF91B7
:1015E000CF911F910F9108950E94F3060C9402076A
:1015F00080918703816080938703E7E5F1E0119292
:1016000081E0E736F807D9F70895E82FF0E0E95AC6
:10161000FE4F80810895E7E5F1E0119281E0E73621
:10162000F807D9F70895982F80915301823048F038
:1016300092FB882780F990FD826091FD84600C9474
:10164000F5090895CF93DF9380914901882371F1C3
:1016500080914B0190914C01209149019F938F9370
:101660001F922F938DE195E09F938F930E945906CF
:101670008091490180750F900F900F900F900F90FF
:101680000F9071F4809152018B3051F486E195E016
:101690009F938F930E945906109252010F900F90C2
:1016A0001092490110924C0110924B0180914A0115
:1016B000882309F440C090914A01809156019817FF
:1016C000D1F180914B0190914C0120914A019F935F
:1016D0008F931F922F9382E095E09F938F930E94A8
:1016E0005906809156010F900F900F900F900F9018
:1016F0000F9085FF04C090914A0194FD06C084FFBD
:1017000012C080914A0185FF0EC0809152018B303A
:1017100051F48BEF94E09F938F930E94590610929F
:1017200052010F900F9080914A01809356011092C0
:101730004C0110924B01E09152018E2F90E08C30C1
:10174000910508F04AC3FC01EB5EFE4F0C94632642
:101750000E943F249F938F9386EF94E09F938F93F3
:101760000E94590610925301109255011092540193
:10177000109256010E940B0B0E94C1190E943F2437
:10178000909351018093500181E075C00E940D0734
:101790008A3A9105B9F40E943F249F938F9380EF7A
:1017A00094E09F938F930E9459060E943F24909348
:1017B00051018093500187E0809352010F900F9068
:1017C0000F900F9080915001909151010E945724E9
:1017D000893B9B4008F401C382E015C00E943F246E
:1017E0009F938F938BEE94E09F938F930E94590663
:1017F0008FEF0E94B4070F900F900F900F908A3FC9
:10180000910521F486E080935201E7C283E0FBCF8B
:101810000E9408072E98269A2F98279A0E943F2404
:10182000909351018093500184E0EDCF809150015D
:10183000909151010E945724853F914008F4CDC2F8
:1018400085E0E1CF2E9826982F9827980E949F0731
:101850000E9402070E943F249F938F9386EE94E09C
:101860009F938F930E9459060E943F2490935101A9
:101870008093500186E0809352010F900F900F905B
:101880000F90ABC20E940D07019609F4A6C20E94F8
:101890003F249F938F9381EE94E09F938F930E94B8
:1018A00059060E943F24909351018093500187E094
:1018B000E2CF80915001909151010E945724853FC1
:1018C000914018F089E0809352010E940D07019623
:1018D00009F483C20E943F249F938F938CED94E080
:1018E0009F938F930E9459060E943F249093510129
:1018F0008093500188E0BFCF8091500190915101B9
:101900000E945724853F914018F089E0809352014E
:101910000E940D07019609F460C20E943F249F9324
:101920008F9387ED94E09F938F930E94590689E0EF
:10193000A2CF82EF0E94B4078F3F3FEF930789F059
:101940008A3F910589F40E94DC0A8F3F2FEF9207AE
:1019500071F0D82FCC270E94DC0A9E01282BC901E8
:1019600008C08FEF9FEF05C08EEF9FEF02C080E0B1
:1019700090E090935501809354010E943F249F93DF
:101980008F9382ED94E09F938F930E9459068091EC
:101990005401909155010F900F900F900F90009768
:1019A00011F482E02BC08F3F3FEF930711F481E0E9
:1019B00025C08E3F2FEF9207A1F38F3F910559F479
:1019C0008CEB94E09F938F930E94590610925301E1
:1019D0000F900F901FC09C0125583B4A22303105C3
:1019E00080F480EF0E94B4078A3F9105D1F683E02E
:1019F0000E94B4078A3F9105A1F683E080935301CA
:101A000009C0803B3FEB9307C1F3882781159F4BAB
:101A1000A1F3C7CF80915301813039F0823041F07A
:101A2000833049F08EE191E008C08BE191E005C080
:101A300088E191E002C083E291E09F938F938091CF
:101A400055018F93809154018F938EEA94E09F9378
:101A50008F930E9459068AE0809352010F900F9055
:101A60000F900F900F900F90B8C10E943F249F934A
:101A70008F9389EA94E09F938F930E9459060F9069
:101A80000F900F900F9080915301823029F0833096
:101A900039F488EF0E94B4070E9439170E94130B93
:101AA0008BE0809352010E943F249F938F9384EA9E
:101AB00094E09F938F930E9459060F900F900F9080
:101AC0000F900E940D079C012F3F9FEF390709F4EB
:101AD00084C12115310519F02F3F310569F40E94A9
:101AE0000B0B0E94C1198CE994E09F938F930E9485
:101AF00059060F900F9071C190915301923009F4E3
:101B00004CC0933009F4CBC0913009F066C190917C
:101B10004F01923099F028F4992341F09130C1F0AF
:101B200039C0933061F1943081F134C0803E21F0AE
:101B3000813E51F482E005C081E003C08D31D9F4CB
:101B400083E080934F0149C187FFE3C08F770DC1C8
:101B5000863301F118F48A3229F41CC08A3AD1F094
:101B6000863BC1F087FD03C00E948E0A0BC08F77B1
:101B70000E948E0A0DC08D3969F484E0E2CF85346D
:101B800049F485E50E94030A05C0853C19F485E502
:101B90000E941E0A10924F0120C1E0914E014E2F6B
:101BA00050E04930510508F077C0FA01EF5DFE4F73
:101BB0000C946326803E69F030F4833871F08438E9
:101BC00071F48FE757C0813E31F0803F41F481E0EE
:101BD0005BC082E059C084E057C082E04BC087FF01
:101BE00098C00E940B0B81E894E098C0893509F4F5
:101BF00053C0803F19F0823119F44EC083E044C0D5
:101C000010924E0187FD03C00E943A0A82C00E94D2
:101C10000B0B87E794E082C0833821F0843821F4ED
:101C20008FE738C082E036C010924E0187FF9DC01A
:101C30000E940B0B8DE694E071C010924E01823130
:101C400009F4CBC0893509F4C8C087FD03C00E94E0
:101C50003A0A8BC00E940B0B80E694E05FC084318F
:101C600021F0803FC9F486E00FC085E00DC08737C2
:101C700099F480E00E94030A0FC0843169F487E080
:101C800003C0803F49F488E080934E01A6C08737A7
:101C900019F480E00E941E0A10924E019EC090919D
:101CA0004D01913009F443C038F0923009F463C01B
:101CB000933009F47FC091C0863809F168F4833805
:101CC000D1F020F4803819F582E06CC08438A9F096
:101CD0008538E9F48BE01DC08C38A9F030F48738E2
:101CE00081F08B38A1F481E014C08D3871F0803F11
:101CF00071F481E057C082E00CC08FE70AC086E033
:101D000008C080E006C089E004C08AE002C087FD08
:101D100003C00E94030A61C083E594E09F938F9300
:101D20000E9459060F900F901092520156C0482FF2
:101D300050E0FA01E358F109EB30F10590F4E65D6B
:101D4000FE4F0C94632682E045C08FE743C08BE0D2
:101D500041C086E03FC081E03DC089E03BC08AE0F1
:101D600039C010924D0187FD03C00E941E0A35C084
:101D700089E494E0D3CF853279F030F4863171F084
:101D80008E3199F480E00BC0863221F0803F69F4F7
:101D900083E008C08DE503C083E501C081E50E94B2
:101DA000030A05C080934D0118C00E940B0B1092CE
:101DB0004D0113C08E3169F020F48631B1F781E511
:101DC00009C0853221F0863281F78DE503C083E5B5
:101DD00001C080E00E941E0AEACF81E0DF91CF912E
:101DE000089580918B0208950895CF93DF9300D0DA
:101DF0001F92CDB7DEB720919103243021F523E067
:101E000029839B838A8382E08093E9008FEF9091FE
:101E1000E800815095FD06C095ED9A95F1F7000018
:101E20008111F5CF8091E80085FF0DC040E050E0C2
:101E300063E070E0CE0101960E9461138091E8009A
:101E40008E778093E8000F900F900F90DF91CF91E5
:101E50000895CF93DF9300D01F92CDB7DEB72091C6
:101E60009103243029F522E02983805891099B832E
:101E70008A832093E9008FEF9091E800815095FDCF
:101E800006C095ED9A95F1F700008111F5CF80918C
:101E9000E80085FF0DC040E050E063E070E0CE0157
:101EA00001960E9461138091E8008E778093E8008C
:101EB0000F900F900F90DF91CF910895CF93DF9304
:101EC000EC0190919103943009F048C08091140185
:101ED0008823D9F0809115018823B9F09093E90007
:101EE00081E8815049F09091E80095FD05C09AE2A3
:101EF0009A95F1F700C0F5CF8091E80085FF2EC0DC
:101F000040E050E060E270E019C081E08093E900B9
:101F100081E8815059F09091E80095FD07C0EFE30A
:101F2000F1E03197F1F700C00000F3CF8091E800B5
:101F300085FF14C040E050E068E070E0CE010E94F0
:101F400061138091E8008E778093E80080E2FE01C3
:101F5000ABE6B2E001900D928A95E1F7DF91CF9167
:101F60000895CF93C0916901C1110BC00E944B2409
:101F7000643C79408105910520F081E080936901FE
:101F8000C1E08C2FCF910895FF920F931F93CF93B1
:101F9000DF93D82F0FB607FE83C080919103843062
:101FA00081F08091070190E001962091090130E0D5
:101FB000822393232091080130E08217930709F0D0
:101FC000CBC00E94B10F811110C08091070190E039
:101FD00001962091090130E082239323209108018A
:101FE00030E08217930709F0B7C00E943F248C01AC
:101FF000C091E900CF709091EC00892F817090FD25
:1020000080E8C82B83E08093E90085E0F82E80917A
:10201000EB0085FD42C08091EB0080FF3EC08091C7
:10202000EE0087FF3AC08091080190910701981750
:1020300009F457C09091E80095FF8CC0E09105012C
:10204000F0910601E80FF11D20818F5F9091090149
:102050008923809308012093F1008091E80085FD99
:10206000E2CF8091E80080FFDECF8091E8008E779C
:102070008093E800F0920401D6CF8091070190E0B0
:1020800001962091090130E08223932320910801D9
:1020900030E08217930709F44AC0CF70C093E9007B
:1020A00040910701842F90E001962091090130E0D2
:1020B000822393232091080130E08217930709F4CB
:1020C0004EC0E0910501F0910601E40FF11DD083AF
:1020D000809107018F5F9091090189238093070107
:1020E0003EC08091E80085FF35C0D093F10081E0CB
:1020F0002091F2003091F300232B91F09091E800B1
:1021000090FF0EC09091E80095FF03C01092F1007F
:10211000F9CF9091E8009E779093E800F092040147
:10212000882309F4AACFCF70C093E90018C080912A
:102130000401882309F4B1CF0E943F249C01801739
:10214000910711F4890163CF90910401915090930C
:102150000401F8CF80E0CCCF40910701B2CF80E0FE
:10216000DF91CF911F910F91FF900895809190037F
:10217000811104C00E94C9150C942B160895109269
:1021800090030895089542E061EC81E00E94DA1224
:1021900042E061EC82E00E94DA1242E261EC83E00C
:1021A0000E94DA1242E261EC84E00C94DA1280912F
:1021B0009303833009F455C030F4813071F08230DC
:1021C00009F48EC008958A3009F47AC08B3009F47E
:1021D00060C0893009F09CC020C080919203813A90
:1021E00009F096C08091E800877F8093E800809195
:1021F000960390919703892B21F460E28BE692E09D
:1022000003C060E080E090E070E00E94AE13809137
:10221000E8008B778093E8000895809192038132E3
:1022200009F076C08091960390919703009719F07A
:10223000039709F06DC08091E800877F8093E800E4
:102240008091E80082FD05C0809191038111F8CF53
:102250005FC08091F10080938B028091E8008B77C2
:1022600053C080919203813A09F052C08091960345
:1022700090919703892B09F04BC08091E800877FEC
:102280008093E8008091E80080FFFCCF80911401EA
:1022900036C0809192038132D9F580919603909156
:1022A0009703892BA9F58091E800877F8093E80048
:1022B0000E940F1380919403809314010C94C11910
:1022C00080919203813221F58091E800877F80938D
:1022D000E8000E940F138091950380938C0208956B
:1022E00080919203813AA1F48091E800877F8093E6
:1022F000E8008091E80080FFFCCF80918C02809301
:10230000F1008091E8008E778093E8000C940F1321
:10231000089580918B0280936A0110928B020E9433
:102320000B0B0C94C1190C9489110E94EC23809121
:102330008F03882329F00E94F92381110C94C41281
:1023400008950E940D2480916A0180938B02089564
:102350000C94A11108950C94AA11CF9384B7877F90
:1023600084BF0FB6F894A89580916000886180932F
:102370006000109260000FBE90E080E80FB6F89405
:1023800080936100909361000FBE84EC9FE00E94F7
:10239000BF238AE091E00E94341785E595E00E9412
:1023A000C0050E94F40A0E94E8170E94C9150E9405
:1023B0002B1678940E94EA1780919103843029F0BB
:1023C0000E9419170E94AA11F7CF83E495E00E949A
:1023D000C0050E94AB1181E395E00E94C005C3E0F7
:1023E00080919103853019F40E949511F9CF0E94D4
:1023F000EE172091E4003091E50080916701909103
:1024000068012817390709F466C08091E4009091AB
:10241000E50090936801809367010E94B10F8823C3
:1024200009F459C080919103843009F054C080911F
:10243000E9008F702091EC00922F917020FD90E8C0
:10244000892BC093E9009091EB0090FF41C09091DF
:10245000EE0097FF3DC090910801209107012917D8
:1024600009F12091E80025FF1DC0E0910501F091E0
:102470000601E90FF11D30819F5F20910901922330
:10248000909308013093F1009091E80095FDE3CF1F
:102490009091E80090FFDFCF9091E8009E779093B5
:1024A000E800D9CF2091F2003091F300232B81F086
:1024B0009091E80090FF0CC09091E80095FF03C058
:1024C0001092F100F9CF9091E8009E779093E80088
:1024D0008F708093E9000E94191782CF292F33272C
:1024E00023303105C9F060F42130310581F022300C
:1024F000310509F041C084E790E025EB35E040C0AC
:1025000021323105E1F02232310531F135C082E16D
:1025100090E029E236E034C099278130910549F0F6
:1025200028F0029749F5EBE6F5E005C0E1EBF5E0B0
:1025300002C0E1EAF5E0849190E09F0121C064309F
:102540007105D0F4660F771FFB01E85CFE4F208118
:10255000318189E090E014C06430710568F4FB01BA
:10256000EE0FFF1FE05DFE4F20813181FB01E45D36
:10257000FE4F808190E004C080E090E020E030E0F9
:10258000FA0131832083089584E189BD86E189BD04
:1025900009B400FEFDCF8091D8008F7D8093D800D4
:1025A0008091E00082608093E0008091E00081FDF6
:1025B000FCCF0895982F973068F59093E90098170D
:1025C00039F07091EC002091ED005091F00003C0C3
:1025D000242F762F50E021FD02C09F5FECCF309179
:1025E000EB003E7F3093EB003091ED003D7F309368
:1025F000ED003091EB0031603093EB007093EC0014
:102600002093ED005093F0002091EE0027FDE5CFE0
:1026100080E008958F708093E90081E008958091B3
:10262000920387FF11C08091E80082FD05C0809170
:1026300091038111F8CF11C08091E8008B770BC016
:1026400080919103882349F08091E80080FFF8CFC2
:102650008091E8008E778093E80008952091E4004F
:102660003091E50095E64091EC00842F817040FFA9
:1026700023C08091E80080FD1DC0809191038823D4
:1026800099F0853099F08091EB0085FD11C0409163
:10269000E4005091E5002417350729F3915011F01B
:1026A0009A01E1CF84E0089582E0089583E00895DF
:1026B00081E0089580E008954091E80042FFDDCF79
:1026C0000895CF92DF92EF92FF920F931F93CF93D3
:1026D000DF93EC018B017A010E942E13811135C02A
:1026E000E114F10439F0F70180819181081B190B85
:1026F000C80FD91FC12CD12C0115110529F18091CA
:10270000E80085FD18C08091E8008E778093E8008E
:102710000E941917E114F10449F0F70180819181B9
:10272000C80ED91ED182C08285E00FC00E942E1330
:10273000882311F30AC089918093F1000150110997
:10274000FFEFCF1ADF0AD8CF80E0DF91CF911F9142
:102750000F91FF90EF90DF90CF9008952091980314
:10276000309199032617370748F06115710539F440
:102770002091E8002E772093E80001C0B901FC0108
:1027800020E06115710569F1809191038823E1F1E1
:102790008530E1F18091E80083FD3AC08091E80046
:1027A00082FD2CC08091E80080FFEBCF8091F20089
:1027B0009091F3006115710551F08830910538F45E
:1027C00021912093F100615071090196F3CF21E02E
:1027D000089709F020E08091E8008E778093E80068
:1027E000D0CF2111D1CF0AC080919103882361F00D
:1027F000853061F08091E80083FD0AC08091E80097
:1028000082FFF2CF80E0089582E0089583E008958A
:1028100081E0089520919803309199032617370796
:1028200048F06115710539F42091E8002E77209366
:10283000E80001C0B901FC0120E06115710581F1DA
:1028400080919103882309F43EC0853009F43DC08E
:102850008091E80083FD3BC08091E80082FD2DC09F
:102860008091E80080FFE9CF8091F2009091F30021
:102870006115710559F08830910540F42491209339
:10288000F1003196615071090196F2CF21E008976D
:1028900009F020E08091E8008E778093E800CDCFAA
:1028A0002111CECF0AC080919103882361F0853039
:1028B00061F08091E80083FD0AC08091E80082FF0A
:1028C000F2CF80E0089582E0089583E0089581E0EA
:1028D00008951F93CF93DF93CDB7DEB7AA970FB6B6
:1028E000F894DEBF0FBECDBFE2E9F3E08091F100C6
:1028F000819323E0EA39F207C9F70E94D71080914B
:10290000E80083FF2EC18091920390919303492F99
:1029100050E04A30510508F024C1FA01EB5CFE4F4B
:102920000C946326803821F0823809F01AC108C05F
:1029300080918E0390918F03992389F082600FC05C
:10294000809196038F70873008F00BC18093E90067
:102950008091EB0085FB882780F91092E900909127
:10296000E800977F9093E8008093F1001092F100C7
:10297000D1C0282F2D7F09F0F4C0882319F08230B0
:1029800061F0EFC080919403813009F0EAC0933088
:1029900009F080E080938F032EC080919403811111
:1029A0002AC0809196038F702FEF280F263008F0F1
:1029B000D8C08093E9002091EB0020FF1CC0933029
:1029C00021F48091EB00806214C09091EB00906143
:1029D0009093EB0021E030E0A90102C0440F551FA5
:1029E0008A95E2F74093EA001092EA008091EB00AA
:1029F00088608093EB001092E9008091E800877F67
:102A00008093E8000E940F13ACC08111AAC01091FE
:102A100094031F778091E3008078812B8093E300FB
:102A20008091E800877F8093E8000E940F138091D7
:102A3000E80080FFFCCF8091E30080688093E30092
:102A4000111102C082E001C083E08093910389C02C
:102A50008058823008F085C080919403909195034E
:102A60008C3D53E0950779F583E08A838AE2898378
:102A70004FB7F894DE01139620E03EE051E2E32FD9
:102A8000F0E050935700E49120FF03C0E295EF700F
:102A90003F5FEF708E2F90E0EA3010F0C79601C0D4
:102AA000C0968D939D932F5F243149F74FBF80913E
:102AB000E800877F8093E8006AE270E0CE0101962B
:102AC0000E94AE1316C06091960370919703AE01F9
:102AD0004F5F5F4F0E946E12BC01892B09F441C009
:102AE0009091E800977F9093E80089819A810E94F5
:102AF0000A148091E8008B778093E80032C0803818
:102B000081F58091E800877F8093E80080918D03B4
:102B10008093F1008091E8008E7772CF811121C0FF
:102B2000809194039091950399270297D4F4809112
:102B3000E800877F8093E8008091940380938D0361
:102B40000E940F1380918D03811106C08091E300D4
:102B500087FD02C081E001C084E0809391030E9460
:102B6000C3108091E80083FF0AC08091E800877F4E
:102B70008093E8008091EB0080628093EB00AA963E
:102B80000FB6F894DEBF0FBECDBFDF91CF911F917E
:102B900008950E943A160E944216E0EEF0E080810D
:102BA00081608083E8EDF0E080818F77808319BCBD
:102BB000A7EDB0E08C918E7F8C9380818F7E808397
:102BC0001092900308950F931F93CF93DF930E9469
:102BD0003A160E944216C8EDD0E088818F7788832C
:102BE00088818068888388818F7D8883E7EDF0E025
:102BF00080818068808319BC1092910310928D03AC
:102C000010928F0310928E0300EE10E0F801808185
:102C10008B7F808388818160888342E060E080E0F0
:102C20000E94DA12E1EEF0E080818E7F8083E2EE96
:102C3000F0E0808181608083808188608083F801FA
:102C400080818E7F8083888180618883DF91CF91AE
:102C50001F910F910895E8EDF0E080818F7E8083D1
:102C6000E7EDF0E080818160808381E080939003D4
:102C70000C94E315E8EDF0E080818C7F8083109266
:102C8000E20008951092DA001092E10008951F9278
:102C90000F920FB60F9211240BB60F922F933F9302
:102CA0004F935F936F937F938F939F93AF93BF9354
:102CB000EF93FF938091E10082FF0BC08091E200CF
:102CC00082FF07C08091E1008B7F8093E1000E942A
:102CD00018178091DA0080FF1FC08091D80080FF14
:102CE0001BC08091DA008E7F8093DA008091D9003A
:102CF00080FF0DC084E189BD86E189BD09B400FE75
:102D0000FDCF81E0809391030E94B61005C019BCED
:102D1000109291030E94BF108091E10080FF19C0C2
:102D20008091E20080FF15C08091E2008E7F809349
:102D3000E2008091E20080618093E2008091D800FF
:102D400080628093D80019BC85E0809391030E9433
:102D500093118091E10084FF30C08091E20084FFF4
:102D60002CC084E189BD86E189BD09B400FEFDCF98
:102D70008091D8008F7D8093D8008091E1008F7E74
:102D80008093E1008091E2008F7E8093E200809149
:102D9000E20081608093E20080918D03882311F02E
:102DA00084E007C08091E30087FD02C081E001C09C
:102DB00083E0809391030E94A8118091E10083FF3A
:102DC00024C08091E20083FF20C08091E100877FD2
:102DD0008093E10082E08093910310928D038091B3
:102DE000E1008E7F8093E1008091E2008E7F8093EE
:102DF000E2008091E20080618093E20042E060E0C6
:102E000080E00E94DA120E94C210FF91EF91BF9100
:102E1000AF919F918F917F916F915F914F913F9172
:102E20002F910F900BBE0F900FBE0F901F90189513
:102E30000895CF93809191038823A1F0C091E90078
:102E4000CF709091EC00892F817090FD80E8C82BA5
:102E50001092E9008091E80083FD0E946914CF7010
:102E6000C093E900CF9108959093920280939102CC
:102E70000895E0919102F0919202309721F0019033
:102E8000F081E02D099480E00895EF92FF920F9376
:102E90001F93CF93DF93E0919102F09192023097CC
:102EA000B1F18C010280F381E02D099580918703B7
:102EB00082FF2DC080FF04C082E397E00E94C0051E
:102EC000E80110E28CE2E82E87E0F82E809187037B
:102ED00080FF0BC088811F928F93FF92EF920E9418
:102EE00059060F900F900F900F90115021961111CD
:102EF000EDCF8091870380FF0AC08AE297E0DF91DF
:102F0000CF911F910F91FF90EF900C94C005DF912E
:102F1000CF911F910F91FF90EF900895CF93DF9382
:102F200020918F02309190022817390709F1909370
:102F3000900280938F02E0919102F091920230977B
:102F4000B9F0EC010680F781E02D099580918703A7
:102F500082FF0EC080FF0CC0DF93CF938CE197E01F
:102F60009F938F930E9459060F900F900F900F9090
:102F7000DF91CF910895CF93DF9320918D0230910F
:102F80008E022817390709F190938E0280938D02E3
:102F9000E0919102F09192023097B9F0EC01008437
:102FA000F185E02D09958091870382FF0EC080FF97
:102FB0000CC0DF93CF938CE097E09F938F930E9498
:102FC00059060F900F900F900F90DF91CF910895B9
:102FD0000C9491180E9436240C94F80ABF92CF9258
:102FE000DF92EF92FF920F931F93CF93DF9300D066
:102FF00000D01F92CDB7DEB70E94220B04E912E089
:10300000F12C8F2D0E94050BB82EF801C080C82628
:1030100039F4F3940F5F1F4FF0E1FF12F2CF30C08D
:103020008091870381FD0E949218D12CEE24E394B5
:103030008C2D8E21F9F0D982FA8291E08B2D8E2190
:1030400009F490E09B830E943F248160782F9D8348
:103050008C8349815A816B818D810E94C818498176
:103060005A816B817C818D810E94D723F8018081F8
:103070008E258083D394EE0CF8E0DF12D9CFC9CF30
:103080008FEF89838A831B820E943F248160782F7F
:103090009D838C8349815A816B818D810E94C818E0
:1030A0000E94D6230E94391790919302891741F10B
:1030B0000E943917809393029091870392FF0EC06C
:1030C00090FF0CC01F928F938DE397E09F938F9397
:1030D0000E9459060F900F900F900F9080919302CD
:1030E0000F900F900F900F900F90DF91CF911F9145
:1030F0000F91FF90EF90DF90CF90BF900C94E8235A
:103100000F900F900F900F900F90DF91CF911F9124
:103110000F91FF90EF90DF90CF90BF9008950C94A7
:10312000130B0895EF92FF920F931F93CF93DF93AA
:1031300083E597E00E94C005C0E0D0E082E2E82E7F
:1031400081E0F82E08E417E08C2F0E94050B0E9406
:10315000C423FF92EF921F928F93DF93CF931F931D
:103160000F930E94590621968DB79EB708960FB609
:10317000F8949EBF0FBE8DBFC031D10529F7DF91F6
:10318000CF911F910F91FF90EF90089508950895AA
:10319000CF93DF93CDB7DEB72B970FB6F894DEBF92
:1031A0000FBECDBF942F4F83252F588769877A870D
:1031B0008B874A855B85452B31F02F3F31F481E0C9
:1031C0009F3F19F403C081E001C080E080FD07C08B
:1031D0004F81588569857A858B850E94D723DE01CA
:1031E000119686E0FD0111928A95E9F785E0FE01CE
:1031F000379601900D928A95E1F749815A816B814A
:103200007C818D819E810E94D21F2B960FB6F894EF
:10321000DEBF0FBECDBFDF91CF910895CF9388233E
:1032200009F465C0C82F8CEF8C0F813A20F080E53F
:103230008C0F8E3248F48C2F0E941026811157C0BB
:103240008C2F0E94BA220CC080E28C0F883058F478
:10325000C77081E001C0880FCA95EAF70E945F231A
:10326000CF910C9499238BE58C0F833078F4C53A79
:1032700029F0C63A31F083E890E005C081E890E09B
:1032800002C082E890E0CF910C948E1788E58C0FF5
:10329000873168F5C83A89F0C93A91F0CA3A99F08D
:1032A000CB3AA1F0CC3AA9F0CD3AB1F0CE3AB9F090
:1032B000CF3AC1F080E090E017C082EE90E014C0F9
:1032C00089EE90E011C08AEE90E00EC085EB90E0B0
:1032D0000BC086EB90E008C083EB90E005C084EB68
:1032E00090E002C087EB90E0CF910C94BB17CF9198
:1032F0000895882349F19CEF980F913A20F090E5CA
:10330000980F9E3218F40E940A230DC090E2980F85
:10331000983058F4877091E001C0990F8A95EAF7C8
:10332000892F0E9465230C9499239BE5980F933075
:1033300020F480E090E00C948E17885A873120F4B6
:1033400080E090E00C94BB170895882321F00E9440
:103350005F230C9499230895882321F00E9465230C
:103360000C94992308950E947F230E944E230E946B
:10337000992380E090E00E948E1780E090E00C940A
:10338000BB170E946F230C94B319CF92DF92EF9278
:10339000FF920F931F93CF93DF9300D000D01F9223
:1033A000CDB7DEB76C010E94EA23811101C385E02D
:1033B000F601DE01119601900D928A95E1F7F60172
:1033C00040815181238134812115310531F05F3FE6
:1033D00031F481E04F3F19F403C081E001C080E087
:1033E00080FDE6C2F601F280E580E2948FE0E822FB
:1033F00049835A83FB82722F3D832C836F2D8D81ED
:103400000E9436228C010E9435220E942521E12F44
:10341000E295EF708E2F90E0FC01E15CFE4F0C9482
:103420006326812F807F1F70882311F01295107FF3
:10343000FF20B9F0112329F0812F0E9472230E94EE
:103440009923802F0F900F900F900F900F90DF9186
:10345000CF911F910F91FF90EF90DF90CF900C9440
:103460000E19802F0E947919112309F4A1C2812F0E
:103470000E9478230F900F900F900F900F90DF9184
:10348000CF911F910F91FF90EF90DF90CF900C9410
:103490009923812F807F1F70803211F01295107F49
:1034A000002319F0013009F12BC0FF20A9F0EE2014
:1034B00059F1F1E0812FEF1228C00F900F900F907B
:1034C0000F900F90DF91CF911F910F91FF90EF9090
:1034D000DF90CF900C948223EE2021F021E0E216C1
:1034E00009F466C20E9485234DC0FF20E9F085E003
:1034F0008E1508F45DC20E945C23812329F042C02E
:10350000FF20F1F1E11015C0812F0F900F900F9067
:103510000F900F90DF91CF911F910F91FF90EF903F
:10352000DF90CF900C94A51994E09E1508F440C24A
:1035300029C0F601858180FF13C08F708583E4CF99
:10354000003F09F472C108F03EC180E4800F803270
:1035500008F442C1FF2009F4D3C1EE2009F483C16D
:10356000802F0E940E19093309F0C3C1FFEF21EE2D
:1035700084E0F15020408040E1F700C0000018C214
:10358000E110C0C1812F42C1812F8695869583703D
:1035900019F08130B9F00CC2FF2019F0C801937006
:1035A00002C080E090E00F900F900F900F900F906E
:1035B000DF91CF911F910F91FF90EF90DF90CF900F
:1035C0000C948E17FF2019F0C801937002C080E0A0
:1035D00090E00F900F900F900F900F90DF91CF9190
:1035E0001F910F91FF90EF90DF90CF900C94BB173D
:1035F000812F837009F070C0F110DAC1202F22955D
:1036000026952770220F220F602F6F70862F90E073
:10361000A0E0B0E06C017D01022E04C0CC0CDD1CEA
:10362000EE1CFF1C0A94D2F704FF12C08FE090E05A
:10363000A0E0B0E004C0880F991FAA1FBB1F2A9505
:10364000D2F7BC01CD01609570958095909503C02F
:1036500060E070E0CB011695169513701230B1F052
:1036600040F56C297D298E299F29113031F10F9069
:103670000F900F900F900F90DF91CF911F910F91AE
:10368000FF90EF90DF90CF900C944A216C297D2918
:103690008E299F290F900F900F900F900F90DF9120
:1036A000CF911F910F91FF90EF90DF90CF900C94EE
:1036B00064210E944A21C701B6010F900F900F901C
:1036C0000F900F90DF91CF911F910F91FF90EF908E
:1036D000DF90CF900C943021FF2019F0812F817062
:1036E00001C08695882309F463C1202F2295269571
:1036F0002770220F220F602F6F70862F90E0A0E0BE
:10370000B0E06C017D01022E04C0CC0CDD1CEE1C6F
:10371000FF1C0A94D2F704FF12C08FE090E0A0E0F3
:10372000B0E004C0880F991FAA1FBB1F2A95D2F7CB
:10373000BC01CD01609570958095909503C060E0C7
:1037400070E0CB011695169513701230B1F040F56C
:103750006C297D298E299F29113031F10F900F900E
:103760000F900F900F90DF91CF911F910F91FF90CD
:10377000EF90DF90CF900C9411226C297D298E2937
:103780009F290F900F900F900F900F90DF91CF9186
:103790001F910F91FF90EF90DF90CF900C94232218
:1037A0000E941122C701B6010F900F900F900F9049
:1037B0000F90DF91CF911F910F91FF90EF90DF90CD
:1037C000CF900C94FF21023F09F45EC008F449C079
:1037D000033F09F46CC0BECE902F9071E92E812F6B
:1037E0008F71FF2051F00E949821802FEE2019F058
:1037F0008295807F8ACE8F7088CE0E94B921802FDB
:10380000EE2019F08295807F01C08F700F900F908D
:103810000F900F900F90DF91CF911F910F91FF901C
:10382000EF90DF90CF900C94AC19FF20A9F0E4E06A
:10383000EE1508F4BDC0812F8F710F900F900F907F
:103840000F900F90DF91CF911F910F91FF90EF900C
:10385000DF90CF900C94DE21F5E0FE1508F4A8C0AF
:10386000EACFFF2099F0812F8F710F900F900F906A
:103870000F900F90DF91CF911F910F91FF90EF90DC
:10388000DF90CF900C949821FF2069F3812F8F71E6
:103890000F900F900F900F900F90DF91CF911F918D
:1038A0000F91FF90EF90DF90CF900C94B921FF2003
:1038B00089F0812F8F710F900F900F900F900F90C4
:1038C000DF91CF911F910F91FF90EF90DF90CF90FC
:1038D0000C9483210F900F900F900F900F90DF9119
:1038E000CF911F910F91FF90EF90DF90CF900C94AC
:1038F0007E21033509F43ACE073409F059C036CE9B
:10390000EE2021F2802F0F900F900F900F900F90CC
:10391000DF91CF911F910F91FF90EF90DF90CF90AB
:103920000C947919412F4F70602FC6010E94AB246F
:103930000F900F900F900F900F90DF91CF911F91EC
:103940000F91FF90EF90DF90CF900C9480200111A9
:103950002FC0FF2069F10E94C1192FEF80E792E08C
:10396000215080409040E1F700C000000F900F9080
:103970000F900F900F90DF91CF911F910F91FF90BB
:10398000EF90DF90CF900C948C24412F4F70602FDC
:10399000C6010F900F900F900F900F90DF91CF9175
:1039A0001F910F91FF90EF90DF90CF900C94AE2479
:1039B0000F900F900F900F900F90DF91CF911F916C
:1039C0000F91FF90EF90DF90CF9008951F93CF93CA
:1039D000DF9300D000D01F92CDB7DEB7942F49837C
:1039E000252F5A836B837C838D834C815D81452B8E
:1039F00031F02F3F31F481E09F3F19F403C081E0A3
:103A000001C080E0182F117080FD31C049815A81BA
:103A10006B817C818D810E943622292F22952F7007
:103A20002C3030F42A30A0F42250223030F022C062
:103A30002C30C9F02F30B9F01DC0853A28F48430FD
:103A4000C0F4823028F415C090E2980F983088F0C6
:103A5000883E30F4803E68F48450813A58F409C0BE
:103A6000803F41F406C093FB112710F903C010E01A
:103A700001C011E0812F0F900F900F900F900F90C9
:103A8000DF91CF911F910895CF93DF9300D000D0A5
:103A90001F92CDB7DEB70F900F900F900F900F9041
:103AA000DF91CF910895CF93DF9300D000D000D065
:103AB000CDB7DEB726960FB6F894DEBF0FBECDBFEA
:103AC000DF91CF9108951F93CF93DF93C091A4020C
:103AD00016E08091A502C81799F0D0E01C9FF00174
:103AE0001D9FF00D1124EA55FD4F408151816281E7
:103AF0007381848195810E94531D2196C770E9CFFF
:103B0000DF91CF911F9108954091D6025091D70235
:103B10006091D8027091D9028091DA029091DB0213
:103B20000C94531D0F931F93CF93DF938091DB026F
:103B300082958F7009F05DC08091D802882309F4C6
:103B400058C08091A4021091A5026091D602709194
:103B5000D702C091D902D091DA0291E06F3F09F00B
:103B600090E0292F06E0811709F443C0209721F047
:103B70007F3F21F030E003C031E001C0322F90E000
:103B800030FD34C0089FF001099FF00D1124DF01C2
:103B9000AA55BD4F11963C911197371327C03C9100
:103BA000361324C012963C91129731111FC0139600
:103BB0004D915C9114974C1B5D0B483C5105B0F442
:103BC0008091DB028F7080618093DB02E555FD4FB1
:103BD00080818F708061808386ED92E00E94C5199C
:103BE000DF91CF911F910F910C94631D0196877007
:103BF000BACFDF91CF911F910F9108959F92AF920D
:103C0000BF92CF92DF92EF92FF920F931F93CF93C9
:103C1000DF93CDB7DEB761970FB6F894DEBF0FBE66
:103C2000CDBF8C0185E0F801DE011D9601900D925B
:103C30008A95E1F7F80140815181F280C380D480F8
:103C40009091D6026091D7022091D9023091DA0288
:103C50002115310531F06F3F31F481E09F3F19F4B8
:103C600003C081E001C080E0F82FF1709F2E80FD3D
:103C700052C186EDA82E82E0B82EE090D802F6015F
:103C8000E21BF30BEE2009F4E8C08091DB02E83C74
:103C9000F10508F0A4C0282F207F09F053C0561367
:103CA00013C0491311C0EF2CF1100EC08F7080614A
:103CB0008093DB020E94841DC5010E94C51980917A
:103CC000DB02F80185835BC1C114D10431F05F3F91
:103CD00031F481E04F3F19F403C081E001C080E07E
:103CE00080FD03C081E08F2502C080E090E0F82FC6
:103CF000F170EF2E80FF1CC08091A4022091A502DC
:103D000036E0821709F418C190E0389FF001399F1E
:103D1000F00D1124EA55FD4F6181561306C06081F4
:103D2000461303C06281F61203C001968770E9CF83
:103D3000EF2CFF2009F423C18091DB028160809386
:103D4000DB0262C0561306C0491304C0F11002C062
:103D5000F801A7C04D875E87FF867C2DD98AC88A67
:103D60006F2D89890E94E61C882399F1FF2089F133
:103D70002091DB02822F82958F7090E0029774F081
:103D80008091D6029091D70298878F831986DB861F
:103D9000CA862C87CE0107960E94C51986E0F801D5
:103DA000A6EDB2E001900D928A95E1F70E94921D76
:103DB0000E94841D11C0561749F14D875E87FF860A
:103DC0007C2DD98AC88A6F2D89890E94E61C8111B1
:103DD0002CC0C8010E94C519EE24E394D0C0282F3E
:103DE000207F49F77C2DD98AC88A6F2D89890E9446
:103DF000441D86ED92E00E94C51986E0F5011192FE
:103E00008A95E9F70E94841DE12CB9C04913D5CFEA
:103E1000F110D3CFF8018583C8010E94C51986E04F
:103E2000F50111928A95E9F7AAC0FF2091F220913D
:103E3000DB02822F82958F7090E002970CF4AECF58
:103E40008091D6029091D7029A8389831B82DD826A
:103E5000CC822E83CE0101969FCFE83CF10508F07D
:103E60004BC0EF2CFF2009F4B4CF561330C04913D8
:103E70002EC02091DB0220FD21C0822F82958F7001
:103E8000482F50E041155105C9F0F80125834F3006
:103E9000510541F08F5F982F9295907F822F8F7000
:103EA000892B8583C8010E94C51986E0F801A6ED1B
:103EB000B2E001900D928A95E1F72AC086E0F80100
:103EC000A6EDB2E001900D928A95E1F758C04D87BA
:103ED0005E87FF867C2DD98AC88A6F2D89890E94CA
:103EE000E61C81115BCF8091DB0281608093DB0255
:103EF000C8010E94C51943C07C2DD98AC88A6F2D7C
:103F000089890E94441D86E0F50111928A95E9F79E
:103F10000E94841D34C0FF2009F45BCF4D875E876B
:103F2000FF867C2DD98AC88A6F2D89890E94E61C5C
:103F3000882309F44ECF32CF7C2DD98AC88A6F2DC1
:103F400089890E943622292F22952F70223028F449
:103F50009F7039F0811105C00BC0243028F49F7088
:103F600049F4805E883020F0C8010E94C5199E2C5B
:103F7000E92C05C0F8019581907F99F7F9CF8E2D36
:103F800061960FB6F894DEBF0FBECDBFDF91CF9123
:103F90001F910F91FF90EF90DF90CF90BF90AF9067
:103FA0009F9008951F93CF93DF93CDB7DEB72C97E3
:103FB0000FB6F894DEBF0FBECDBF4F835887698719
:103FC0007A878B879C87CE0107960E94FE1D8823E7
:103FD000D1F09F8188852A853B85232B31F08F3F47
:103FE00031F481E09F3F19F403C081E001C080E01B
:103FF00080FD47C04F81588569857A858B859C8572
:104000000E94531D3EC086E0FE013796DE011196E8
:1040100001900D928A95E1F7FF81E8856A857B859D
:104020006115710531F0EF3F31F481E0FF3F19F484
:1040300003C081E001C080E080FD23C02091A50283
:1040400030E0C9010196877099274091A40250E0A1
:1040500084179507F1F1F983EA837D836C8396E0F9
:10406000929FD001939FB00D1124AA55BD4FFE0120
:10407000319601900D929A95E1F78093A5020E94E6
:10408000631D16E08091A4029091A502891771F139
:10409000189FC00111248A559D4F0E94FE1D882340
:1040A00029F1E091A4021E9FF0011124EA55FD4F71
:1040B0004081518162817381848195810E94531D69
:1040C0008091A40290E00196877099278093A402C2
:1040D000D9CF0E94C1191092A5021092A402E6ED58
:1040E000F2E086E0DF011D928A95E9F72C960FB683
:1040F000F894DEBF0FBECDBFDF91CF911F91089521
:10410000DF92EF92FF920F931F93CF93DF93FC0107
:10411000892B09F488C0E12CF12CDD24D394EF0124
:1041200021968491853709F460C058F4843708F0EB
:104130004EC0843008F068C08130D1F0823071F117
:1041400072C0883709F45BC050F4863709F453C055
:10415000873709F068C08E2D0E946C2352C09CE7FF
:10416000980F903708F05FC08F770E9479194EC082
:104170008F010E5F1F4FFE01849190E2980F9830DF
:1041800050F48770FD2D01C0FF0F8A95EAF78F2F3D
:104190000E94722315C00E940E1914C08F010E5F79
:1041A0001F4FFE01849190E2980F983068F4877059
:1041B000FD2D01C0FF0F8A95EAF78F2F0E9478230B
:1041C0000E949923E80122C00E947919FBCFCF01F8
:1041D0000296FE01C491CC2361F0EFE9FFE0319734
:1041E000F1F700C00000C150F6CFCF010296FE01EA
:1041F000F490EC010BC00E945C23E82E07C00E94E3
:104200006F230E94992302C00E940E198F2D8823CC
:1042100041F0EFE9FFE03197F1F700C00000815075
:10422000F6CFFE017CCFDF91CF911F910F91FF90D0
:10423000EF90DF90089560935C0370935D0380932B
:104240005E0390935F030C94E723089560936003EB
:104250007093610380936203909363030C94E6234D
:104260000F931F93009160031091610320916203EB
:1042700030916303602B712B822B932B609360032F
:104280007093610380936203909363031F910F9176
:104290000C94E6230F931F93009160031091610328
:1042A000209162033091630360237123822393235F
:1042B0006093600370936103809362039093630340
:1042C0001F910F910C94E6230F931F9300916003AD
:1042D000109161032091620330916303602771277D
:1042E0008227932760936003709361038093620336
:1042F000909363031F910F910C94E62360E070E0AC
:10430000CB010C941B210F931F9341E050E060E020
:1043100070E08A019B0104C0000F111F221F331F90
:104320008A95D2F7C901B8011F910F910C941B21F6
:104330000F931F9341E050E060E070E004C0440F31
:10434000551F661F771F8A95D2F780915C03909165
:104350005D03A0915E03B0915F038A019B01082B6E
:10436000192B2A2B3B2BC901B8011F910F910C94DB
:104370001B210F931F9341E050E060E070E004C008
:10438000440F551F661F771F8A95D2F740955095A9
:104390006095709580915C0390915D03A0915E03A0
:1043A000B0915F038A019B01082319232A233B2331
:1043B000C901B8011F910F910C941B210F931F93FA
:1043C00041E050E060E070E004C0440F551F661FFC
:1043D000771F8A95D2F780915C0390915D03A0913D
:1043E0005E03B0915F038A019B01082719272A27E2
:1043F0003B27C901B8011F910F910C941B210F930A
:104400001F9300915C0310915D0320915E03309136
:104410005F03602B712B822B932B1F910F910C94B8
:104420001B210F931F9300915C0310915D0320915A
:104430005E0330915F0360237123822393231F91D6
:104440000F910C941B210F931F9300915C0310910B
:104450005D0320915E0330915F03602771278227FF
:1044600093271F910F910C941B2108958F929F9277
:10447000AF92BF92DF92EF92FF920F931F93CF9371
:10448000DF9300D000D01F92CDB7DEB76B837C8363
:104490008D838A018C819D81892B31F01F3F31F4FE
:1044A00081E04F3F19F403C081E001C080E080FF4C
:1044B00003C080E090E04DC08B818823D1F18090D3
:1044C0005C0390905D03A0905E03B0905F038091C9
:1044D000600390916103A0916203B0916303882A05
:1044E000992AAA2ABB2A8FE1E82EF12CD501C40112
:1044F0000E2C04C0B695A795979587950A94D2F788
:1045000080FD06C081E0E81AF10880F7D12C07C0D1
:10451000DE2CB8018E2D0E946206019799F388E087
:10452000189FF0011124E452FD4FE00FF11DD082DD
:1045300009C088E0189FF0011124E452FD4FE00FFC
:10454000F11DD08009831A8369817A818D2D0E94A3
:1045500062060F900F900F900F900F90DF91CF9108
:104560001F910F91FF90EF90DF90BF90AF909F90C1
:104570008F90089590911401992379F190911501EC
:10458000992359F1982F9695969596959F31A1F07C
:10459000E0911601F0911701E90FF11D877021E0FC
:1045A00030E0A90102C0440F551F8A95E2F7CA0105
:1045B0009181892B818308959091870390FF29C071
:1045C0001F928F938EE797E09F938F930E945906D7
:1045D0000F900F900F900F90089520911601309139
:1045E0001701F90132969FEF40E05191851789F04C
:1045F0009F3F19F4511101C0942F4F5F4E31A9F71D
:104600009F3F39F0F901E90FF11D97FDFA9582837B
:104610000895089590911401992381F190911501C5
:10462000992361F1982F9695969596959F31A9F0CB
:10463000E0911601F0911701E90FF11D877021E05B
:1046400030E0A90102C0440F551F8A95E2F7CA0164
:10465000809591818923818308959091870390FFAC
:104660001CC01F928F9380E697E09F938F930E94C8
:1046700059060F900F900F900F900895E09116013A
:10468000F09117019F01225E3F4F9281891301C073
:1046900012823196E217F307C1F7089581E090E0A6
:1046A000E0911601F0911701E80FF91F10820196B1
:1046B00080329105A9F7089580918603089590911D
:1046C0008603892B809386030895809590918603B5
:1046D000892380938603089580938603089510921A
:1046E0008603089590918503892B8093850308950F
:1046F0008095909185038923809385030895109276
:1047000085030895809364030895109264030895C7
:104710008091160190911701FC0131969C01205E59
:104720003F4F80E0919191118F5FE217F307D1F72E
:104730000895E0911601F09117018091860380831E
:10474000E0911601F0911701908180918503892BEA
:10475000808380916403882361F0E0911601F091D9
:1047600017019081892B80830E94882381111092E8
:10477000640380911601909117010C944517909352
:1047800047018093460108958295982F937344E0E2
:10479000949F900111248C7C86958695282B822FDE
:1047A0008575880F2A7A2695822B08950895CF93D0
:1047B000DF9300D000D01F92CDB7DEB70F900F90DF
:1047C0000F900F900F90DF91CF9108950895089565
:1047D0000C948F1880E0089583B7817F8C6083BF2D
:1047E00083B7816083BF7894889583B78E7F83BFBA
:1047F0000895CF930E94C6180E94220B0E94C718EA
:10480000C0E08C2F0E94050B811104C0CF5FC03126
:10481000C1F701C081E0CF9108950E940B0B0C9469
:10482000C1191F920F920FB60F9211248F939F936D
:10483000AF93BF938091880390918903A0918A03DD
:10484000B0918B034196A11DB11D80938803909375
:104850008903A0938A03B0938B03BF91AF919F917B
:104860008F910F900FBE0F901F90189582E084BD1E
:1048700093E095BD9AEF97BD80936E0008952FB792
:10488000F8948091880390918903A0918A03B09154
:104890008B032FBF08952FB7F89460918803709110
:1048A000890380918A0390918B032FBF08959C0107
:1048B0004FB7F8948091880390918903A0918A035F
:1048C000B0918B034FBF821B930B089578941F9276
:1048D0000F920FB60F9211248F939F93AF93BF93B4
:1048E0008091880390918903A0918A03B0918B03F2
:1048F0000196A11DB11D8093880390938903A09315
:104900008A03B0938B03BF91AF919F918F910F90CA
:104910000FBE0F901F9018950E94C915F89487E755
:1049200097E7909301088093000887E090EBDC0103
:1049300080939A0390939B03A0939C03B0939D0351
:104940009CE088E10FB6F894A895809360000FBEB4
:1049500090936000FFCF80E090E008950895CF939A
:10496000C82F1F928F9382EA97E09F938F930E94A4
:10497000590681E090E0A0E0B0E0BC01CD0104C0A8
:10498000660F771F881F991FCA95D2F70E942621AC
:104990000F900F900F900F90CF910C94C119CF935F
:1049A0008732A8F58E3108F02BC1803109F49FC001
:1049B000F8F4873009F464C0A8F4863009F024C103
:1049C00080918703817F8E7F8093870387EA97E0BA
:1049D0000E94C0058AE89AE00E94C00581E08093A9
:1049E0008C034CC08B30F1F18E3009F46CC00CC1DB
:1049F000863109F4B0C020F4813109F4EDC004C15E
:104A0000893109F491C08B3109F449C0FDC0883364
:104A100049F150F4893209F4F1C0853309F4EEC04C
:104A2000873209F0F1C0EAC0833409F4E7C028F402
:104A30008A3308F4E9C08953E4C0883409F0E4C03B
:104A40000E94C11989E79AE00E94C0052FEF83ED0B
:104A500090E3215080409040E1F700C000000E94A8
:104A60008C240CC082EC97E05CC080E69AE00E9447
:104A7000C00580918703816080938703C1E0C9C02E
:104A800080918703C82FC17080FFEFCF8CE69AE03A
:104A90000E94C00580918703817F8E7F3DC09091E9
:104AA000870391FBCC27C0F981E0C827892FC0FB81
:104AB00081F980938703CC2319F083E59AE027C01E
:104AC00085E49AE02EC09091870392FBCC27C0F931
:104AD00081E0C827892FC0FB82F980938703CC230C
:104AE00019F086E39AE013C086E29AE01AC090912A
:104AF000870393FBCC27C0F981E0C827892FC0FB2F
:104B000083F980938703CC2351F08AE19AE00E94D5
:104B1000C005809187038160809387037AC08DE010
:104B20009AE00E94C005AACF8EEF99E00E94C005CE
:104B300088ED99E00E94C00580E999E00E94C005D7
:104B400088E699E00E94C0058CE199E00E94C005CA
:104B500080EF98E0E6CF82EE98E00E94C0050E94C8
:104B600039171F928F9388EC98E09F938F930E9440
:104B70005906809114011F928F9381EB98E09F93C7
:104B80008F930E94590680918C021F928F938EE919
:104B900098E09F938F930E945906809115011F9270
:104BA0008F938BE898E09F938F930E9459060E9401
:104BB0004B249F938F937F936F9384E798E09F9309
:104BC0008F930E9459068DB79EB746960FB6F894FC
:104BD0009EBF0FBE8DBF52CF0E94C119C09115015B
:104BE00081E0C827C0931501CC2329F08AE698E01C
:104BF0000E94C0050EC08FE598E093CF80E001C011
:104C00008D510E94AF243ACF8DE598E00E94C005F7
:104C1000C0E08C2FCF91089580E008950C940C266D
:104C2000CF93C82F80918C03882319F0813059F0DD
:104C300042C0E0911601F09117018081823261F04B
:104C40008434D9F509C0E0911601F09117018081F3
:104C5000823211F0843461F48C2F0E940E2681116F
:104C600004C08C2F0E94CF2424C081E090E021C09A
:104C70008C2F0E940C2681111BC0C43189F018F4BE
:104C8000CB3029F010C0C93259F0C83361F487EA3B
:104C900097E00E94C0058EE997E00E94C00508C019
:104CA00010928C030CC08CE997E00E94C00507C0ED
:104CB00081E0817006C010928C0380E002C080E029
:104CC000F8CFCF910895EE0FFF1F0024001C0BBEFC
:0C4CD0000790F691E02D0994F894FFCFB6
:104CDC000080FFFF056B010000FFF10E5E0FF40E6C
:104CEC00290FF50E010165034154005854004E4F35
:104CFC004E45005445524D494E414C0040362239E8
:104D0C00CC06960674063B06C705E005F9051906A0
:064D1C0000100008000475
:106800008800EA44E944E244040005000600070069
:10681000080009000A000B000C000D000E000F001C
:1068200010001100120013001400150016001700CC
:10683000180019001A001B001C001D001E001F007C
:10684000200021002200230024002500260027002C
:10685000280029002A002B002C002D002E002F00DC
:10686000300031003200330034003500360037008C
:10687000380039003A003B003C003D003E003F003C
:1068800040004100420043004400450046004700EC
:10689000480049004A004B004C004D004E004F009C
:1068A000500051005200530054005500560057004C
:1068B000580059005A005B005C005D005E005F00FC
:1068C0006000610062006300640065A185006700EC
:1068D000680069006A006B006C006D006E006F005C
:1068E0007000710072007300890087008A008B00BD
:1068F000E000E100E200E300E400E500E600E7007C
:106900000100010001000100EA4401000100E2442D
:106910000100010001000100460001004A004B0097
:10692000010001004700480001000100E9440100A6
:106930000100010001000100010001003A003B00DC
:106940003C003D003E003F0040004100420043004B
:10695000010035004C0039000100440045005200A0
:1069600049000100010050004F0029004D004E0079
:1069700051000100010001000100010001000100BF
:1069800001000100010001000100010001000100FF
:1069900001000100010001000100010001004D00A3
:1069A0004A004E004B0001000100010001000100FF
:1069B00001000100010001000100010001000100CF
:1069C00001000100010001000100010001000100BF
:1069D00001000100010001000100010001000100AF
:1069E0000100010001000100490001000100010057
:1069F000010001000100010001000100010001008F
:00000001FF
